:020000040800F2
:10000000B05C0020090300086D4C0008BB440008E8
:10001000214B0008AF070008356100080000000010
:10002000000000000000000000000000490200087D
:10003000ED0A000800000000A50200087D58000835
:1000400023030008230300082303000823030008F8
:1000500023030008230300082303000823030008E8
:1000600023030008230300082303000823030008D8
:1000700023030008230300082303000823030008C8
:10008000250A0008230300082303000823030008AF
:1000900023030008230300082303000823030008A8
:1000A0002303000823030008230300082303000898
:1000B0002303000823030008230300082303000888
:1000C0002303000823030008230300082303000878
:1000D000230300081D6100082961000823030008AC
:1000E0002303000823030008230300082303000858
:1000F0002303000823030008230300082303000848
:100100002303000823030008230300082303000837
:10011000095C000823030008230300083D59000878
:100120002303000823030008310A00082303000802
:100130002303000823030008230300082303000807
:10014000B107000823030008230300082303000865
:1001500023030008230300083D0A000823030008C6
:1001600023030008230300082303000823030008D7
:1001700023030008230300082303000800000000F5
:10018000230300082303000800F002F800F04CF8F5
:100190000AA090E8000C82448344AAF10107DA45E2
:1001A00001D100F041F8AFF2090EBAE80F0013F0E8
:1001B000010F18BFFB1A43F001031847BCA8000049
:1001C000DCA800000A4410F8014B14F00F0508BF2A
:1001D00010F8015B240908BF10F8014B6D1E05D013
:1001E00010F8013B6D1E01F8013BF9D1641E03D0EC
:1001F000641E01F8015BFBD19142E4D3704700001B
:100200000023002400250026103A28BF78C1FBD81F
:10021000520728BF30C148BF0B6070471FB508F0B8
:10022000ADF91FBD10B510BD00F08CFA1146FFF7F7
:10023000F5FF06F007FD00F0AAFA03B4FFF7F2FF9E
:1002400003BC00F0ADFA00002C4B19680868B0E858
:10025000F04F80F30988BFF36F8F4FF0000080F3F9
:10026000118870470000000008480068006880F3AB
:1002700008884FF0000080F3148862B661B6BFF3BF
:100280004F8FBFF36F8F00DF00BF00BF08ED00E0AE
:10029000DFF80C00016841F470010160704700BF95
:1002A00088ED00E0EFF30980BFF36F8F134B1A68FE
:1002B0001EF0100F08BF20ED108A20E9F04F1060EB
:1002C00009B44FF0500080F31188BFF34F8FBFF394
:1002D0006F8F07F0DFFB4FF0000080F3118809BC3F
:1002E00019680868B0E8F04F1EF0100F08BFB0ECB6
:1002F000108A80F30988BFF36F8F704714000020C5
:10030000EFF305807047000009488047094800471F
:10031000FEE7FEE7FEE7FEE7FEE7FEE7FEE7FEE7B5
:10032000FEE7FEE704480549054A064B7047000012
:100330002D59000889010008B0560020B05C00204B
:10034000B0580020B058002053EA020C00F0698039
:100350002DE9F04B4FF00006002B1FBFB3FA83F5D9
:1003600003FA05F424FA05F65E4012BF1643B2FA0A
:1003700082F502FA05F4C5F120051EBF22FA05FC3C
:1003800044EA0C04203556EA044C4FEA144418BFE2
:10039000641C4FF000084FF00009904271EB030C11
:1003A00039D3002919BFB1FA81F701FA07F6B0FA7B
:1003B00080F700FA07F6C7F120071EBF20FA07FCF6
:1003C00046EA0C062037B6FBF4FCA7EB0507103F06
:1003D00007F01F0BCBF120060CFA0BFB2CFA06F6EC
:1003E00044BFB3460026202FA4BF5E464FF0000B4B
:1003F0005BEA060C08BF4FF0010B19EB0B09ABFBD6
:10040000027C48EB0608C01B06FB02CC0BFB03CCAE
:1004100071EB0C01C1E70B46024641464846BDE878
:10042000F08B13B54FF000004FF00001AFF30080E8
:10043000BDE81C407047401ECAB210F8011F8A4236
:1004400002D00029F9D10020704710B5431C02E00A
:1004500010F8011B71B18107FAD14FF0013202C8C7
:100460008C1A8C4314EAC211F9D0C01A0A0603D0C0
:10047000C01E10BDC01A10BD0A0401D0801E10BDE0
:100480000902FCD0401E10BD032A40F2308010F05B
:10049000030C00F0158011F8013BBCF1020F62441F
:1004A00098BF11F801CB00F8013B38BF11F8013BB0
:1004B000A2F1040298BF00F801CB38BF00F8013B5D
:1004C00011F0030300F06780083AC0F0088051F88B
:1004D000043B083A51F804CBA0E80810F5E7121DD8
:1004E0005CBF51F8043B40F8043BAFF30080D207F7
:1004F00024BF11F8013B11F801CB48BF11F8012BC3
:1005000024BF00F8013B00F801CB48BF00F8012BE5
:100510007047431A28BF9A427FF6B6AF032A1044A9
:10052000114440F2268010F0030F1EBF11F8013D68
:10053000521E00F8013D10F0030F7FF4F6AF11F0EA
:10054000030300F0AA80083AC0F00B8051F8043D84
:10055000083A51F804CD40F8043D40F804CDFFF7C7
:10056000F3BF121D5CBF51F8043D40F8043DAFF3EA
:100570000080D20724BF11F8013D11F801CD48BF1A
:1005800011F8012C24BF00F8013D00F801CD48BF4F
:1005900000F8012C704710B5203AC0F00B80B1E88C
:1005A0001850203AA0E81850B1E81850A0E81850A8
:1005B000BFF4F5AF5FEA027C24BFB1E81850A0E8B1
:1005C000185044BF18C918C0BDE810405FEA827CCB
:1005D00024BF51F8043B40F8043B08BF7047D207E2
:1005E00028BF31F8023B48BF11F8012B28BF20F883
:1005F000023B48BF00F8012B704702F0FF0343EABB
:10060000032242EA024200F074B84FF0000200B543
:10061000134694469646203922BFA0E80C50A0E825
:100620000C50B1F12001BFF4F7AF090728BFA0E8D3
:100630000C5048BF0CC05DF804EB890028BF40F89F
:10064000042B08BF704748BF20F8022B11F0804FE1
:1006500018BF00F8012B704770477047704710B5FE
:1006600000F068F8006810BD10B5044600F062F8AC
:10067000046010BD431A28BF9A427FF68CAF104425
:1006800010F0030F11441EBF11F8013D521E00F877
:10069000013D10F0030F7FF4F6AF103AC0F00A806E
:1006A00010B531E91850103A20E91850BFF4F9AFED
:1006B000BDE81040530724BF31E9081020E90810B5
:1006C00044BF51F8043D40F8043D12F0030F08BF49
:1006D0007047D20728BF31F8023D48BF11F8012CFE
:1006E00028BF20F8023D48BF00F8012C70474FF0AA
:1006F00000020429C0F0128010F0030C3FF487AF11
:10070000CCF1040CBCF1020F18BF00F8012BA8BFFC
:1007100020F8022BA1EB0C01FFF779BF5FEAC17C47
:1007200024BF00F8012B00F8012B48BF00F8012B73
:10073000704700000048704750560020004870473E
:10074000505600207546FFF7F9FFAE460500694692
:10075000534620F00700854618B020B5FFF7E2FDAC
:10076000BDE820404FF000064FF000074FF00008B2
:100770004FF0000B21F00701AC46ACE8C009ACE833
:10078000C009ACE8C009ACE8C0098D46704710B597
:100790000446AFF300802046BDE81040FFF74DBD92
:1007A00001491820ABBEFEE7260002007047FEE7B5
:1007B000014801F0C0BE00006C01002010B588B0F7
:1007C000002831D00068274988422DD1264C607A14
:1007D000002829D1A07A082826D8207A042818D001
:1007E000207A002820D1A07A08281DD1D4F80B0047
:1007F0000590D4F80F0006909DF815000F2819D821
:100800009DF81600332811D055280FD0AA280DD0F6
:1008100010E0D4F80B000590D4F80F000690A27AEF
:10082000606805A904F0F4FF08B010BD9DF817003A
:100830005128F9D9A17A6A4605A801F06FFB002872
:10084000F2D10A489DF80010808BC2B2914202D0CA
:1008500021688142E8D1142269460548FFF79BFED2
:10086000E2E7000000680040BC530020B800002010
:10087000C4550020F0B589B00D4607461C46164603
:1008800018216846FFF7C1FE0020069007902FB19F
:1008900026B1082C02D8B5F5006F02D3012009B0AB
:1008A000F0BDCDE900500290CDE903042246314667
:1008B00006A8FFF7E9FD06AA6946384603F0E0FD01
:1008C000EDE7F0B589B00D4607461C4616461821DF
:1008D0006846FFF79AFE0020069007902FB126B1D8
:1008E000082C02D8B5F1005F02D3012009B0F0BD99
:1008F0000421CDE900050291CDE9030422463146E9
:1009000006A8FFF7C1FD06AA6946384603F0B8FD00
:10091000ECE710B58AB004001DD0002000900190D3
:100920000E2102900390CDE9040106900120CDE94B
:10093000080107906946204601F0E6FC002808D12E
:100940000221204601F066FC002802D1204601F079
:10095000F7FF0AB010BD0120FBE700002DE9FC47BE
:100960000C00054607D032B1501E6FF06041A1EB7C
:10097000D000A84202D20120BDE8FC8700206946D1
:10098000082A0FD20090019003E0235C0B54401C16
:10099000C0B29042F9D313460A4629462048FFF7D1
:1009A00090FFE9E7D60802F007080027824689464B
:1009B00018E000BFCDF800A000204946CDF804A003
:1009C00000EBC702A25C0A54401CC0B20828F7D34F
:1009D000E91908236A461248FFF773FF0028CBD1B4
:1009E0007F1CFFB2B742E5D3B8F1000F16D0CDF8A7
:1009F00000A000204A46CDF804A005E000EBC601A7
:100A0000615C1154401CC0B24045F7D3A91943465C
:100A10006A460348FFF755FF0028ADD10020ABE739
:100A20006C010020014802F01FB80000C40400203F
:100A3000014802F019B8000004040020014802F047
:100A400013B800006404002001681823CAB2103AE9
:100A5000B2FBF3F2054B6FF30901032A9B5CC365FC
:100A600000D9091D8165084670470000A08600086E
:100A700010B5014600208B698A6A4FF0C07453B1EB
:100A8000B3F5005F15D072B1012A0CD0022A0AD04A
:100A9000032A09D104E01AB1012A06D0022A03D19F
:100AA000C96AC90100D5012010BDC96AA142FAD0A6
:100AB00010BD002AF7D0012AF2D0022AF3D0032A6F
:100AC000F3D010BD30B50468256825F48025256075
:100AD000046863608368402B036803D099600068F2
:100AE000C26030BD9A600068C16030BD70470000D0
:100AF00000680349884202D102490120087070470A
:100B000000100140B800002070B518212548FFF7FB
:100B10007CFD254C00252571A5712583A570E57008
:100B200065719FED220A84ED0A0A84ED0B0A84EDBB
:100B30000C0AE57101262672A6836674A57484EDFD
:100B4000110A84ED120AF0EE000AC4ED130AF6EE63
:100B5000000A1448C4ED140A84ED150A142114384F
:100B6000FFF753FDE57425756575A575E575A565F4
:100B700002F0FCF9E0650E4890F82000022802D04F
:100B8000082001F0A5F96570267004F031FB04F02F
:100B90006FF810B1657100F0D3FABDE8704000F055
:100BA0006BBA0000D8550020B800002000000000FB
:100BB0006C01002070B50E4600681A4988422FD19A
:100BC000194C207800282BD18815864202D9064678
:100BD000002501E000251DE01448002100F5807388
:100BE000425D0D2A08D00A2A06D0208B3F280ED25B
:100BF0001A54401C20830BE0208B48B119542183E8
:100C000002F0B4F9E0650A4800F000FB00E021833F
:100C10006D1CADB2B542DFD3BDE8704000F06EBAD6
:100C200070BD000000100140B8000020D05300202B
:100C3000D05400202DE9F0412DED028BA2B000F040
:100C40001BFA00F09BFF00F003FF02F08FF9F44C59
:100C5000E16DF44D401A0026B0F57A7F0FD9EE759C
:100C6000EE72607910B1667100F06AFAA07CE17DE5
:100C7000084304D0A674E675A08B01F09CF9A07817
:100C800068B1EE75EE72A671A670667100F058FA42
:100C9000A674E675E674A675A08B01F08CF9E07871
:100CA00030B1A671E670667100F04AFA04F01EFBDE
:100CB000207998B1EFF3108072B6D4ED088A94EDE4
:100CC000098A26716671A67100B962B600F038FA19
:100CD000F0EE480AB0EE680A04F0BCFA607928B178
:100CE00001F0EEF810B9667103F09EFD607978B1FD
:100CF000C82004F0EBF840B1DFEDCB1A04F1280076
:100D000090EC030A03F0DEFD10B1667100F018FAF2
:100D100000F0DCFD00F07CFE207D28B12675A67475
:100D2000E675A08B01F047F9A07D0125C8B1A07C34
:100D3000E17D084301D1E07C08B1012700E00027F4
:100D4000A675A674E67517B1A08B01F034F9617C25
:100D5000A08B01F00DFA20B91FB102F007F9A065D0
:100D6000E575E07C80B1E674A07CE17D08430BD1A1
:100D7000A08B01F020F9617CA08B01F0F9F918B982
:100D800002F0F4F8A065E575607D18B16675A08B7A
:100D900001F018FAE07D58B102F0E8F8A16D401AB0
:100DA000642805D3A08B01F009F900B9A574E67594
:100DB000A07C48B1607C01283BD0D4ED120A94EDB0
:100DC000110AA08B01F09AF900F0D4FDDFF85C82E3
:100DD00098F84100202827D1607BA17B914DC83D28
:100DE000884256D0617B05F16400415C072928D018
:100DF000617B405C8E4951F820502846FFF725FB67
:100E000086B2884832462946C838FFF73DFB8549F7
:100E10003246C839854803F0EFFA002804D1607BD8
:100E2000401C00F00F00607322B0BDEC028BBDE8E7
:100E3000F08104F1440090EC050AA08B01F0ECF87D
:100E4000C2E77DA27B48D2E90012C0E91012754EBC
:100E500077490020543E30314FF0200C627B06EB86
:100E60008202125C01EB121302F00F021F7800EBFA
:100E700040032B44401C1F728A5C5A72C0B283F834
:100E80000AC00428EAD30D20E8740A202875152624
:100E9000BDE7207B0028C7D1EFF3108772B614227C
:100EA000604918A81439FFF776FB07B962B6654A9E
:100EB0006549664803F0ECFC634A1FA920A8D2EDFF
:100EC000000A624A92ED000A00F044F9604A1DA946
:100ED0001EA8D2ED000A5F4A92ED000A00F03AF92E
:100EE000DDED200A9FED5C0A56484FEA0D0160EEE9
:100EF000800ACDED000ADDED1F0A60EE800ACDED1F
:100F0000010AD0ED000A5548CDED020ADDED1E0ABA
:100F100060EE800ACDED030ADDED1D0A20EE800AA9
:100F20008DED040A90ED000A4D488DED050A90ED17
:100F3000000A4C488DED060A90ED000A4A488DEDF6
:100F4000070A90ED000A49488DED080A90ED000A65
:100F500047488DED090A90ED000A46488DED0A0AD2
:100F600090ED000AB8EEC00A8DED0B0AA08B00EEE2
:100F7000100AB8EE400A8DED0C0A9DED190A8DEDB0
:100F80000D0A9DED1A0A8DED0E0A9DED1B0A8DEDE1
:100F90000F0A9DF8610000EE100AB8EE400A8DEDD0
:100FA000100A9DF8700000EE100AB8EE400A8DEDB0
:100FB000110A9DF8710000EE100A0020B8EE400AF8
:100FC0008DED120A94ED110A8DED130A94ED120ABB
:100FD0008DED140A94ED130A8DED150A94ED140AA3
:100FE0008DED160A94ED150A8DED170A51F8203093
:100FF00045F82030401C1828F8D305F8606F802091
:101000006E70A8707F20E87098F8410020287FF467
:101010000BAF084964224031044803F0EDF903E7BF
:10102000B8000020D8550020000000002402002055
:1010300040A80008D05400205A44542052583A2066
:10104000000000005C010020580100205401002035
:101050006401002060010020CDCCCC3D680100205F
:101060003C01002038010020400100204401002004
:10107000480100203056002038B51C4C207800284C
:1010800033D060781A4D90B995F8410020282CD1C2
:101090001849284603F03DF9002826D1164A0421B4
:1010A000284603F0FBF800281FD101206070E86B90
:1010B00001F0D6FC052818D00D4802F002FE0028E9
:1010C00013D1E86B01F0CCFC012804D0E86B01F0EF
:1010D0006AFC002809D12868002102684068009055
:1010E0002183BDE8384000F009B838BDB8000020C1
:1010F00024020020B50B0008F10A000870B5EFF3D8
:10110000108472B600200B4D28704FF480720A498B
:101110000A4802F092FD28B101202870002C00D16D
:1011200062B670BD0548C06B0068016821F0080117
:101130000160F3E7B8000020D05300202402002013
:101140000348007A08B103F055BC03F06DBB000002
:10115000B800002008B1C0ED000A002903D0B1EEAC
:10116000400A81ED000A704710B59FED260ADFEDB9
:10117000260AB7EE001A0022F0B3E9B300E0401CE3
:101180000378202BFBD0092BF9D0DCB22D2C02D018
:101190002B2B02D002E0BFEE001A401CB2EE042A54
:1011A0000378303B092B0CD801EE903AF0EE402A40
:1011B0000122F8EEE11A401CB0EE610A02EE820A4A
:1011C000EEE703782E2B11D1B0EE602A09E000BFC4
:1011D00001EE903A0122F8EEE11A01EEA00A60EE6B
:1011E000820A10F8013F303B092BF1D922B121EEE0
:1011F000000A81ED000A00E001E0012010BD00209E
:1012000010BD000000000000CDCCCC3D2DE9F04722
:101210008AB0054600E06D1C28782028FBD00928FC
:10122000F9D0E14890F8200001260027022814D0C8
:101230000222DEA1284600F01EFE00285AD003221A
:10124000DBA1284600F017FE002853D00322D9A1C5
:10125000284600F010FE00284CD0284600F076FA10
:1012600000284AD1D4A1284600F0E8FDD44C00283B
:1012700042D0D4A1284600F0E1FD00283DD0D3A102
:10128000284600F0DBFD00283AD0D2A1284600F025
:10129000D5FD002836D0D1A1284600F0CFFD00288A
:1012A00032D0D0A1284600F0C9FD68B3CFA12846AE
:1012B00000F0C4FD50B30A22CEA1284600F0DBFDA9
:1012C00030B3CFA1284600F0B9FDC0B3CEA1284667
:1012D00000F0B4FDA0B3CEA1284600F0AFFD80B36E
:1012E0000422CEA1284600F0C6FD58B3A07AA0463D
:1012F00048BB63E009205EE0A6700AB0BDE8F08755
:10130000E670FAE7E674F8E72675F6E76675F4E73F
:10131000694605F10A0000F0D7F90028EDD09DECF0
:10132000020A03A902A800F0C1FD9DED020A84EDA6
:10133000080A9DED030A84ED090A2671DDE703E042
:1013400004E005E007E03CE02773D6E7E671D4E768
:101350000220E071D1E72673207A10B1A07850B94D
:1013600001E00A2027E0E07828B9207918B9A07AAE
:1013700008B9607A08B101201DE001A9281D00F01C
:101380006BF9B8B1BDF90400012813DB042811DCA6
:10139000BDF90820012A0DDB052A0BDC6771A77156
:1013A000874966310880BDF8060048808A806672E9
:1013B000002000E0022000F08BFD9EE798F8090075
:1013C00068B1072297A1284600F055FD002894D067
:1013D000052296A1284600F04EFD00288DD0072258
:1013E00090A1284600F047FD30B1042291A1284683
:1013F00000F041FD18B325E098F8020044460028AB
:1014000085D1E078002899D100F05AFD002895D0C8
:101410006946E81D00F020F900288FD06848BDF823
:10142000001060300180BDF802104180BDF804104A
:10143000818001F09BFD60636771A6715DE728798B
:101440003D2812D03D212846FEF7F5FF0028B4D0F4
:1014500000F8017B08A9FFF787FE0028ADD02878A7
:1014600044287CD064287AD091E000240DF1100A41
:101470004FF003096D1DA0D02878A8B14C4513D2B8
:1014800001A92846FFF770FE70B10AEB84009DEDBC
:10149000010A641C80ED000AE4B2287820B12C28EF
:1014A00005F10105F9D1E7E7022C86D398F8080089
:1014B00045460028C2D061489FED610A04998142E7
:1014C00001D98DED040A5F49DFED5F0A049A8A4273
:1014D00001DDCDED040A059A824201D98DED050AA0
:1014E0000598884201DDCDED050A9DED041AF2EE66
:1014F000040AB6EE000AB5EEC01AF1EE10FAF0EEEC
:10150000401A02DB41EE201A01E051EE201ABDEE36
:10151000E11AB8EEC11A8DED041A9DED051AB5EE6B
:10152000C01AF1EE10FA02DB01EE200A01E011EE22
:10153000200ABDEEC00AB8EEC00A8DED050AAF71F3
:10154000F0EE400A9DED040A02A901A800F0AEFCED
:101550009DED010A85ED0A0A9DED020A00E011E009
:1015600085ED0B0A39490698884202D838498842E5
:1015700001DD6F71C1E6032C01D236480068286393
:101580006E71BAE668784D2807D06D2805D09DEDBC
:10159000080A284600F022FCAFE69DED080A28461E
:1015A00000F040FBA9E600006C010020444D000063
:1015B000533238005333350053544F50000000006D
:1015C000B800002050494E47000000005A45524FD5
:1015D00000000000444D454E00000000444D4F46C1
:1015E00046000000444D53544F500000444D5A45AE
:1015F000524F00004F50534F46465345543D000054
:10160000564F464100000000574845454C454E00A6
:10161000574845454C4F4646000000005A44543D4B
:10162000000000004D414E55414C3D00474F544F86
:101630003D000000474F544F00000000000096C3DB
:10164000000096C30000964300009643000061C569
:10165000000061455C010020F0B5002305780124FD
:1016600000222D2D02D02B2D02D002E04FF0FF34AE
:10167000401C0578303D0A2D1ED26FF02F064FF426
:1016800096770578A5F1300CBCF1090F08D802EB6C
:10169000820206EB42022A44401CBA42F1DD0BE012
:1016A000624321F81320022B04D210F8012B2C2ABC
:1016B00002D103E002780AB10020F0BD5B1CDBB26E
:1016C000032BCBD30120F0BD2DE9F0410F4604469A
:1016D00000252278002120462B2A01D02D2A03D173
:1016E000441C01E00121641C2278303A092AF9D90E
:1016F00022782E2A07D100BF14F8012F303A092A88
:1017000001D80121F8E779B107EB85010E46FFF713
:101710002BFD48B10B493068884205D80A498842F8
:1017200002DC25B1207830B10020BDE8F08114F84A
:10173000010B2C28F8D16D1CEDB2022DC9D301206C
:10174000F3E700000000FAC30000FA432DE9FE436E
:10175000044603223DA100F08EFB40B103223CA1D0
:10176000204600F088FB20B10020BDE8FE83002564
:1017700000E00125E41C37A1204600F05FFB374E56
:10178000002798B136A1204600F058FBA0B10522F1
:1017900035A1204600F06FFB4FF4803888B1042259
:1017A00033A1204600F067FB80B34DE005EB450018
:1017B00006EB8000C77247E001240297019700976B
:1017C00033E002226946601D00F056F8E0B300984D
:1017D00085B140F27D61A0F59660884234D20198CF
:1017E000022831D340452FD2029000980224CDE93F
:1017F00000701AE0A0F5D770B0F5C86F24D8019832
:1018000010B340F6880188421ED8EDE7FFE70322B7
:101810006946201D00F030F8B0B10098012813D8B7
:10182000029888B140450FD2032405EB450006EB32
:1018300080050099A972019946F820100298288124
:1018400001F094FB6860EC7201208EE753333500A1
:101850005332380043414E43454C0000D8550020D8
:10186000484F4D45000000004D4F56453D000000DB
:101870005241573D00000000F0B500231DE0002458
:1018800026460A270AE0EE43B6FBF7F6A64218D32F
:1018900004EB8404012605EB4404401C0578303D2C
:1018A000092DF0D96EB141F823405B1C934203D25D
:1018B00004782C2C05D1401CDBB29342DFD3007896
:1018C00008B10020F0BD0120F0BD00002DE9FC4171
:1018D000EFF3108872B6264EB77906F160000188E2
:1018E00061F30F044188808861F31F4460F30F05A2
:1018F00077B101F03BFB716B401AB0F5AF7F07D9B0
:101900000020B07160F31F4460F30F0560F30F0413
:10191000B8F1000F00D162B6002F22D0307A10B19A
:1019200020B220B107E0BDE8FC4102F07DBF2114E8
:1019300001D129B2B9B1211400EE101A01A9F8EEB3
:10194000C00A00EE100A6846B8EEC00A00F0AEFA0F
:1019500028B200EE100AB8EEC01A9DEC020A03F09D
:1019600027F8BDE8FC81BDE8FC4103F043B8000066
:10197000B80000202DE9F0470025DFF890904FF4E3
:101980007A7AA846EFF31086D5B14FF4806772B625
:1019900001F0ECFA05EB450209EB820401466368AD
:1019A0004846C91A514501D984F80B80E17A0129CA
:1019B00009D0E17A02290AD0E17A032913D01BE089
:1019C0004FF44077E3E7384603F038F912E02DB1E1
:1019D000218950F8220003F0A4F80BE00189006887
:1019E00003F0BDF806E0238950F82220A07A39469A
:1019F00003F0D8F8022801D084F80B8006B962B64B
:101A00006D1CEDB2022DBDD3BDE8F087D855002086
:101A100070B5EFF3108072B60C4CE6790025E571D5
:101A200000B962B6002E10D0A571657102F0E2FF18
:101A3000012E06D02572A5716571BDE8704002F0D7
:101A400005BF02F012FF0120207270BDB800002017
:101A50002DE9F843EFF3108072B6474CA2782AB90B
:101A6000E2781AB922790AB9E27902B10122677AD9
:101A7000414B66331E8866F30F055E889B8866F3CC
:101A80001F4563F30F014FF00009884684F8099061
:101A900001260FB102B9A67200B962B672B1A57A79
:101AA0000DB100F02DFA3D4302D0052000F010FAF0
:101AB00084F80A9084F80F90BDE8F8833FB3684635
:101AC00004F08EFB0028FAD1E673F620207401F0B2
:101AD0004DFA0126EFB22064B742304602D104F03D
:101AE00054FC01E004F027FB761CF6B2042EF3D977
:101AF000E7722914384661834FF47A7318FB03F2B6
:101B0000E26308D004F02DFB01F030FAA063A07A64
:101B1000012806D01FE000F0F3F9042000F0D8F906
:101B2000CAE701F023FAA16B401A642813D3B4F971
:101B30001A00002801DA414200E001468AB2C10FD2
:101B40006423E07A04F002FC01F010FAA0630220A2
:101B5000A07203200CE0A07A0228ADD101F006FAB1
:101B6000A16B401AE16B8842A6D300F0C9F90420AA
:101B7000BDE8F84300F0ACB9B8000020F8B504F0B7
:101B8000C3FB0025254C34E088B19DF80000E17AC4
:101B900088420CD19DF80100217C884207D19DF834
:101BA0000200E573022802D00B2000F091F9207B9F
:101BB000F8B1EFF3108172B6A07B401C00F00F0269
:101BC000607B824213D0164E00206B46A77B13F831
:101BD00000C006EB870707F800C0401CC0B204280D
:101BE000F4D30F4B0720A67B103B9855A27301B985
:101BF00062B6684604F0F4FA0028E07BC4D10028FD
:101C00000AD001F0B3F9216C401AB0F5FA7F03D382
:101C1000E573062000F05CF9F8BD0000B800002074
:101C20008455002070B505462DED028BB0EE408A3C
:101C300050A100F003F9FCEEC88A504C48B350A103
:101C4000284600F0FBF888B34FA1284600F0F6F8CC
:101C500068B34FA1284600F0F1F848B34EA12846DA
:101C600000F0ECF8DFED4E8A80B34EA1284600F07C
:101C7000E5F860B34DA1284600F0E0F8002812D145
:101C800018EE100A4B4A4C49904269D9BAEE048AC0
:101C90006CE018EE100A4949A0F17E50884202D843
:101CA00018EE900AA083BDEC028B70BD01E00FE03E
:101CB00020E018EE100AA0F17E50B0F5000FF2D827
:101CC00018EE900A60740120A075ECE724E035E07E
:101CD00018EE100A3A4A3B49904202D9BAEE098AF4
:101CE00005E018EE100A884201DDB2EE098A84EDA3
:101CF000118AD8E718EE100A334A3449904202D9C3
:101D0000BBEE0E8A05E018EE100A884201DDB3EE44
:101D10000E8A84ED128AC6E7B5EEC08A2C49F1EE30
:101D200010FA02D2B0EE688A05E018EE100A884276
:101D300001DD9FED288A84ED138AB4E7B5EEC08AF1
:101D40002549F1EE10FA02D2B0EE688A05E018EEED
:101D5000100A884201DDB1EE048A84ED148AA2E7FC
:101D600018EE100A884201DDB2EE048A84ED158A6D
:101D700099E70000444D494400000000B8000020ED
:101D8000444D4D4F44450000444D504F530000001A
:101D9000444D56454C000000444D4B50000000009F
:101DA00000000000444D4B4400000000444D544FDF
:101DB00052000000000020C10000204100E05F054B
:101DC000000048C1000048410000F0C10000F0419F
:101DD0000000FA430000FA430000A0402DE9F04162
:101DE00007262DED028BB0EE408A134D07460024E6
:101DF00005EB04100168384600F020F830B1641C8F
:101E0000B442F5D3BDEC028BBDE8F08105EB0410C4
:101E100090ED020AB4EEC80AF1EE10FA06DC90ED7D
:101E2000030AB4EEC80AF1EE10FA01D2B0EE408A0D
:101E3000406880ED008AE5E7D0A7000810B50FE004
:101E4000A3F16104192C01D8203BDBB2A2F161049B
:101E5000192C01D8203AD2B293420AD1401C491C15
:101E600003781BB10A78002AEAD102E0087800283A
:101E700000D0012010BD70B5002511E0435D4C5D20
:101E8000A3F16106192E01D8203BDBB2A4F1610653
:101E9000192E01D8203CE4B2A34205D123B16D1C18
:101EA0009542EBD3002070BD012070BD18B1F1EE5A
:101EB000600AC0ED000A002901D081ED000A7047D8
:101EC0000248007A002800D001207047B8000020A6
:101ED00030B5EFF3108172B6074A937B547B5B1CDD
:101EE00003F00F03A34203D0044C957B605593731A
:101EF000002900D162B630BDB80000207455002022
:101F000010B5054CE07A04F040FAFFF719F900200B
:101F1000A072E07310BD0000B80000202DE9F04170
:101F20000E460500144602D00CB1062E02D2012046
:101F3000BDE8F08114211046FEF767FB2878F2EE29
:101F4000090A00F00F0020702878BAEE090A00098B
:101F50006070E978B5F801000A01297940BA42EACF
:101F600011186A7901F00F0142EA0127102100F0EF
:101F70002DF984ED010A0C21F3EE0E0ABBEE0E0AD8
:101F8000404600F023F984ED020A0C21F2EE040A27
:101F9000BAEE040A384600F019F984ED030A062E59
:101FA00001D9A8792074072E01D9E879607401203D
:101FB000A0740020BCE7FD2100F0B8B8FC2100F0BF
:101FC000B5B8B0B1102814D8B4EEE01AF1EE10FA9A
:101FD0000FD901218140491E01EE901A31EE602A8D
:101FE000B4EEE00AF8EE612AC2EE821AF1EE10FABF
:101FF00001D800207047B4EEC10AF1EE10FA01DBFF
:1020000088B2704730EE600A20EE210ABCEEC00AAA
:1020100010EE100A80B270472DE9F04180462DED98
:10202000048B82B0F0EE428AB0EE619AF0EE419AF3
:10203000B0EE608AB0F5E06F53D21020B2EE091A0C
:10204000FAEE090AFFF7BDFF07460C20B3EE0E1AA1
:10205000FBEE0E0AB0EE480AFFF7B3FF9FED258AAC
:1020600006460C209FED221AF0EE480AB0EE690AEF
:10207000FFF7A7FF05460C20B1EE041AF0EE480A60
:10208000B0EE490AFFF79DFF04460C20B2EE041A99
:10209000FAEE040AB0EE680AFFF793FF390A8DF8EA
:1020A00000108DF8017031098DF80210C5F303217D
:1020B00041EA06118DF803108DF8045021098DF8BE
:1020C0000510C0F3032141EA04118DF806108DF8C4
:1020D000070008236A4641460748FEF7CBFB002865
:1020E00000D0012002B0BDEC048BBDE8F0810000FF
:1020F0000000FA43000000006C0100201CB500F550
:10210000807189B2B0F5E06F0BD2B1F5006F08D2E3
:1021100008236A4604488DEC020AFEF7ABFB002850
:1021200000D001201CBD00006C0100201CB5B0F5E2
:10213000E06F18D2FF228DF804208DF805208DF86D
:1021400000208DF806208DF801208DF802208DF8F2
:1021500007108DF80320014608236A460348FEF75E
:1021600089FB002800D001201CBD00006C0100206C
:102170001CB5B0F5E06F20D2012901D002291CD195
:102180008DF80000000A8DF8010055208DF802003E
:102190000A208DF803008DF8041000208DF805004A
:1021A0008DF806008DF8070008236A4640F2FF719B
:1021B0000348FEF75FFB002800D001201CBD000093
:1021C0006C010020FE21FFF7B1BF000031B11029E2
:1021D00004D8F4EEC00AF1EE10FA02D89FED0B0A13
:1021E000704701EE900A012230EEC01A8A40521E5A
:1021F000F8EE611A00EE902AF8EE600A21EE811ADC
:10220000C1EE201A31EE800A704700000000000085
:1022100072B6FEE790F82020012A07D0022A05D0E6
:10222000416A41F48021416201207047006842699F
:102230000A43426100207047F0B590F820500468CE
:10224000A468012D05D0022D03D0416A41F48021FC
:1022500057E014F0406F01D1E5004FD5C4F301649D
:102260000125A5401D608D684FF4C0739DB1CE68F7
:1022700035434E6845EAC605066803EB0417F55179
:102280004FF4C275076805EB04150E697E51097D90
:10229000012905D009E00E88CD6845EA4655EBE7EF
:1022A00001684E5946F480764E511179D5795679A8
:1022B00041EA056195792D0445EA062529434FF445
:1022C000C676056806EB0416A9511178D57841EA5F
:1022D0000561957852782D0445EA022211434FF4A6
:1022E000C475026805EB04155151006803EB041135
:1022F000425842F0010242500020F0BD416A41F4D0
:10230000001141620120F0BD10B590F82020012A93
:1023100007D0022A05D0416A41F4802141620120A0
:1023200010BD3B48D0F8002242F00102C0F8002264
:10233000D0F8002222F47C52C0F80022D0F800220B
:102340004B6A42EA0322C0F800220A7D02F01F0312
:1023500001229A40D0F81C329343C0F81C32CB695A
:10236000B3B9D0F80C329343C0F80C328C894B6867
:1023700064F31F434C6900EBC404C4F840320C8979
:102380000B6864F31F434C6900EBC404C4F8443287
:10239000CB69012B16D1D0F80C321343C0F80C32A4
:1023A0000C884B6864F31F434C6900EBC404C4F809
:1023B00040320C89CB6864F31F434C6900EBC404C2
:1023C000C4F844328B69002BD0F804320ED013438A
:1023D000C0F804320B69002BD0F8143208D0134334
:1023E000C0F81432096A012904D008E09343EFE7EA
:1023F0009343F5E7D0F81C121143C0F81C12D0F833
:10240000001221F00101C0F80012002010BD0000F0
:1024100000640040704770B590F82040012C05D052
:10242000022C03D0416A41F4802128E0046809B3FA
:102430002469A40720D04FF4D874056804EB011474
:102440002D5915F00405956005682D591AD0ED0831
:10245000556005682C5904F00204D4604FF4DA7416
:10246000056804EB01142E5906F00F06082E0CD354
:1024700008250DE0E468DCE7416A41F4001141629F
:10248000012070BD6D0D1560E3E72D5905F00F05B6
:10249000156105682D59C5F30725956105682C5907
:1024A000240C54614FF4DC72046802EB0112A4584E
:1024B0001C700468A458240A5C700468A458240C96
:1024C0009C700468A258120EDA704FF4DE72046831
:1024D00002EB0112A4581C710468A458240A5C7110
:1024E0000468A458240C9C710468A258120EDA7176
:1024F000006829B1016941F020010161002070BD2F
:10250000C16841F02001C160F8E70246002092F85E
:102510002010012901D002290CD111688A685201CA
:1025200000D501208A68120100D5401C8968C900C5
:1025300000D5401C70472DE9F05F05460068002477
:102540004669D0F804908768D0F80CB0D0F810A095
:10255000D0F81880F10748D0F90714D00121816024
:10256000B80703D5284600F018FA0CE0780702D522
:102570004FF4006407E0380702D54FF4805402E0BE
:10258000284600F009FAF80516D529684FF480703E
:102590008860B80503D5284600F001FA0CE07805FC
:1025A00002D544F4005407E0380502D544F48044D1
:1025B00002E0284600F0F2F9F80316D529684FF436
:1025C00080308860B80303D5284600F0EAF90CE0B3
:1025D000780302D544F4004407E0380302D544F4FC
:1025E000803402E0284600F0DBF9300707D55FEAC7
:1025F000CB6004D52968102044F40074C8607007CB
:102600004FF0080707D55FEA0B7004D52868C7604C
:10261000284600F05FF9B00706D52868C068800733
:1026200002D0284600F058F9700607D55FEACA6064
:1026300004D52968102044F480640861B00607D5E9
:102640005FEA0A7004D528680761284600F074F92B
:10265000F00606D528680069800702D0284600F0F9
:102660006CF9B00308D55FEAC96005D52968102068
:102670004860284600F062F9F00307D55FEA097068
:1026800004D528684760284600F08CF9300446D508
:102690005FEA497040D5F00504D55FEAC87001D003
:1026A00044F00104B00504D55FEA887001D544F018
:1026B0000204700504D55FEA487001D544F00404B3
:1026C000300529D518F0700F26D008F0700040288A
:1026D00015D006DC102809D020280AD0302816D1C1
:1026E0000AE050280ED0602811D10EE044F0080412
:1026F0000DE044F010040AE044F0200407E044F048
:10270000400404E044F0800401E044F4807428684C
:10271000816921F070018161296804204860002CE2
:1027200005D0686A204368622846FFF773FEBDE85B
:10273000F09F70B5040003D094F8200010B104E0BD
:10274000012070BD204600F081F82068016841F04A
:102750000101016000F00AFC0546052604E000F0D6
:1027600005FC401B0A2811D820684068C007F6D035
:102770002068016821F00201016000F0F7FB0546C6
:102780000BE000F0F3FB401B0A2806D9606A40F416
:102790000030606284F82060D2E7206840688007DB
:1027A000EFD4207E0128206801683DD021F080010F
:1027B0000160607E01282068016838D021F0400166
:1027C0000160A07E01282068016833D021F020013B
:1027D0000160E07E0128206801682ED041F01001E0
:1027E0000160207F01282068016829D021F00801BC
:1027F0000160607F01282068016824D021F0040175
:102800000160D4E902010843D4E9041211430843EA
:102810006168491E08432168C86100206062012088
:1028200084F82000002070BD41F08001C0E741F035
:102830004001C5E741F02001CAE721F01001CFE7D0
:1028400041F00801D4E741F00401D9E710B586B0A2
:10285000044614216846FDF7D8FE1B4920688842CB
:1028600030D11A480021026842F00072026002680A
:1028700002F000720592026842F080620260006815
:1028800000F08060059011481038026842F00202A2
:102890000260006800F002000590602000900220B5
:1028A000CDE90101032003900920049069460848FE
:1028B00000F05EFA00220521402000F0F5FB4020E8
:1028C00000F0E4FB06B010BD006800404038024054
:1028D000000402407047000010B58AB0040022D006
:1028E0001249206888421ED16B4602AA0021204668
:1028F000FFF791FD002816D10D4902980860039852
:102900004860049808720598487206988872009882
:10291000C1F80B000198C1F80F00064901200870AA
:102920002046FDF74BFF0AB010BD000000680040D4
:10293000BC530020B400002070477047704700006F
:1029400070B5044690F82000012804D0606A40F475
:102950000020606218E0022084F8200020680168EE
:1029600021F00101016000F001FB05460EE000BF0F
:1029700000F0FCFA401B0A2808D9606A40F40030D5
:102980006062052084F82000012070BD2068406846
:10299000C007EDD1606270BD7047704770477047E7
:1029A0007047704770472DE9F0410446876D00F08D
:1029B000DDFA064694F835000025022806D080206E
:1029C000606584F834500120BDE8F081206801681A
:1029D00021F0160101602068416921F08001416108
:1029E000206C08B9A06C20B12068016821F00801B2
:1029F00001602068016821F0010101600CE000F035
:102A0000B5FA801B052807D920206065032084F8CB
:102A1000350084F83450D7E720680068C007EED14D
:102A200094F85C103F208840B860012084F835009D
:102A300084F834500020C7E790F83510022903D0FD
:102A40008021416501207047052180F8351000681C
:102A5000016821F00101016000207047406D70475E
:102A600090F83500704700002DE9F84304464FF018
:102A70000009CDF8009063484FF41651A56D006829
:102A8000B0FBF1F72E6894F85C10082000FA01F111
:102A900031420FD021680A6852070BD50A6822F02C
:102AA00004020A6094F85C108840A860606D40F0F1
:102AB0000100606594F85C104FF0010808FA01F01D
:102AC000304208D021684969090604D5A860606DC4
:102AD00040F00200606594F85C10042088403042A9
:102AE00008D021680968890704D5A860606D40F0A6
:102AF0000400606594F85C1010208840304218D0C3
:102B000021680968090714D5A8602068016849038D
:102B100004D50068000308D5A16C07E00168C90569
:102B200003D4016821F008010160216C09B120463D
:102B3000884794F85C1020208840304231D02168CA
:102B40000968C9062DD5A86094F8350005282068C5
:102B5000016806D0490347D5006800031DD4616CA5
:102B60001CE021F0160101602068416921F080011C
:102B70004161206C08B9A06C20B12068016821F087
:102B80000801016094F85C103F208840A86084F838
:102B9000358084F83490216D1FE0E16B09B1204647
:102BA0008847606D00282BD0606DC00714D00520C9
:102BB00084F835002068016821F001010160009867
:102BC000401C0090B84203D820680068C007F6D1C6
:102BD00084F8358084F83490E16C002910D001B07D
:102BE0002046BDE8F04308470168C905D5D401680F
:102BF00021F01001016084F8358084F83490CCE72E
:102C0000BDE8F883100000202DE9F041044600F0F3
:102C1000ADF906465CB1022084F83500002584F841
:102C200034502068016821F0010101600DE00120AD
:102C3000BDE8F08100F09AF9801B052805D9202015
:102C40006065032084F83500F2E720680068C0075B
:102C5000F0D12268116820480140D4E901031843EB
:102C6000D4E903363343184363691843A36918430F
:102C7000E3691843236A18430843616A042903D1AE
:102C8000D4E90B1319430843106020684069666A51
:102C900020F0070130460E43012704280CD1A06A1A
:102CA0000643E06A40B12046FDF7E2FE20B1402035
:102CB000606584F83570BAE7206846612046FDF704
:102CC000C3FE94F85C203F2191408160656584F8E3
:102CD00035700020ACE700003F8010F02DE9F04196
:102CE0000446866D90F83400002501280DD001209F
:102CF00084F8340094F835700020012F07D084F850
:102D0000340002252846BDE8F0810220FBE70227B7
:102D100084F8357060652046FDF7D4FE94F85C10A9
:102D20003F208840B0602068016841F016010160D2
:102D3000206C20B12068016841F008010160206822
:102D4000016841F001010160DCE7000070B5044654
:102D500000F00CF90546601C02D0044800780444D9
:102D600000F004F9401BA042FAD370BD040000201B
:102D70002DE9F84FDFF8BCA10022012503264FF012
:102D80000F090AF1040BAAF1040E00BF0B6805FA43
:102D900002F42340A34270D10F7907F00307012FFB
:102DA00001D0022F16D187684FEA420806FA08FCC4
:102DB00027EA0C07D1F80CC00CFA08FC4CEA070C07
:102DC000C0F808C04768A7430C79C4F300149440C6
:102DD0003C4344600C79E443A4070AD0C4684FEA3A
:102DE000420C06FA0CF7BC438F6807FA0CF727432E
:102DF000C7600C7904F00304022C12D1D40800EB54
:102E0000840CDCF820405707FF0E09FA07F824EA83
:102E10000804D1F8108008FA07F848EA0408CCF84A
:102E2000208004684FEA420C06FA0CF7BC430F7985
:102E300007F0030707FA0CF7274307604C6814F400
:102E4000403F70D03C4C276847F480472760246897
:102E500022F0030704F480440094384C07EB040C80
:102E6000DCF8084897074FEA177809FA08F7BC43D7
:102E7000334FB84202D1002724E054E0314FB8422A
:102E800001D101271EE0304FB84201D1022719E0DD
:102E90002E4FB84201D1032714E02D4FB84201D183
:102EA00004270FE02B4FB84201D105270AE02A4F33
:102EB000B84201D1062705E0284FB84201D10727C3
:102EC00000E0082707FA08F72743CCF80878DAF873
:102ED00000405746D1F804C09C435FEACC2C00D593
:102EE0001C433C60DBF800405F46D1F804C09C43C3
:102EF0005FEA8C2C00D51C433C60DEF8004077462E
:102F0000D1F804C09C435FEA8C3C00D51C433C6074
:102F1000084F083F3C68D1F804C09C435FEACC3CB2
:102F200000D51C433C60521C102AFFF42FAFBDE8B3
:102F3000F88F0000083C0140443802400030014056
:102F4000000002400004024000080240000C024061
:102F5000001002400014024000180240001C024011
:102F60000AB1816170470904FBE7000001488068ED
:102F70007047000004000020024881680278114474
:102F800081607047040000200B4810B5016841F4CF
:102F900000710160016841F480610160016841F4E1
:102FA00080710160032000F09FF80F2000F006F808
:102FB00000F050F8002010BD003C024030B505463E
:102FC0001F4887B00024016841F0200101600068BB
:102FD00006A900F02000009001A800F031F9049843
:102FE000A8B100F04DF940001649174AB0FBF1F1C5
:102FF0001648491E026040F2E732C0E90324C0E9E6
:103000000114846100F0B6FB040003D015E000F069
:1030100037F9E9E70D4800F0FDFB04000DD137203A
:1030200000F034F8102D07D200222946372000F096
:103030003BF80748056000E0012407B0204630BD9A
:103040004038024040420F00001400402405002098
:10305000080000200C4882B0016841F48041016002
:10306000006800F4804000900748001F016841F0AC
:10307000805101600068002200F0805000900F2114
:10308000901E02B000F010B844380240002809DB5E
:1030900000F01F02012191404009800000F1E02072
:1030A000C0F8001170470000F0B40E4B1B680C46CE
:1030B000C3F30223C3F10705042D00D90425191D0C
:1030C000072901D2002300E0DB1E012606FA05F1E4
:1030D000491E214099409E40761E16403143F0BC67
:1030E00003F07AB90CED00E0064900F00702086829
:1030F0004FF6FF03184040EA0220034A10430860DD
:10310000704700000CED00E00000FA052DE9F047E3
:103110000E46050065D0DFF81481D8F80000F7B23C
:1031200000F00700B04207D288F80070D8F800001D
:1031300000F00700B04254D128683D4C810712D5F9
:10314000400703D5206840F4E0502060287800074D
:1031500003D5206840F4604020602068A96820F012
:10316000F000084320602878C0072DD030496868F7
:103170000839012812D0022813D0032811D0096879
:10318000890700292DDA216821F00301014321601C
:10319000FFF7ECFE814641F2883A0EE009688903A8
:1031A000EFE709688901ECE7FFF7E0FEA0EB090112
:1031B000514502D90320BDE8F0872068696800F016
:1031C0000C00B0EB810FEFD1D8F80010404601F0B1
:1031D0000701B14207D90770006800F00700B0424C
:1031E00001D00120E7E72878400705D52068E96885
:1031F00020F4E050084320602878000706D52068B6
:10320000296920F4604040EAC100206000F058F8CD
:103210002168084AC1F30311515CC840064908609F
:1032200006480068FFF7CAFE0020C4E7003C0240E1
:1032300008380240A886000810000020080000207E
:103240000F2202600C4A136803F003034360136803
:1032500003F0F0038360136803F4E053C360126863
:103260004FF4E05303EAD20202610448006800F020
:10327000070008607047000008380240003C024028
:103280000448054900680968044AC1F38221515C79
:10329000C84070471000002008380240B886000877
:1032A0000448054900680968044AC1F34231515C89
:1032B000C84070471000002008380240B886000857
:1032C000154810B5006810F00C02144813D04110D6
:1032D000042A0FD0082A0ED10F4C241F226823681D
:1032E00002F03F025B0207D52068C0F38810A0FB04
:1032F000010106E0084610BD2168C1F38811A1FB59
:1033000000010023FDF720F82168C1F30141491CA9
:103310004900B0FBF1F010BD083802400024F40071
:103320002DE9F84F04006ED02078DFF84C93C007E9
:10333000A9F104054AD009F104000168C1F3810133
:10334000012908D00068C0F3810002280AD1D9F809
:103350000000400206D52868800337D56068002841
:10336000E1D033E06068B0F5803F10D0B0F5A02F19
:10337000286810D020F480302860286820F480204D
:1033800028606068A8B1FFF7F1FD06460DE02868E7
:1033900040F48030F4E740F480202860F7E700BF75
:1033A000FFF7E4FD801B642873D828688003F7D5F5
:1033B0000CE0FFF7DBFD064605E000BFFFF7D6FD9A
:1033C000801B6428F0D828688003F7D42078DFF8C1
:1033D000AC8280074FF0000A3ED5A748001D016867
:1033E00011F00C0F08D00068C0F3810002280BD147
:1033F000D9F80000400207D42868800716D5E06895
:10340000012800D112E033E1E068B8B10120C8F82A
:103410000000FFF7ABFD064605E000BFFFF7A6FD85
:10342000801B0228C0D828688007F7D52868216942
:1034300020F0F80040EAC10028600DE0C8F800A0C4
:10344000FFF794FD064604E0FFF790FD801B02287D
:103450001FD828688007F7D42078000722D5864F28
:1034600087486169703771B101210160FFF77EFD06
:10347000064604E0FFF77AFD801B022809D8386869
:103480008007F7D50EE0C0F800A0FFF76FFD0646F5
:1034900005E082E0FFF76AFD801B02287DD83868CE
:1034A0008007F7D42078400768D5DFF8CCB1002733
:1034B0000BF13C0BDBF80000C0000BD4DBF8001074
:1034C00041F08051CBF80010DBF80000012700F03C
:1034D000805000906B4E3068C00510D4306840F4C6
:1034E00080703060FFF742FD009005E0FFF73EFD81
:1034F0000099401A022850D83068C005F6D55E4EB3
:10350000A0686C3601280FD00528306810D020F054
:1035100001003060306820F004003060A068B8B16D
:10352000FFF724FD00900FE0306840F00100F4E761
:1035300040F004003060F7E7FFF718FD0099411AEA
:1035400041F28830814266D830688007F4D50EE0B9
:10355000FFF70CFD009007E0FFF708FD0099411A06
:1035600041F28830814256D830688007F4D42FB1B8
:10357000DBF8001021F08051CBF80010A069C8B32F
:103580003D49091D0968C1F3810102294AD0022879
:10359000504607D0C8F8600000E03CE0FFF7E6FCCA
:1035A00004463BE04746C8F86000FFF7DFFC0646EC
:1035B00005E000BFFFF7DAFC801B02282BD8286843
:1035C0008001F7D4D4E907010843A16A2E4A4908CB
:1035D00002EB0141626A41EA8211084394F82C101F
:1035E00040EA0161C9F8001001203866FFF7BEFC0F
:1035F000044606E03EE000BFFFF7B8FC001B0228CF
:1036000009D828688001F7D534E000BFFFF7AEFC89
:10361000001B022802D90320BDE8F88F286880012A
:10362000F4D427E00128F7D0D9F80000E26900F4CB
:10363000800191421CD1226A00F03F01914217D1D2
:1036400047F6C071626A0140B1EB821F10D1A26AD5
:103650004FF0FF3300F4403103EB5202B1EB024F65
:1036600006D194F82C1000F07060B0EB016F01D01F
:103670000120D1E70020CFE7043802400000474294
:10368000800E4742007000400000FFFF7047704707
:1036900010B590F83C20012A22D0012280F83C206D
:1036A000CA688C6822F4407222434C6822F480621B
:1036B00022430C6822F4006222430C6922F48052F7
:1036C00022434C6922F400522243C969002322F4A8
:1036D00080420A4301684A6480F83C30002010BDF3
:1036E000022010BD70B590F83C20012A32D0012490
:1036F00080F83C40022280F83D2003685A689D68AB
:1037000022F070060A6832435A60134B02689A42EC
:1037100014D0B2F1804F11D0104B9A420ED0104B02
:103720009A420BD00F4B9A4208D00F4B9A4205D0C9
:103730000E4B9A4202D00E4B9A4204D1496825F0B2
:1037400080031943916080F83D40002180F83C10CF
:10375000084670BD022070BD00000140000400401A
:1037600000080040000C00400004014000400140FF
:103770000018004010B5040003D094F83D0010B1CB
:1037800007E0012010BD002084F83C00204600F036
:103790001FF8022084F83D00211D206802F0D4F8B3
:1037A000012084F8460084F83E0084F83F0084F845
:1037B000400084F8410084F8420084F8430084F813
:1037C000440084F8450084F83D00002010BD00004E
:1037D00008B500680C49884208D10C48016841F0DE
:1037E00001010160006800F001000BE00849884217
:1037F00009D10648001F016841F01001016000680E
:1038000000F01000009008BD000001404438024064
:103810000010004090F83D10012901D001207047B0
:10382000022180F83D100168CA6842F00102CA60B6
:1038300000681149884214D0B0F1804F11D00F496F
:1038400088420ED00E4988420BD00E49884208D0DB
:103850000D49884205D00D49884202D00C49884262
:1038600004D1816801F00701062903D0016841F005
:103870000101016000207047000001400004004089
:1038800000080040000C00400004014000400140DE
:103890000018004070B5044690F83C00002501284F
:1038A00017D0012684F83C60022084F83D0020688F
:1038B000826822F0770222F47F42826008685028F2
:1038C00038D00DDC20284FD005DC90B3102811D162
:1038D0004AE0022070BD302846D040280AD13BE0A3
:1038E00060282FD070280DD0B0F5805F03D0B0F5E0
:1038F000005F12D0012584F83D60002084F83C0070
:10390000284670BDCB68D1E90121206802F084F817
:103910002068816841F0770109E0CB68D1E9012195
:10392000206802F079F82068816841F48041816064
:10393000E1E719E0CA684968206802F041F95021BE
:10394000206806E0CA684968206802F04AF96021E8
:10395000206802F06BF8CEE7CA684968206802F078
:103960002FF940212068F4E7226801461046F0E76D
:1039700070472DE9F04104460068C66805694FF0BC
:103980000007A90713D5B10711D5F91E0161012060
:103990002077206880698007204602D0FFF7E8FF83
:1039A00004E000F0A9F8204600F03BF9277768070B
:1039B00016D5700714D521686FF004000861022045
:1039C00020772068806910F4407F204602D0FFF7FE
:1039D000CFFF04E000F090F8204600F022F92777AE
:1039E000280715D5300713D521686FF00800086146
:1039F000042020772068C0698007204602D0FFF7A6
:103A0000B7FF04E000F078F8204600F00AF92777C5
:103A1000E80616D5F00614D521686FF0100008618D
:103A2000082020772068C06910F4407F204602D02B
:103A3000FFF79EFF04E000F05FF8204600F0F1F889
:103A40002777E80708D0F00706D021686FF001005B
:103A50000861204600F0E6F8280608D5300606D5AD
:103A600021686FF0800008612046FFF70FFE6806AE
:103A700008D5700606D521686FF040000861204621
:103A800000F0DAF8A8060AD5B00608D521686FF06C
:103A9000200008612046BDE8F041FFF7F8BDBDE811
:103AA000F081000010B586B0044614216846FCF78A
:103AB000ACFD0E492068884216D10D4800210268ED
:103AC00042F010020260006800F0100005904FF410
:103AD000007000900220CDE901010120CDE9031022
:103AE00069460448FFF744F906B010BD00000140E4
:103AF0003038024000100240704770B5044690F81C
:103B00003C0000260D4601280FD0012084F83C001F
:103B10006AB1042A1DD0082A2FD00C2A3FD00126D2
:103B2000002084F83C00304670BD022070BD206843
:103B300001F084FF2068816941F0080181612068FB
:103B4000816921F004018161206881692A6911433A
:103B500011E0206801F0A2FF2068816941F4006152
:103B600081612068816921F48061816120688169B7
:103B70002A6941EA02218161D2E7206801F0C4FF8D
:103B80002068C16941F00801C1612068C16921F064
:103B90000401C1612068C1692A69114311E02068EC
:103BA00001F0E6FF2068C16941F40061C16120684D
:103BB000C16921F48061C1612068C1692A6941EA53
:103BC0000221C161ACE710B5040003D094F83D00B8
:103BD00010B107E0012010BD002084F83C00204611
:103BE00000F01EF8022084F83D00211D206801F03D
:103BF000ABFE012084F8460084F83E0084F83F00C4
:103C000084F8400084F8410084F8420084F84300BE
:103C100084F8440084F8450084F83D00002010BD7D
:103C20007047704700680349884201D1FFF7A4B983
:103C30007047000000140040704738B5044690F803
:103C40004200202801D0022038BD51B14AB10120E4
:103C5000206300206063204602F0BCF9216B01293B
:103C600001D0012038BD21680A68496800912168A7
:103C70000C3151E8002F42F0100241E80023002BE4
:103C8000F5D138BD70B50D4600680B49884212D198
:103C9000402D02D94025002401E0002405E007481A
:103CA000005D01F027F9641CA4B2AC42F7D3BDE873
:103CB000704001F071BA70BD00440040E85200202D
:103CC000704770B5044620680C3050E8001F21F49E
:103CD000907140E80012002AF5D12068143050E8B5
:103CE000001F21F0010140E80012002AF5D1206BED
:103CF000012809D120680C3050E8001F21F0100184
:103D000040E80012002AF5D1206840694FF0000514
:103D1000400615D52068143050E8001F21F04001FE
:103D200040E80012002AF5D1E06B48B10565E06B70
:103D3000FEF739FE20B1E06BFEF790FE202806D09A
:103D4000E585202084F842002563002070BD102006
:103D50006064032070BD704770470000006805492B
:103D6000884206D10448816A491C816203490120C6
:103D70000870704700440040685300209C000020F9
:103D8000F8B5016804460868CA684B6910F00F0F5F
:103D90004FF0000556D003F0010602F49077374348
:103DA00061D0C10705D0D10503D5616C41F0010197
:103DB0006164410705D5D90703D0616C41F0020168
:103DC0006164810705D5D90703D0616C41F0040116
:103DD0006164010707D502F02001314303D0616C13
:103DE00041F008016164616C00293BD0800604D574
:103DF000900602D5204602F005F820684069616C03
:103E0000C0F38010090700D440B3204601F09EFFA4
:103E10002068406940061ED52068143050E8001F15
:103E200021F0400140E80012002AF5D1E06B90B18A
:103E300072490165E06BFEF7FFFD002812D0E06BD0
:103E4000016DD7E083060ED593060CD52046BDE85C
:103E5000F84001F0D7BF2046A16DCBE0A16D204610
:103E600088476564F8BD266B2023012E7ED1C606E7
:103E70007CD5D6067AD508684868009048694FF026
:103E80000206400649D5E26B106840684FF480771F
:103E90000004000C3AD0A18D814237D9E085D06969
:103EA000B8422DD020680C3050E8001F21F48071FA
:103EB00040E80012002AF5D12068143050E8001FB5
:103EC00021F0010140E80012002AF5D120681430E9
:103ED00050E8001F21F0400140E80012002AF5D10F
:103EE00084F84230256320680C3050E8001F21F030
:103EF000100140E80012002AF5D1E06BFEF753FDF7
:103F00006663A08DE18D401A81B233E0A18D8142BC
:103F1000A8D1D069B8422CD0F8BDA08DE18D401A4F
:103F200081B2E08D0028F7D00029F5D020680C3050
:103F300050E8002F22F4907240E80027002FF5D1BE
:103F40002068143050E8002F22F0010240E80027DA
:103F5000002FF5D184F84230256320680C3050E8FA
:103F6000002F22F0100240E8002300E008E0002BC0
:103F7000F3D16663E26E01B02046BDE8F040104721
:103F800005062BD5150629D594F841002128C3D163
:103F9000A068B0F5805F01D12069B0B1206A411CF2
:103FA0002162216800784860E08C401E0004000C0B
:103FB000E084B1D12068C16821F08001C16020682F
:103FC000C16841F04001C160F8BD206A0088C0F3BB
:103FD00008004860206A801C2062E5E74006F3D5AF
:103FE0005006F1D5CA68204622F04002CA6084F823
:103FF0004130E16C01B0BDE8F0400847155C0008B5
:1040000070B5040004D094F84100002510B10DE013
:10401000012070BD84F84050204601F0CDFE206F95
:1040200008B914482067014620468847242084F8B0
:1040300041002068C16821F40051C160204601F0B0
:1040400043FF2068016921F49041016120684169C2
:1040500021F02A0141612068C16841F40051C1602A
:104060006564202084F8410084F8420065630020E4
:1040700070BD0000794000082DE9F04F87B006467A
:1040800014216846FCF7C1FA72490223D6F800C031
:10409000714803220725DFF8C4B100249F064FF4BE
:1040A00080694FF4003A8C4551D16B491431D1F8F5
:1040B00000C04CF0100CC1F800C0096801F01001FC
:1040C0000591016841F0010101600068694600F056
:1040D0000100059050028DE81900CDE903255846EE
:1040E000FEF746FE5F4D5E48C8462860C5E901748C
:1040F000C5E903496C61AC61C5E9074AD146284668
:104100006C62FEF781FD08B1FEF782F8F563AE63DD
:10411000544D534860357830E5E802074020A5E863
:104120001101504845F814496030AC61C5E90749B0
:104130006C62FEF769FD08B1FEF76AF8B56300220C
:1041400005212520AE63FEF7AFFF25203BE0424965
:10415000DFF814811031C4453AD1D1F800C04CF4D5
:10416000003CC1F800C0096801F400310591016804
:1041700041F0080101600068694600F00800059000
:1041800060208DE81900CDE903253848FEF7F0FDE1
:10419000344D3748C0352860C5E90174C5E9034985
:1041A0006C61AC61C5E9074A28466C62FEF72CFDDC
:1041B00008B1FEF72DF8F563002205212620AE6335
:1041C000FEF772FF2620FEF761FF07B0BDE8F08F13
:1041D000284EB4451AD10E6846F480260E60096850
:1041E00001F480210591016841F00201016000683D
:1041F000694600F0020005904FF440608DE8190018
:10420000CDE903251C48FEF7B3FDDEE71B4DAC45A9
:10421000DBD10D6845F400250D60096801F400212B
:104220000591016841F0010101600068694600F0F4
:10423000010005908DE81C000820CDE903205846B8
:10424000FEF796FD002205213420FEF72DFF3420D5
:10425000B9E7000000100140303802400000024081
:10426000406402400404002000440040000C02406E
:10427000886002400048004000040240004C0040BA
:1042800090F84230202B01D00220704721B11AB1A2
:104290000023036301F0EEBE0120704710B5002338
:1042A0003AB190F84140202C09D090F841400CB32D
:1042B00024E0416C41F020014164012010BD0D2932
:1042C0001CD2DFE801F007090B0D0F1113151B1BA2
:1042D0001B222400826416E0C26414E0026512E02E
:1042E000426510E082650EE0C2650CE002660AE0FD
:1042F000426608E00B2908D00C2908D0416C41F037
:10430000200141640123184610BD0267FBE74267A4
:10431000F9E70022A1B190F84030012B16D001231B
:1043200080F8403090F84130202B11D0416C41F0A2
:10433000200141640122002180F84010104670479E
:10434000416C41F020014164012070470220704718
:10435000C166F0E7704770472DE9F843044690F8CE
:104360004100984616460D46202802D00220BDE89E
:10437000F88385B17EB100206064212084F841007B
:10438000FEF7F4FDA6848146E684A0682027B0F5F8
:10439000805F02D003E00120E9E7206910B12E46DA
:1043A00000250EE000260CE08021204601F07DFE75
:1043B000A8B9C6B116F8010B21684860E08C401E10
:1043C000E084E08C4B464FF00002CDF800800028DE
:1043D000EAD14FF04001204601F067FE40B184F879
:1043E00041700320C3E735F8020BC0F30800E3E790
:1043F00084F841700020BAE770B5044690F8410097
:10440000202801D0022070BD01B3FAB12162A2843C
:10441000E28400206064212384F84130A56B144BB2
:10442000EB63A56B134B2B64A56B134BEB64A36B76
:10443000186520681346A56B021D2846FEF74EFC42
:1044400030B110206064202084F84100012070BD4C
:1044500021686FF0400008602068143050E8001FA9
:1044600041F0800140E80012002AF5D1002070BD23
:10447000095D0008475D00081F5C00087047704731
:10448000F8B516460F460546EFF3108472B690F85D
:104490002000022801D0012009E02846FEF735F867
:1044A00048B16B46324639462846FDF7C5FE002C1A
:1044B00000D162B6F8BD0220F9E7FEE70F4810B55B
:1044C0000D4901600621416000214FF400328160F6
:1044D000C0E903121201426101760122427681761F
:1044E000C27601774177FEF724F9002803D0BDE8B2
:1044F0001040FDF78DBE10BD006800406C0100202B
:10450000154808B5016841F480010160016801F4B3
:1045100080010091016841F40011016000680022EF
:1045200000F40010009005211020FEF7BDFD1020C2
:10453000FEF7ACFD002205213A20FEF7B5FD3A203A
:10454000FEF7A4FD002205214620FEF7ADFDBDE8E3
:1045500008404620FEF79ABD3038024010B5044AA4
:104560000021044802F01AFC0349086010BD000055
:104570007C860008E95700080000002070B586B06E
:1045800014216846FCF741F828480024016841F0EE
:1045900080010160016801F080010591016841F02E
:1045A00010010160016801F010010591016841F0FE
:1045B00002010160016801F002010591016841F00A
:1045C00001010160016801F001010591016841F0FC
:1045D000080101600068164E00F0080005900022F6
:1045E00003213046FEF7BCFC032000900125CDE9F5
:1045F0000154694630460394FEF7BAFB0C208DE85F
:10460000310069463046FEF7B3FB0A4E0022042112
:104610003046FEF7A5FC04200090CDE90154694620
:1046200030460394FEF7A4FB06B070BD303802405C
:10463000000C02400004024010B596B000240F9414
:1046400010941194129413941C2108A81494FBF74D
:10465000DCFF20216846FBF7D8FF29482749016085
:1046600040F28F61C0E901144FF6FF71C0E90314F5
:1046700044618461FFF77EF808B1FDF7C9FD4FF48E
:1046800080500F900FA91E48FFF704F908B1FDF7FD
:10469000BFFD1B48FFF797FA08B1FDF7B9FD13946A
:1046A00013A917481494FFF71DF808B1FDF7B0FDE2
:1046B0006020CDE908040A940B940C940D94002218
:1046C00008A90F480E94FFF718FA08B1FDF7A0FDEE
:1046D00000944FF40050CDE90440029401940394F7
:1046E000694607480794FEF7D3FF08B1FDF790FD30
:1046F0000348FFF7D7F916B010BD000000000140D5
:10470000940100201CB500240E4800940C4901942B
:1047100001605321C0E901144FF6FF718461C1604B
:10472000FFF728F808B1FDF773FD009469460548C6
:104730000194FEF7D7FF002801D0FDF769FD1CBDED
:1047400000100040DC0100200C4810B50A4901604F
:104750004FF4E1314160002181600C22C160C0E969
:1047600004128161C161FFF74BFC002803D0BDE852
:104770001040FDF74DBD10BD004C00408C030020E3
:104780000C4810B50A4901604FF4E1314160002145
:1047900081600C22C160C0E904128161C161FFF730
:1047A0002FFC002803D0BDE81040FDF731BD10BD3F
:1047B00000100140240200200C4810B50A49016095
:1047C0004FF4E1314160002181600C22C160C0E9F9
:1047D00004128161C161FFF713FC002803D0BDE81A
:1047E0001040FDF715BD10BD004400409C020020A4
:1047F0000C4810B50A4901604FF4E13141600021D5
:1048000081600C22C160C0E904128161C161FFF7BF
:10481000F7FB002803D0BDE81040FDF7F9BC10BD40
:10482000004800401403002000B500F0D3FF054904
:104830000020086048608860C860034908704870BC
:10484000887000BD405600203401002010B50120C2
:1048500001F071FC022001F06EFC032001F06BFC02
:10486000BDE81040042001F066BC10B5012001F045
:1048700078FC022001F075FC032001F072FC04209A
:1048800001F06FFCBDE810406420FEF75FBA000045
:1048900070B514460D46064600F0B8F808481EB13B
:1048A00090ED080A86ED000A1DB190ED090A85ED2C
:1048B000000A002C03D090ED0A0A84ED000A70BDB6
:1048C0003401002010B5F5EEC01A2DED048BB0EECA
:1048D000418AF0EE608AB0EE409AF1EE10FA174C81
:1048E0000BDDDFED170A81EEA00AF5EE0E0A84ED6E
:1048F000040A20EE200A84ED050AC82000F0E6FA3A
:10490000C0B1BDEEC80A10EE102ABDEEE80A10EEE6
:10491000101ABDEEC90A10EE100A01F0F3FF0948A3
:104920000FC800F007FD2078002800D00120BDEC62
:10493000048B10BD00F05EF80020F8E73401002081
:1049400046B6733E3056002000B500F043FF1448D1
:104950009FED120A154A80ED040A9FED120A00210C
:1049600080ED050AB1EE040A80ED060A80ED070A23
:104970009FED0D0A80ED080A80ED090A80ED0A0A14
:10498000116051609160D16001704170817080ED63
:104990000B0A80ED0C0A80ED0D0A00BD0000C84432
:1049A0003401002000803B440000000040560020FD
:1049B00070EE202A30EE602A30EEC00A72EE811AC4
:1049C00032EE412A30EE410A72EEC10AF1EE611A6E
:1049D000BDEEC22AFDEEE11ABDEEC00AFDEEE00A10
:1049E00012EE101A10EE102A10EE903A11EE900A04
:1049F00000F0A0BC10B5FFF717FF0023BDE8104082
:104A00001A461946184600F095BC00000EB502AAD9
:104A100001A9684600F018FADDED000A9FED180ABA
:104A200018489FED1A1A60EE800A194AC0ED080A6C
:104A3000DDED010A20EE800ADFED130A80ED090AA0
:104A40009DED020A20EE200AC0EE010AFDEEE00A0A
:104A5000F8EEE00A00EEC10A10EE101A80ED0A0A24
:104A6000914202DD30EE410A06E010EE101A094ACA
:104A7000914203D930EE010A80ED0A0A0EBD000012
:104A800000007A4434010020E12E65420000B44366
:104A900000003443000034C39FED200A00283BD0BF
:104AA000002939DD5FF0000250F8223000EE903A24
:104AB000002BF8EEE00A01DAF1EE600AF4EEC00A2B
:104AC000F1EE10FA01DDB0EE600A521CD2B2042AF7
:104AD000EAD300EE901AF8EEE00AB4EEE00AF1EE46
:104AE00010FA19D900EE901A5FF00001B8EEE01A42
:104AF000C1EE000A50F8212000EE102AB8EEC00ADC
:104B000020EE200ABDEEC00A10EE102A40F8212047
:104B1000491CC9B20429EDD3704700000000000011
:104B2000FEE7B0F5966F01D8002001E0A0F5966091
:104B3000352251436422B1FBF2F140F27C62904293
:104B400000D9104640F6754250434FF47A72B0FBDC
:104B5000F2F28BB24FF48061002000F023B8C1EB79
:104B6000011140F2EE724900904201D3002007E0AB
:104B7000A0F2EE7040424FF4C862904200D9104655
:104B8000B1F5803F01D30120704741F28E125043AE
:104B90006422B0FBF2F28BB24FF44071002000F0BF
:104BA00001B800002DE9FF411D4607461EA314462B
:104BB0000E460FCB8DE80F00012F04D8304600F0D1
:104BC00019FE002803DA012004B0BDE8F081280AAC
:104BD0008DF80600200E8DF80900200C8DF80A00D3
:104BE000200A8DF801708DF807508DF80B008DF8B4
:104BF0000C40EFF3108472B60F4890F820000228A2
:104C000001D001200BE00C48FDF77FFC022801D207
:104C1000022004E0102269463046FBF79FFE002C7C
:104C2000D2D162B6D0E70000FD00AFFFAFFF0000B9
:104C3000FD0000000001006B6C01002038B5044647
:104C400008A000680090204600F0D4FD002801DA9A
:104C5000012038BD04236A4621460348FBF731FE94
:104C600038BD00009A02006B6C010020FEE70000D6
:104C7000EFF3108172B6044A12F8360F0023137056
:104C8000002900D162B67047685300202DE9F04139
:104C90000D462DED0A8B060019D0C5B1BAB1EFF360
:104CA000108172B63F4CD4ED048A94ED058AD4EDA0
:104CB00006AAD4ED12BA94ED13BA94F8507094F891
:104CC000350048B1606A38B14FF0010C06E00020B1
:104CD000BDEC0A8BBDE8F0814FF0000C324817B1F3
:104CE00090ED05CA01E090ED04CA90ED020ADFEDF7
:104CF0002F0A847820EE20AA90ED030ADFED2C0A1B
:104D000060EE209A4FF0000E80F802E001B962B622
:104D1000C2ED00AAC6ED008AB1EE480A85ED000A90
:104D2000BCF1000F01D03BB13AE09FED220A86EDC5
:104D3000000A85ED000ACAE7B0EE6A0A01F05CFBE2
:104D4000B0EE409AB0EE4C0A01F056FB39EE409AB4
:104D5000B0EE6A0A01F050FCF0EE40AAB0EE4C0A48
:104D600001F04AFC7AEEC00A29EE0A0A00EEE90ACE
:104D700060EE8A0A49EE290A57B138EEEB1A31EE95
:104D8000400A86ED000A38EE4B0A30EEC00A05E014
:104D900038EEC00A86ED000A30EEC80A85ED000A3A
:104DA000204695E7685300209C0000206F12833A4C
:104DB0006F1283BA0000000010B5074CA288012AC8
:104DC00007D90649521E481EFBF7A3FBA088401EC8
:104DD00000E00020A08010BD9C000020295300208E
:104DE000002829D090ED041AB4EE411AF1EE10FA21
:104DF00021D1D0ED050AF4EE600AF1EE10FA1AD1D5
:104E000090ED060AB4EE400AF1EE10FA13D1B0EEBE
:104E1000C11A11EE101A0A4881420CDAF0EEE00ACB
:104E200010EE901A814206DAB0EEC00A10EE100AB7
:104E30000449884201DB00207047012070470000D0
:104E400000007A44002474490023FFF71FBF0000CC
:104E500010B554211848FBF7D8FB18480021818071
:104E600001709FED170A417080ED020A9FED150A4F
:104E7000114A80ED030A9FED140A80ED050A80EDCA
:104E8000040A82F8341081704FF4FA742046FDF75A
:104E90005DFF222000F09CF92046FDF757FF3020EF
:104EA00000F096F91420FDF751FF322000F090F940
:104EB000BDE8104000F00CBA685300209C000020B0
:104EC00000004842000070420000000070B5084930
:104ED00005464C6C91F8350040B1486A30B1FEF798
:104EE00045F8001BA84201D8012070BD002070BD0C
:104EF000685300202DE9F04F594D0746594CA888BA
:104F000089B0402807D3206B401C2063A06A401C56
:104F1000A062FFF751FF534EA888403E4FF0020AAF
:104F20003754401CA8804FF0000BA88800287CD084
:104F300033785C2B02D05D2B02D009E00E210FE00C
:104F4000032872D37178012902D1B1781C2907D0C6
:104F5000206B401C2063A06A401CA062504676E093
:104F60008946484578D35C2B12D03E494FF6FF70F6
:104F700040391927B1F81AE048F2084C11F8012B12
:104F8000504000225FEAC07817D08CEA500015E04C
:104F90003448FF214038344F84464FF00E080C222D
:104FA00010F8013B4B40521EF95CF9D20CEB0800A3
:104FB00010F8010C81421ED042E04008521CD2B2CF
:104FC000082ADFD37F1E7A1CD8D1704538D15C2BDC
:104FD00011D000F0A9F8A888484507D9A0EB09022C
:104FE000204806EB09014038FBF793FAA988A1EBAA
:104FF0000900A88099E720216846FBF706FB5C20A2
:105000008DF800008DF801B00E208DF802000B2005
:105010008DF803001348803850F8411F049141680F
:10502000059180680690707B00E015E0ADF81C00EB
:105030006846FFF7D5FE0146684600F017F8CAE754
:10504000E06A401CE062A06A401CA062032084F871
:105050003400FFF7B1FE68E709B0BDE8F08F00004B
:105060009C00002068530020D0A600082DE9F041E4
:10507000002703780A462A4D01262A4C39465D2B23
:1050800030D0E36B13B1E1636E700127236A5B1CC0
:105090002362CAB3626A0AB16A7892B190ED060AD5
:1050A00085ED040A6A7862B190ED040A84ED120A73
:1050B00090ED050A84ED130A90ED060A85ED050AC8
:1050C0006970014620221748FBF765FA84F83560BD
:1050D000606A401C6062FDF749FF606484F83460D8
:1050E000AE7017E0D4F83CC083689C4507D0D4F874
:1050F0003CC0BCF1000F00D00127E3636E708388D1
:105100002387C3682364C1E7FFE784F835100420D0
:1051100084F83400002F01D084F83660BDE8F081B7
:105120009C0000206853002000B589B0202168460B
:10513000FBF76BFA174908788DF8000048788DF86E
:10514000010088788DF80200CA78A1F140008DF83E
:105150000320B0F84430ADF8043050F8463F0293D5
:105160004368039383680493C368059300690690BA
:10517000488BADF81C000B20904305D16846FFF723
:105180002FFE08B1012100E000216846FFF76EFF05
:1051900009B000BD2853002010B5402209490A4833
:1051A000FEF74BFD094910B101220A7010BD064AF5
:1051B000D26B002AFAD01268136823F00803136038
:1051C0000022F2E7E85200209C0200209C00002010
:1051D00008B5C5218DF800108DF801006423022266
:1051E00069460248FFF7B8F808BD00009C0200209D
:1051F000F8B5164D2878002825D0154CE06B18B16D
:10520000FDF72EFC05281ED094F84200222804D178
:105210000F48FEF756FD002815D1E06B40B1FDF7B1
:105220001FFC012804D0E06BFDF7BDFB00280AD16C
:1052300020680026016840680090AE80FFF7ACFF50
:1052400010B101202870F8BD2E70F8BD9C00002020
:105250009C02002010EE100A194988420CD810EE6A
:10526000102A1848824207DC10EE902A8A4203D89E
:1052700010EE901A814201DD00207047EFF310819B
:1052800072B6114A114882ED020AC2ED030A90F883
:10529000353083B1436A73B190ED040A80ED120A90
:1052A00090ED050A80ED130A90ED060A82ED050ADD
:1052B000012280F8502001B962B601207047000039
:1052C0000000FAC30000FA439C000020685300204D
:1052D00070B5054C0025A580FFF75EFF10B10120D9
:1052E000207070BD257070BD9C0000200F4890F8A4
:1052F0003510002918D0416A002915D0EFF310812C
:1053000072B690ED040A0A4A80ED120A90ED050A81
:1053100080ED130A90ED060A82ED050A012280F85D
:105320005020002900D162B6704700006853002069
:105330009C00002070B511A488B0246806948DE804
:105340000F0040F6B8316846FFF7A6FB00246D4613
:1053500006AE55F824000021002801DA0121404260
:1053600082B2305D002300F0F1FF0120FDF7EEFC7A
:10537000641CE4B2042CECD308B070BD0102030439
:105380000A4830B400220A4B828011465FF00000C8
:1053900003EBC004401CC0B262549028F8D3491CEF
:1053A000C9B20829F2D330BC00F0F6B8940000204E
:1053B000684E002010B5902811D240290FD2CB089A
:1053C00001F0070101248C40E1B2054C002A04EBF6
:1053D000C000C25C01D00A4300E08A43C25410BD41
:1053E000684E00202DE9F04186B014216846FBF795
:1053F0000CF965484FF00008016841F002010160B6
:10540000016801F002010591016841F004010160A9
:10541000016801F004010591016841F0100101608B
:1054200000685A4D00F01000059001221021284616
:10543000FDF796FD012204212846FDF791FD544F0A
:105440004FF40054002221463846FDF789FD514EA5
:10545000002208213046FDF783FD0022082128465E
:10546000FDF77EFD0120CDE9010802200390694689
:1054700000943846FDF77CFC0824694630460094C9
:10548000FDF776FC0420009069462846FDF770FC85
:10549000694628460094FDF76BFC10200090694691
:1054A0002846FDF765FC002204212846FDF758FD3B
:1054B000C820FDF74BFC012204212846FDF750FDD2
:1054C0001420FDF743FC0021FD2000F03FF90021EE
:1054D000122000F03BF90021AE2000F037F9002146
:1054E000D52000F033F90021A02000F02FF9002191
:1054F000A82000F02BF900213F2000F027F900211F
:10550000D32000F023F90021084600F01FF9002104
:10551000402000F01BF90021A12000F017F9002124
:10552000C82000F013F90021DA2000F00FF9002163
:10553000122000F00BF90021812000F007F9002172
:105540007F2000F003F90021D92000F0FFF80021AE
:10555000822000F0FBF80021DB2000F0F7F80021AA
:10556000342000F0F3F80021A42000F0EFF800212F
:10557000A62000F0EBF8FFF703FF0021AF2000F0BA
:10558000E5F806B0BDE8F081303802400010024076
:10559000000402400008024070B5114E002400BF14
:1055A00004F1B000C0B2002100F0D0F8002108469C
:1055B00000F0CCF80021102000F0C8F85FF00005E2
:1055C00006EBC5000121005D00F0C0F86D1CEDB2D6
:1055D000802DF5D3641CE4B2082CE1D370BD00002B
:1055E000684E00202DE9FE4F81461C460819CDE982
:1055F00000190D4600F0FF0B082B0FD00C2C03D028
:10560000102C01D0182C65D1600700D0012000EBD0
:10561000D400610810FB01F0C0B200E00620203A7F
:1056200082465F2A56D2B9F1900F53D2402D51D203
:10563000D0B2029000204AE0082C14D00C2C19D0D3
:10564000102C1CD0182C45D10298244900EBC00026
:1056500001EB8001002711F808605D451BD2F007BF
:1056600012D00C9A13E002981D4900EB400001EBA8
:105670004001EFE702981B4900EB4000E8E71A49B8
:10568000029801EB0011E5E70C9828B300222946A7
:105690004846FFF78FFE6D1C7F1C7608FFB2EDB207
:1056A000082FDAD309F1010000F0FF09082C0AD015
:1056B0000199A9EB0100B0EB540F04D10098894681
:1056C0000830C0B2009008F10100009DC0B28046D1
:1056D0005045B1D3BDE8FE8F0122D8E74C930008B6
:1056E000C0860008E88800085C8D00082DE9F841B4
:1056F0001D46DDF81C8016000F46044620D0802C85
:105700001ED2402F1CD2082D15D00C2D13D0102DD9
:1057100011D0182D14D10EE02B4639462046CDF875
:105720000080FFF75FFF082D0CD004EB5500C4B2DA
:10573000761C802C04D23278202A01D37E2AEBD921
:10574000BDE8F881A41DE4B2F2E700002DE9F047BE
:105750001D4C054609B1012200E000220821204627
:10576000FDF7FEFB00221021A0462046FDF7F8FBC6
:10577000DFF85890164F00244FF4005600223146AF
:105780003846FDF7EDFB280601D5012200E0002296
:1057900008214846FDF7E4FB012231463846FDF773
:1057A000DFFB6806641C050EE4B2082CE6D3012278
:1057B000102144464046FDF7D3FB2046BDE8F047A4
:1057C00001220821FDF7CCBB001002400008024076
:1057D0000004024003480021016041608160C16013
:1057E0007047000030560020FBF724FA142001F027
:1057F0009AFAF9E7B0F5407F05D0B0F5806F04D094
:105800004FF0FF30704700207047012070470000C4
:105810002DE9F04117468846B0F5803F0AD2B8F12D
:10582000000F07D037B1082F04D880B2FFF7E2FF8E
:10583000002802DA0020BDE8F0810F4D00EB800661
:1058400005EB86040020C4F80900C4F80D0004F13B
:1058500009003A464146FAF717FE2772FDF786FB24
:10586000606055F82600401C04D055F82600401C06
:1058700045F826000120DEE7404E002010B54FF02D
:10588000E020006902F07EFC012803D0BDE8104052
:1058900002F0ACB910BD000030B593B030216846BD
:1058A000FAF7B3FE14210CA8FAF7AFFE1D48002545
:1058B000016841F080510160006800F08050119053
:1058C0001948016841F4804101600068022400F435
:1058D0008040119001200090000401908001CDE9EA
:1058E000064008AA0420A82182E813000B9068460D
:1058F000FDF716FD08B172B6FEE70CA90F2081E88E
:1059000031004FF4A0500F904FF4805010900521BB
:105910000CA8FDF7FBFB002801D072B6FEE713B020
:1059200030BD00004038024000700040024801686D
:1059300041F470010160704788ED00E00148FEF716
:1059400018B8000024050020F0B50268274B284D48
:10595000284E294F294C4FF0804C984209D0604581
:1059600007D0A84205D0B04203D0B84201D0A0422F
:1059700004D122F0700E4A6842EA0E0298421BD00F
:10598000604519D0A84217D0B04215D0B84213D004
:10599000A04211D01A4DA8420ED01A4DA8420BD0E9
:1059A000194DA84208D0194DA84205D0184DA8425B
:1059B00002D0184DA84203D122F44075CA682A4388
:1059C0004D6922F080022A438D68C5620D688562A8
:1059D000984201D0A04201D109690163016841F0F8
:1059E00004010160012141610260F0BD000001403D
:1059F0000004004000080040000C0040000401408A
:105A000000400140004401400048014000180040AF
:105A1000001C00400020004010B5846842EA0322C8
:105A200024F47F440A432243826010BD826822F03E
:105A300070020A4342F0070181607047F0B5036AC3
:105A4000026A22F00102026242688469124E24F066
:105A500073050C682C4323F002058B682B430D4D16
:105A6000A84201D0B04205D123F00807CB683B43E0
:105A700023F00403A84201D0B04205D14D6922F4BD
:105A8000407215438A692A434260846149684163D0
:105A90000362F0BD0000014000040140F0B5026A5D
:105AA000036A23F010030362436884690D6824F4D9
:105AB000E64444EA05248D6822F0200242EA0512F9
:105AC0000F4D104EA84201D0B04206D1CF6822F04F
:105AD000800242EA071222F04002A84201D0B042FE
