:020000040800F2
:10000000E879012071030008A1780008C16F000899
:1000100035770008251400085DA8000800000000DE
:10002000000000000000000000000000B102000815
:10003000B1170008000000000D0300080D8C000837
:100040008B0300088B0300088B0300088B03000858
:100050008B0300088B0300088B0300088B03000848
:100060008B0300088B0300088B0300088B03000838
:100070008B0300088B0300088B0300088B03000828
:10008000E91600088B0300088B0300088B030008A7
:100090008B0300088B0300088B0300088B03000808
:1000A0008B0300088B0300088B0300088B030008F8
:1000B0008B0300088B0300088B0300088B030008E8
:1000C0008B0300088B0300088B0300088B030008D8
:1000D0008B03000839A8000845A8000851A80008AB
:1000E0008B0300088B0300088B0300088B030008B8
:1000F0008B0300088B0300088B0300088B030008A8
:100100008B0300088B0300088B0300088B03000897
:1001100025A300088B0300088B030008CD8C000882
:100120008B0300088B030008F51600088B030008FA
:100130008B0300088B0300088B0300088B03000867
:10014000291400088B0300088B0300088B030008A8
:100150008B0300088B030008011700088B030008BD
:100160008B0300088B0300088B0300088B03000837
:100170008B0300088B0300088B03000800000000BD
:100180008B0300088B03000800F002F800F081F8F0
:100190000AA090E8000C82448344AAF10107DA45E2
:1001A00001D100F076F8AFF2090EBAE80F0013F0B3
:1001B000010F18BFFB1A43F001031847AC0A0100F6
:1001C000CC0A01000A444FF0000C10F8013B13F078
:1001D000070408BF10F8014B1D1108BF10F8015BA0
:1001E000641E05D010F8016B641E01F8016BF9D193
:1001F00013F0080F1EBF10F8014BAD1C0C1B09D1EA
:100200006D1E58BF01F801CBFAD505E014F8016B5B
:1002100001F8016B6D1EF9D59142D6D370470000ED
:100220000023002400250026103A28BF78C1FBD8FF
:10023000520728BF30C148BF0B607047692900F0E2
:10024000AD81642900F0AA81752900F0A7816F298A
:1002500000F03E82782900F063820368DB0928BF42
:1002600041F08001632900F0AA85E32900F0BD85F3
:10027000002070471FB50DF025FF00F077FE040049
:10028000002000210DF092FE401C60601FBD10B5E3
:1002900010BD00F045FE1146FFF7ECFF0BF08CFEA1
:1002A00000F068FE03B4FFF7F2FF03BC00F06CFE41
:1002B0002C4B19680868B0E8F04F80F30988BFF349
:1002C0006F8F4FF0000080F311887047000000002E
:1002D00008480068006880F308884FF0000080F349
:1002E000148862B661B6BFF34F8FBFF36F8F00DF24
:1002F00000BF00BF08ED00E0DFF80C00016841F42A
:1003000070010160704700BF88ED00E0EFF30980E5
:10031000BFF36F8F134B1A681EF0100F08BF20ED4C
:10032000108A20E9F04F106009B44FF0500080F3BC
:100330001188BFF34F8FBFF36F8F0CF0CFFE4FF0DC
:10034000000080F3118809BC19680868B0E8F04F14
:100350001EF0100F08BFB0EC108A80F30988BFF3BD
:100360006F8F704734000020EFF305807047000066
:100370000948804709480047FEE7FEE7FEE7FEE739
:10038000FEE7FEE7FEE7FEE7FEE7FEE70448054975
:10039000054A064B70470000BD8C00088901000823
:1003A000E8730120E8790120E8750120E875012053
:1003B00053EA020C00F069802DE9F04B4FF0000683
:1003C000002B1FBFB3FA83F503FA05F424FA05F6F0
:1003D0005E4012BF1643B2FA82F502FA05F4C5F187
:1003E00020051EBF22FA05FC44EA0C04203556EA1B
:1003F000044C4FEA144418BF641C4FF000084FF03F
:100400000009904271EB030C39D3002919BFB1FAEE
:1004100081F701FA07F6B0FA80F700FA07F6C7F19C
:1004200020071EBF20FA07FC46EA0C062037B6FB61
:10043000F4FCA7EB0507103F07F01F0BCBF12006DC
:100440000CFA0BFB2CFA06F644BFB3460026202F0D
:10045000A4BF5E464FF0000B5BEA060C08BF4FF0EE
:10046000010B19EB0B09ABFB027C48EB0608C01B28
:1004700006FB02CC0BFB03CC71EB0C01C1E70B4676
:10048000024641464846BDE8F08B13B54FF00000E8
:100490004FF00001AFF30080BDE81C407047000042
:1004A0000FB47CB50C0009AA009001D02044401E76
:1004B000084B7B4469460190089800F056FC0546BD
:1004C0001CB10020694600F063FC28467CBC5DF846
:1004D00014FB0000E508000070B50446856900685B
:1004E000C10601D5302600E02026C00707D070BD28
:1004F000D4E9012130469047206A401C20626D1EDD
:10050000F6D570BD70B5044685690078C00707D17F
:1005100070BDD4E9012120209047206A401C206250
:100520006D1EF6D570BD09684A0501D540B2704709
:10053000C905FCD500B2704709684A0501D5C0B2AB
:100540007047C905FCD580B2704770B50C460546AA
:10055000012A05D02878800600D5EA69002302E048
:10056000012305E05B1C934202D2E05C0028F9D134
:10057000A869E618C01AA861286A184428622846A3
:10058000FFF7AAFF04E0D5E9012114F8010B904719
:10059000B442F8D32846FFF7B5FF70BD2DE9F0410E
:1005A0000646002410687529314616A510D0FFF7BD
:1005B000BAFF002802DA404213A507E031688A0733
:1005C00001D512A502E0490704D511A5012401E0D7
:1005D000FFF7B2FF00210A2206F1240709E0B0FB71
:1005E000F2FCB0FBF2F302FB1C00303078541846EA
:1005F000491C0028F3D123462A463046BDE8F04185
:1006000000F054BB000000002D0000002B00000093
:10061000200000002DE9FF5F15468A460446DFF8FA
:10062000AC80F8440027D8E900103E46CDE9001020
:1006300010E03AF816106A4602A800F0E2FB411CEE
:1006400007D02178890603D5E269391891420DD87F
:100650000744761C2078800602D5E069B84205DDA3
:10066000AE42E6DB3AF816000028E2D1A069C01BD2
:10067000A0612046FFF730FFD8E90010CDE9001057
:10068000002017E03AF818106A4602A800F0B9FBFB
:10069000B0F1FF3F81460BD000250DF1080B05E0BE
:1006A000D4E901211BF8050090476D1C4D45F7D397
:1006B00008F10100B0428046E4DB206A3844206241
:1006C0002046FFF71FFFBDE8FF9F00002E0001003E
:1006D00070B5044621461068FFF72EFF002104F193
:1006E000240505E000F007023032C0086A54491CB6
:1006F0000028F7D12068002307A2050707D5800648
:1007000000D421B1E069012304A2401EE06120462B
:10071000BDE8704000F0CABA0000000030000000E0
:1007200070B504460D4621461068FFF705FF218885
:10073000090502D50F4A7A4402E00E4A7A440E3285
:10074000002104F1240305E000F00F060009965D86
:100750005E54491C0028F7D120780023000704D5F7
:10076000702D02D009B1022311322046BDE870403D
:1007700000F09CBA22FF00002DE9F05F8946044694
:100780004FF0000ADFF874B1FB44C0F820A0204607
:10079000E1688847002874D0252806D0D4E90121D3
:1007A0009047206A401C2062F1E700265F46204601
:1007B000E16888472028054607DB312D05D27819E6
:1007C00010F8200C08B10643F1E7B00701D526F078
:1007D0000406C4F81CA00027C4F818A02A2D09D0CC
:1007E00028460BF023FA38B304EB8708303DC8F8ED
:1007F000185019E059F8041B204604EB8702916158
:10080000E1688847012F054618D1E069002820DA01
:1008100026F020061DE0D8F8180000EB800005EB5C
:1008200040003038C8F818002046E168884705467F
:100830000BF0FCF90028EED1012F0AD02E2D08D1A3
:100840002046E16888477F1C0546022F46F02006B7
:10085000C4DBA069002803DA404246F00106A0612B
:10086000F00701D026F010066C2D0BD0682D09D0B2
:100870004C2D39D06A2D35D0742D35D07A2D33D00A
:1008800016E038E0E1682F4620468847B842054622
:1008900009D16C2F26D04FF48060E16806432046D2
:1008A0008847054604E06C2F1AD04FF48070064349
:1008B0000DB3A5F14100192802D8203546F4006691
:1008C0004A462946204626604E46FFF7B7FC80B1CF
:1008D00001280BD0F61D26F0070000F1080956E7A5
:1008E0004020E4E78020D8E70020D6E706F104099D
:1008F0004DE7284652E7206ABDE8F09FF8FE000069
:10090000401ECAB210F8011F8A4202D00029F9D154
:100910000020704740EA010310B59B070FD1042A5D
:100920000DD310C808C9121F9C42F8D020BA19BABA
:10093000884201D9012010BD4FF0FF3010BD1AB11F
:10094000D30703D0521C07E0002010BD10F8013B74
:1009500011F8014B1B1B07D110F8013B11F8014B9B
:100960001B1B01D1921EF1D1184610BD10B5431CBE
:1009700002E010F8011B71B18107FAD14FF001328A
:1009800002C88C1A8C4314EAC211F9D0C01A0A06A4
:1009900003D0C01E10BDC01A10BD0A0401D0801EB5
:1009A00010BD0902FCD0401E10BD40EA010370B525
:1009B0009B072ED14FF00136042A2AD308C810C94C
:1009C0009D1B9D43121F15EAC61517D0D8B2E1B280
:1009D000401A50EA056110D198B2A1B2401A50EA0B
:1009E00005410AD123F07F4024F07F41401A50EAAC
:1009F000052102D1180EA0EB146070BDA342DBD01C
:100A000018BA21BA884201D9012070BD4FF0FF30D9
:100A100070BD0AB9002070BD10F8013B11F8014B00
:100A200063B1A3420AD1521E08D010F8013B11F85D
:100A3000014B1BB1A34201D1521EEDD1181B70BD59
:100A4000032A40F2308010F0030C00F0158011F8FA
:100A5000013BBCF1020F624498BF11F801CB00F8D2
:100A6000013B38BF11F8013BA2F1040298BF00F826
:100A700001CB38BF00F8013B11F0030300F06780A1
:100A8000083AC0F0088051F8043B083A51F804CB0A
:100A9000A0E80810F5E7121D5CBF51F8043B40F8D0
:100AA000043BAFF30080D20724BF11F8013B11F8DB
:100AB00001CB48BF11F8012B24BF00F8013B00F81F
:100AC00001CB48BF00F8012B7047431A28BF9A4258
:100AD0007FF6B6AF032A1044114440F2268010F08E
:100AE000030F1EBF11F8013D521E00F8013D10F02A
:100AF000030F7FF4F6AF11F0030300F0B581083A5D
:100B0000C0F00B8051F8043D083A51F804CD40F88C
:100B1000043D40F804CDFFF7F3BF121D5CBF51F850
:100B2000043D40F8043DAFF30080D20724BF11F824
:100B3000013D11F801CD48BF11F8012C24BF00F888
:100B4000013D00F801CD48BF00F8012C704710B5F9
:100B5000203AC0F00B80B1E81850203AA0E81850B5
:100B6000B1E81850A0E81850BFF4F5AF5FEA027C76
:100B700024BFB1E81850A0E8185044BF18C918C0E5
:100B8000BDE810405FEA827C24BF51F8043B40F886
:100B9000043B08BF7047D20728BF31F8023B48BF6B
:100BA00011F8012B28BF20F8023B48BF00F8012BA9
:100BB000704702F0FF0343EA032242EA024200F0D8
:100BC0007FB94FF0000200B513469446964620398F
:100BD00022BFA0E80C50A0E80C50B1F12001BFF4F6
:100BE000F7AF090728BFA0E80C5048BF0CC05DF85C
:100BF00004EB890028BF40F8042B08BF704748BFAA
:100C000020F8022B11F0804F18BF00F8012B70471D
:100C10004FF0013C50F8042B51F8043B9A4221D18B
:100C2000A2EB0C03934313EACC1317D150F8042B17
:100C300051F8043B9A4215D1A2EB0C03934313EAFB
:100C4000CC130BD150F8042B51F8043B9A4209D134
:100C5000A2EB0C03934313EACC13DBD04FF000005C
:100C6000704700BFD01A01BAB1FA81F101F0180142
:100C700022FA01F0CB40C1F12001DBB2C0B2C01AB0
:100C80002CFA01F3D11A914311EAC311E6D170474E
:100C900070477047704710B500F03AF9006810BD12
:100CA00010B5044600F034F9046010BD2DE9F0479A
:100CB0000D4699469246044600F1240801688806CC
:100CC00004D5E06921F01001216000E00120A84274
:100CD00001DD471B00E00027A1697A1902EB09003A
:100CE000081AA0612078C00602D42046FFF7F4FB62
:100CF000002608E0D4E901211AF806009047206A8E
:100D0000401C761C20624E45F4DB2078C0060AD5D4
:100D10002046FFF7E1FB06E0D4E9012130209047AF
:100D2000206A401C2062381EA7F10107F4DC07E0AE
:100D3000D4E9012118F805009047206A401C206280
:100D4000281EA5F10105F3DC2046FFF7DBFB207828
:100D5000000602D50220BDE8F0870120FBE7000075
:100D600001694A1C02610878704700B58FB0CDE96F
:100D700001310021059105497944CDE9031011465F
:100D80006846FFF7F9FC0FB000BD0000E5FFFFFF6C
:100D90000A6802F8010B0A607047D1E900239A4201
:100DA00002D2531C0B601070704710B5436913B129
:100DB000AFF3008001E0FFF7C8FB012010BD1278FF
:100DC00000F124010A7000224A700122EDE7116847
:100DD0004FF0FF32E9E710B5436913B1AFF300807C
:100DE00001E0FFF717FC012010BD128800F124017B
:100DF00082840022C2840122EDE711684FF0FF32A5
:100E0000E9E770B516460C46054600F079F8036828
:100E100093F80101012806D0FF2C0FD8185D68B1A6
:100E200001202C7070BDD3F807013246214603F231
:100E3000071303442846BDE8704018474FF0FF30C1
:100E400070BD431A28BF9A427FF681AE104410F05D
:100E5000030F11441EBF11F8013D521E00F8013D61
:100E600010F0030F7FF4F6AF103AC0F00A8010B50F
:100E700031E91850103A20E91850BFF4F9AFBDE835
:100E80001040530724BF31E9081020E9081044BF7F
:100E900051F8043D40F8043D12F0030F08BF7047BD
:100EA000D20728BF31F8023D48BF11F8012C28BFF6
:100EB00020F8023D48BF00F8012C70474FF00002B7
:100EC0000429C0F0128010F0030C3FF47CAECCF18A
:100ED000040CBCF1020F18BF00F8012BA8BF20F8CA
:100EE000022BA1EB0C01FFF76EBE5FEAC17C24BFB1
:100EF00000F8012B00F8012B48BF00F8012B7047C8
:100F000010B500F033F8001D10BD00BFA1D00000E7
:100F100000487047847301200048704784730120A3
:100F20007546FFF7F9FFAE4605006946534620F0C7
:100F30000700854618B020B5FFF728FABDE8204025
:100F40004FF000064FF000074FF000084FF0000B85
:100F500021F00701AC46ACE8C009ACE8C009ACE838
:100F6000C009ACE8C0098D467047000000487047D2
:100F7000A473012010B50446AFF300802046BDE8FD
:100F80001040FFF78FB9000001491820ABBEFEE703
:100F9000260002007047000070B515460C46064654
:100FA0000BF034F9216829442160091A002909DC71
:100FB000054906EB860201EB82014A68521C4A6031
:100FC0002844206070BD0000F002002008B50BF03E
:100FD0001DF90090142000F003F9054600F06EF8AA
:100FE0000646002407F02AF907F05AF806F0E0FE5A
:100FF00000F0D4FE0AF016F807F03AF900F018F9FC
:1010000018B1641CE4B2042CECD300F0C1FD0BF069
:10101000FDF80099401A0AD407F010F900F0BAFF61
:1010200007F026F92A4669460120FFF7B5FF314649
:10103000012000F0C5F900F0FBF818B101200BF019
:10104000B0F8CBE70BF0E2F800990A1A002AC5DDE8
:10105000002101200BF0CAF9C0E708B50BF0D6F863
:101060000090142000F0BCF804460BF0CFF8009973
:10107000421A12D400F022F8054607F0DFF800F01B
:1010800093FD07F0F5F82946002000F099F9224673
:1010900069460020FFF780FFE7E70A1A00210120D8
:1010A0000BF0A4F90028E0DBC007DED007F0C6F89B
:1010B00000F070FD07F0DCF8D7E700000148406859
:1010C00070470000001000E092B00BF09FF8109005
:1010D000322000F085F80546DDF84040FFF7EEFFCE
:1010E000804607F0ABF8684600F056FE07F0C0F8FF
:1010F00004F0ECFA0146684600F0DCFB064607F017
:101100009DF8304600F032FE07F0B2F80BF07EF8A2
:10111000001B20D4164E174F002400BF56F82400A1
:101120000BF0AFF904EB840107EB81010861641C4B
:10113000E4B2042CF2D30CF0C9F80F4908600CF0AB
:10114000CBF80E4908600BF061F804464FF47A7052
:1011500000F046F804444146032000F031F92A46E5
:1011600010A90320FFF718FF10980BF027F8B5E738
:10117000E0020020F0020020000000200400002017
:1011800008B50BF043F80090142000F029F804464D
:101190000BF03CF80099421A12D4FFF78FFF054676
:1011A00007F04CF800F0D6FD07F062F8294602205F
:1011B00000F006F9224669460220FFF7EDFEE7E758
:1011C0000A1A002101200BF011F90028E0DBC0070A
:1011D000DED007F033F800F08BFD07F049F8D7E7D1
:1011E00010B504460BF019F8A0FB040140F2E732F9
:1011F000801841F10001521C0023FFF7D9F80028A4
:1012000000D1012010BD0000022803D2024951F88C
:10121000200070470020704714000020022802D2EE
:101220000249085C70470120704700001000002050
:10123000094930B500200A1F8B1E0C5C1CB9145CD8
:101240001D5CAC4201D0012030BD401CC0B2022860
:10125000F3D3002030BD0000100000202DE9F04144
:10126000044602280DD261B15AB1284D285D401CB8
:1012700000F00706A81CB2F5807F0AD8075D47B9C1
:1012800002E00020BDE8F081204FBF1E3F5DB74265
:101290000BD1015D31B91D490E3151F82420521C8A
:1012A00041F8242001210155EBE704EB440000EB59
:1012B0008417174800EB47102F5D07EB470C0CEB2A
:1012C000871740F82730114B9B1D53F824302F5DB2
:1012D00007EB470C0CEB871700EB87077B602B5D58
:1012E00003EB430707EB831300EB83031A812B5DAA
:1012F00003EB430707EB831300EB83000A30FFF790
:101300009FFBBFF35F8F2E550120BBE70E0000202F
:1013100040030020022813D2EFF3108172B6094A6D
:10132000125C084B9B1E1A5400221B1D1A541A1DD6
:1013300052F820305B1C42F82030002900D162B600
:10134000704700000E0000202DE9F0410B460446D6
:10135000022807D233B1EFF3108672B61648005D4B
:1013600018B123E00020BDE8F081134D2D1F285D4A
:10137000A91C095D884219D004EB44000F4900EB19
:10138000841001EB4010295D012701EB410202EBC3
:10139000811100EB81014FF486721846FFF7D7FBED
:1013A000285D401C00F00700285500E0002706B922
:1013B00062B63846D7E70000100000204003002046
:1013C0000A4A10B5526800EB8000511A084A02EB35
:1013D0008004A3688B4200D2A16052F82010491CFF
:1013E00042F820100AF012FFE06010BD001000E08B
:1013F000F0020020034A1070080C5070080A907028
:10140000D170704714600020054900200A5CFF2A53
:1014100001D000207047401CFF28F7D901207047F9
:101420001C620020FEE70000014803F034BC00000D
:101430000014002010B588B0002831D000682E4973
:1014400088422DD12D4C607A002829D1A07A082815
:1014500026D8207A042818D0207A002820D1A07A13
:1014600008281DD1D4F80B000590D4F80F00069081
:101470009DF815000F2822D89DF81600332811D0AA
:1014800055280FD0AA280DD019E0D4F80B000590EC
:10149000D4F80F000690A27A606805A907F068FBEF
:1014A00008B010BD9DF81700512808D82068A0F595
:1014B000E061FF39F4D005A803F088F8F0E7A17ADD
:1014C0006A4605A802F060FF0028E9D10C489DF8A3
:1014D0000010808DC2B2914202D021688142DFD1DA
:1014E000142269460748FFF732FB04F0EFF804497D
:1014F00080310861D4E7000000680040906B002054
:10150000340100203C720020F0B589B00D4607463A
:101510001C46164618216846FFF753FB002006902C
:1015200007902FB126B1082C02D8B5F5006F02D371
:10153000012009B0F0BDCDE900500290CDE90304CF
:101540002246314606A8FFF77BFA06AA69463846C6
:1015500005F019FDEDE7F0B589B00D4607461C46CC
:10156000164618216846FFF72CFB002006900790CE
:101570002FB126B1082C02D8B5F1005F02D30120AB
:1015800009B0F0BD0421CDE900050291CDE90304C5
:101590002246314606A8FFF753FA06AA694638469E
:1015A00005F0F1FCECE710B58AB004001DD0002076
:1015B000009001900E2102900390CDE90401069065
:1015C0000120CDE9080107906946204603F04CFA56
:1015D000002808D10221204603F0CCF9002802D1CE
:1015E000204603F05DFD0AB010BD0120FBE70000BE
:1015F0002DE9FC470C00054607D032B1501E6FF0B4
:101600006041A1EBD000A84202D20120BDE8FC87D6
:1016100000206946082A0FD20090019003E0235C65
:101620000B54401CC0B29042F9D313460A462946D7
:101630002048FFF790FFE9E7D60802F007080027E7
:101640008246894618E000BFCDF800A00020494638
:10165000CDF804A000EBC702A25C0A54401CC0B243
:101660000828F7D3E91908236A461248FFF773FFE1
:101670000028CBD17F1CFFB2B742E5D3B8F1000FF1
:1016800016D0CDF800A000204A46CDF804A005E011
:1016900000EBC601615C1154401CC0B24045F7D359
:1016A000A91943466A460348FFF755FF0028ADD104
:1016B0000020ABE70014002030B54FF0FF32094C9A
:1016C0000CE000BF10F8013B5A400023D50700D0C2
:1016D00025465B1C85EA5202082BF7D3491EF1D23E
:1016E000D04330BD2083B8ED014803F06DBD00004C
:1016F00058170020014803F067BD0000981600202D
:10170000014803F061BD0000F816002001681823AD
:10171000CAB2103AB2FBF3F2054B6FF30901032A88
:101720009B5CC36500D9091D8165084670470000B0
:1017300074E2000810B5014600208B698A6A4FF0F8
:10174000C07453B1B3F5005F15D072B1012A0CD04B
:10175000022A0AD0032A09D104E01AB1012A06D0CC
:10176000022A03D1C96AC90100D5012010BDC96A86
:10177000A142FAD010BD002AF7D0012AF2D0022AE5
:10178000F3D0032AF3D010BD30B50468256825F4E2
:1017900080252560046863608368402B036803D05C
:1017A00099600068C26030BD9A600068C16030BD59
:1017B000704700002DE9F05F3A4C83460620207008
:1017C00000256570A5706560A5600227E56006F0DC
:1017D00073FD78B9DFF8D080DFF8D0A000264FF095
:1017E000010900BF08EB06204FF48072304906F073
:1017F00033FE10B10420BDE8F09FFFF705FE20B1D5
:10180000616809FA06F008436060582228492748B1
:10181000FFF79DF9254809F023F8B0B1607828B1A9
:10182000DAF80800A168401A00280EDD1F4940229E
:101830001031A1F1A800FFF78AF9DAF80810C4E91D
:10184000021684F80190DAF80470761C202EC9D3B1
:10185000607878B11549402298395846FFF777F9F2
:10186000607838B1012F05D1B0EE080A8BED090A76
:1018700084F802900D4840225946D838FFF767F99E
:10188000607828B90948402259469838FFF75FF92F
:1018900003F01CFFA061257060780028ABD0012008
:1018A000A9E70000A800002000E0FF00F46300208A
:1018B0001C6200202DE9F84F8C4C05460E4620781E
:1018C00006282CD0284600F01DF9002878D04022A8
:1018D00087492846FFF71EF828B140222946844848
:1018E000FFF735F9A661DFF80882207808F1800853
:1018F00008F11001DFF8FC914FF0030A4FF6FF7B6F
:101900000125009170B12269012809EB02274FF0EF
:10191000000956D0042854D0052852D05CE0042099
:10192000BDE8F88FA07838B971494022403170483D
:10193000FEF7F0FF0028F3D0A069301AB0F5FA6F77
:101940003ED36D48C8F800000220C8F80400A06823
:101950004746401CC8F8080040200246C8F80C0062
:1019600063490098FFF7F3F8614850218030FFF792
:10197000A3FE386561487865E068676820F00F016C
:10198000084601F1100204E005FA00F33B4202D1DF
:10199000401C9042F8D3904201D2206147E081F090
:1019A0001000206109EB002006F070FC00286FD1C8
:1019B000217C0BFA01F06168E6618143616025706A
:1019C00068E006F075FD012862D0032860D0022887
:1019D0000CD0207801280FD0C0B2022810D00328E4
:1019E00028D0042835D0052856D053E0E069301AB5
:1019F000B0F57A7F76D84DE00220C4F8149046E026
:101A000060694FF4807207EB00203D4906F024FD29
:101A1000F0BBFFF7F9FCD8B36069401C6061102887
:101A200038D1217C0BFA01F061680843606084F8CA
:101A300000A02FE0207C2E49854060685422A843F6
:101A400060608031384606F0DDFC08BB0420E661AA
:101A50001DE027495822D831384606F0FDFCB8B9B8
:101A600023495422803101F15800FEF753FF78B921
:101A70001F48D830406D401C34D11D490422D43158
:101A800007F1540006F0BEFC10B90520E66100E045
:101A900028E02070032043E715495822D831384602
:101AA00006F0DAFCF0B912495822803101F15800F1
:101AB000FEF730FFB0B90E48D83008F0D1FE88B13B
:101AC0000B48402240300099FFF741F8D8F8080051
:101AD000A0602069E060657084F8029084F800904E
:101AE00002201DE7BDE8F84F02F03CBFA80000202F
:101AF0001C63002000E0FF00494C4350544D4F430D
:101B00001C620020214A10B5002102F1400300BFF1
:101B100000EB810494ED000A02EB8104D4ED000A8D
:101B2000B4EEE00AF1EE10FA2DD303EB8104D4ED0C
:101B3000000AB4EEE00AF1EE10FA24DC491C102988
:101B4000E6D390ED090AFCEEC00A10EE901A89B2B5
:101B500000EE901AF8EE600AB4EE600AF1EE10FAA8
:101B600011D190ED0A0AFCEEC00A10EE900AC0B244
:101B700000EE900AF8EE600AB4EE600AF1EE10FA98
:101B800001D1012010BD002010BD000094E200082A
:101B900000F0F2BB10B500F089FC02F015F8BDE8CA
:101BA000104002F049B8000070B503F08FFD0D4DF4
:101BB0000446E86E201A05F01DFDEC6600F076FC88
:101BC00002F010F902F078F801F036FF01F08EFF14
:101BD00001F0BCFD01F0F8FD01F0F6FFBDE870403A
:101BE00002F02AB83401002010B500680A49884282
:101BF00010D10A48012141714172017A41F001017D
:101C00000172132007F0D4F906F02BFBBDE8104059
:101C100006F024BB10BD000000100140340100207C
:101C20002DE9F04107F0F0F9002001F07FFC0020E1
:101C3000FFF7EAFA2A4C002518216063E57029486D
:101C4000FEF7BFFF04F18006F562356325867563F4
:101C5000B5632573A573E573257425856572E572F3
:101C600065739FED210A84ED140A84ED150A84ED55
:101C7000160A65740127A7740320A085A777E57766
:101C800084ED1F0AF0EE000A86EC020AF6EE000A66
:101C90001448C6ED020A86ED030A142114380834EC
:101CA000FEF78FFF356125766576A576E576257793
:101CB000756100F0CDFD03F009FDF061F069C4E944
:101CC00018500A4890F82000083C022802D008204A
:101CD00002F034FBA5716771BDE8F04100F0FABA7B
:101CE0003401002050720020000000000014002089
:101CF00010B5EFF3108072B6154C217A090702D5A2
:101D0000012184F82110217A01F00701217200B924
:101D100062B694F8210050B9607A40B903F0D6FC5D
:101D20000B498031C969401AB0F57A7F0BD9002080
:101D300084F8220084F8230004F8200F607002F079
:101D40001DFC01F0D9FBBDE8104001F097BC00007C
:101D50003401002010B501F0B9FC01F0FBFB01F0EB
:101D600085FDBDE8104001F0CDBD000002280DD07A
:101D700004280DD1074890F82710002908D1012127
:101D800080F827105FF0120002F0D8BA1120FBE7AC
:101D9000704700003401002000F036BB2DE9F0430D
:101DA000C3B000F097FA0020FFF72EFA344C00255C
:101DB000616B814203D060632585A078E07069463D
:101DC0000020FFF7C1FA002815D003F07FFC00992E
:101DD0004FF00108401AC82810D984F80980207AE9
:101DE00040F001002072132007F0E2F8012001F01A
:101DF0009DFB06F036FA43B0BDE8F0830026DFF81D
:101E0000849037E00DEB0600877A60790028F2D1E4
:101E1000FFF7FAF901998842EDD10D2F04D00A2F6E
:101E200002D0E078B0B123E0E07810B1E57025850C
:101E30001EE0208DE0B1124909F80050258580315F
:101E40000098C8610F4802F0D9F988B90D4800F030
:101E500081FE0DE0208D5F2804D209F80070401C3F
:101E6000208505E0258584F80380132007F0A0F87D
:101E7000761CB6B2BDF80800B042C3D8BBE700007C
:101E800034010020E86D00202DE9F0470D46006880
:101E90003C490026884272D13B4C607900286ED1C3
:101EA0008815854200D9054638492A4601F58070D3
:101EB000FEF74DFE00F082FA60794FF0010948B15B
:101EC00084F80990207A40F001002072BDE8F047C4
:101ED00006F0C7B90027DFF8B88006E018F8070059
:101EE00000F0D0FB06437F1CBFB2AF42F6D306B36F
:101EF00003F0ECFB24498031C861700702D00F2049
:101F000007F056F84DB108EB050010F8010C0D284C
:101F100003D00A2801D0012000E0002001F006FBD8
:101F2000700701D006F09DF9300724D506F09CF922
:101F300021E003F0CBFB03462A4615490020FFF7BA
:101F40008DF9C0B9BDB184F80990207A40F0010044
:101F50002072132007F02CF808EB050010F8010C94
:101F60000D2803D00A2801D0012000E0002001F054
:101F7000DDFA06F076F9BDE8F04706F06FB9BDE886
:101F8000F08700000010014034010020D86B0020D1
:101F9000D86C00202DE9F041DFF8C082A2B098F89B
:101FA0004100202814D1AE4C2079A0B96A466421A2
:101FB000AC4807F021FA02000DD0AA49404604F0CF
:101FC00085FF002804D1684607F076FA01202071C9
:101FD00022B0BDE8F08100262671A07EE17EA14DF1
:101FE00088427ED0A17E05F16400415C072926D09D
:101FF000A17E415C1B294BD0A17E415C1A2959D09E
:10200000A17E415C142964D0A17E405C964951F8C0
:1020100020603046FEF7AAFC85B22A463146914838
:10202000FEF70EFD2A468F498C4804F04FFF00282A
:10203000CED1A07E401C00F00F00A076C8E78BA296
:102040008848D2E900127038864EC0E91C128649D1
:102050000020743698314FF0200CA27E06EB8202ED
:10206000125C01EB121302F00F021F7800EB400329
:102070002B44401C1F728A5C5A72C0B283F80AC09B
:102080000428EAD30D20E8740A2028751525C9E72D
:102090007948A17E00EB0110D0E902354188027930
:1020A0008DE82E00038875A264216E48FEF7F8F9CA
:1020B00085B2B7E7A07E704900EB4000C03901EB64
:1020C00080026421674800F057FB0500B1D0A9E702
:1020D00007E0A07E634900EB4000B43101EBC0068D
:1020E00097E7607E0028A9D1EFF3108772B614221B
:1020F0006A491CA8FEF72BFD07B962B6684A694910
:10210000694805F065F9684890ED002A6548D0ED0A
:10211000001A664890ED001A6548D0ED000A9FED60
:10212000650A5F4822EE002A61EE801A21EE001A4D
:102130008DED042ACDED051AD0ED001A20EE800AAF
:10214000CDED061A5C488DED071A8DED080A90ED6D
:10215000000A5A488DED090A90ED000A58488DEDA5
:102160000A0A90ED000A57488DED0B0A90ED000A1F
:1021700055488DED0C0A90ED000A54488DED0D0A7E
:1021800090ED000A52488DED0E0A90ED000AB8EE6F
:10219000C00A8DED0F0AA08D00EE100AB8EE400ABD
:1021A0008DED100A9DED1D0A8DED110A9DED1E0AA3
:1021B0008DED120A9DED1F0A8DED130A9DF8710039
:1021C00000EE100AB8EE400A8DED140A9DF880006A
:1021D00000EE100AB8EE400A8DED150A9DF8810058
:1021E00000EE100A1E48B8EE400A80308DED160A47
:1021F00094ED1F0A8DED170A90ED000A8DED180A77
:1022000090ED010A8DED190A90ED020A8DED1A0A82
:1022100090ED030A00208DED1B0A04A951F820302F
:1022200045F82030401C1828F8D305F8606F80204E
:102230006E70A8707F20E87098F8410020287FF425
:10224000FDAE64220749054804F040FE00283FF433
:10225000F5AE206C401C2064BAE60000B8140020E3
:1022600034010020486E0020840501085A4454209F
:1022700052583A20000000003C710020444D524565
:1022800047202575202575202575202530386C5868
:10229000202530386C580D0A000000003C720020E8
:1022A000C8020020C4020020C0020020D00200208A
:1022B000D4020020CDCCCC3DD8020020A4020020C6
:1022C000A8020020AC020020B0020020B4020020CE
:1022D00064730120F8B5244C6079002843D01320A2
:1022E00006F066FEA079214D90B995F841002028AE
:1022F00039D11F49284604F076FD002833D11D4A04
:102300000421284604F034FD00282CD10120A071BE
:10231000E86B02F055FF052825D0144804F0F9F9C0
:10232000002820D1E86B02F04BFF012804D0E86BB5
:1023300002F0E9FE002816D12868002601684068EE
:102340000090208D217808436178084301D0012551
:1023500000E00025284601F0E9F82685E570BDE893
:10236000F84000F02BB8F8BD34010020B81400206C
:10237000891E0008E91B000870B503F0A7F90D4994
:1023800091F8411000250C4C20290DD0E17969B15C
:10239000A16B401A642808D3064804F005FA002807
:1023A00003D1E06B401CE063E57170BD0121E17178
:1023B000A06370BDB81400203401002070B5EFF3A5
:1023C000108472B600200D4D68714FF480720C4974
:1023D0000C4804F03EF940B101206871132006F06A
:1023E000E7FD002C00D162B670BD0648C06B0068E6
:1023F000016821F008010160F3E7000034010020CA
:10240000D86B0020B814002070B50446EFF3108597
:1024100072B600201D4900BF01EB0012526892ED18
:10242000000A04EB8002401C82ED000A0728F3D367
:1024300004F12001081F05F08BFB1548818D00EE8B
:10244000101AB8EE400A84ED090A817F00EE101AD6
:10245000B8EE400A84ED0A0A90ED1F0A803084ED40
:102460000B0A90ED000A002D84ED0C0A90ED010A94
:1024700084ED0D0A90ED020A84ED0E0A90ED030A38
:1024800084ED0F0A00D162B670BD0000240401087B
:10249000340100200448817C09B1007D08B104F0BA
:1024A00065BF05F0B1B80000340100202DE9F0410E
:1024B0002DED028BEFF3108172B65F4C207A227AF9
:1024C00000F0070002F008022272C2074FF0010676
:1024D00000D06672820701D502226274420700D5DD
:1024E000E67201B962B610B10F2006F061FD01F08D
:1024F000A3FB05F0EDF9002528B1112006F058FDE9
:102500006573FFF7C7FF03F0E1F84B498031C969F4
:10251000DFF82881401AFF27B0F57A7F26D91020EE
:1025200006F046FD88F8175088F80B5084F82250C2
:1025300084F8235084F8205002F020F808F000FAC4
:1025400020B9E07B18B1E07B062800D8E773607BF8
:1025500010B16573FFF79EFFE07F94F824100843E5
:1025600004D0E57784F8245000F0C6FF607A28B9DB
:10257000E07A18B9207B08B9607C08B101F09CFBB7
:10258000EFF3108072B6617A657219B1A672657345
:10259000A57300E0A57200B962B6F9B10F2006F08C
:1025A00007FD607C022800D0657488F8175088F811
:1025B0000B50A5736573E77325740A3408F0A4FA09
:1025C000FFF768FF6575A576A575657600F094FF41
:1025D00001F0D4FF04F80A5905F046FEE07A50B144
:1025E000A573E5726573E7732574FFF753FF08F071
:1025F0008BFA05F0C5FD207B002819D0EFF3108081
:1026000072B6D4ED118A94ED128A25736573A573A1
:10261000E773257400B962B6FFF73CFFF0EE480A95
:10262000B0EE680ABDEC028BBDE8F04105F072BD6A
:10263000BDEC028BBDE8F081340100205072002017
:10264000F0B5EFF3108272B60B49CB7E8C7E5B1C2B
:1026500003F00F03A3420BD0084CCD7E04EB05140E
:10266000E1C884E8E100064CCD7E1B206055CB76A6
:10267000002A00D162B6F0BD340100203C71002078
:10268000AC6E00202DE9F0412F4C014600252D4A6B
:102690000126637820780D2904D00A2902D0002B66
:1026A0003FD04DE00027002B38D100B3175427A1AD
:1026B000244801F06BFDA0B126A1224801F066FD7F
:1026C000B0B127A11F4801F061FDC8B126A11D4886
:1026D00001F05CFDD8B126A11A4801F057FDB0B158
:1026E0001CE06672207A40F001002072012515E09E
:1026F00002206074207A40F00200207202250DE072
:10270000E672207A40F004002072042506E084F886
:102710002160207A40F00800207208256770277039
:102720000EE028B10F280AD21154401C207007E097
:10273000202901D00929F7D10020BDE8F081667079
:102740002846FAE7D86D00203401002053544F503A
:1027500000000000574845454C4F46460000000029
:102760005A45524F00000000444D4F4646000000BD
:10277000444D53544F5000002DE9F8430D46117855
:1027800080461746B9B11C23002D4CD07878062816
:1027900013D0082847D291780091244951F820207D
:1027A00029464046FDF77CFE00283CDDA8423ADA87
:1027B00080B2BDE8F8832323E6E769B14FF40070E7
:1027C00000901BA229464046FDF76AFE04002AD469
:1027D000AC4228DA002612E04FF48070F0E7B81916
:1027E000291B0379894608EB040017A2FDF758FE60
:1027F000002818DB814516DD761C0444F6B2F87813
:10280000B04201D9082EEAD3A01CA8420BDA0D2150
:10281000601C08F804100A2208F800200022A01CFE
:1028200008F80020C0E70020C3E70000FC0501080D
:102830005325752052582043414E3D2530345820B1
:10284000444154413D000000253032582000000032
:1028500010B590B06846FFF7D7FD6846FEF7AAFFAF
:10286000264C04280AD0002184F8271001280AD019
:102870005FF0100001F062FD10B010BD012184F87E
:1028800027101220F6E71E4A0020694601EB80035C
:1028900093ED000A02EB0013401C5B68072883EDF0
:1028A000000AF3D3DDED080A9DED070A05F032FCBE
:1028B0009DED090ABCEEC00A10EE100AA0859DED40
:1028C0000A0ABCEEC00A10EE100AA0779DED0B0AB2
:1028D0000A4884ED1F0A9DED0C0A803080ED000A45
:1028E0009DED0D0A80ED010A9DED0E0A80ED020AB4
:1028F0009DED0F0A80ED030A0F20BBE73401002095
:10290000240401082DE9F04387B000260446012580
:10291000B0460096072255A1019601F054FC48B13B
:10292000092254A1204601F04EFC30B1002007B02E
:10293000BDE8F0830027E41D01E0012709340020F1
:102940006FF02F024FF480330AE006EB860602EBAD
:10295000460601200E44641C9E4201D3002506E079
:102960002178A1F1300CBCF1090FEED900B106B904
:10297000002577B36DB34FF0000920782C2840D1A3
:10298000641C0021227820462B2A01D02D2A03D155
:10299000441C01E00121641C2278303A092AF9D94B
:1029A00022782E2A07D100BF14F8012F303A092AC5
:1029B00001D80121F8E721B36A4602EB890100F052
:1029C00063F8F0B109F1010000F0FF09B9F1020F5D
:1029D000D3D3207800B10025294CCDF80880CDF85C
:1029E0000C80CDF81080CDF81480ADF80860A08D73
:1029F000ADF80A0001208DF80C008DB3E07F78BBA4
:102A000001E00025E5E794F8240048BB94F8200095
:102A100030BB94F8230018BB94F8220000BB94F854
:102A20002100E8B994F82500D0B994F82600B8B987
:102A3000607AA8B91348817C91B1407880B902F0DE
:102A400045FE0F4980310969401AB0F5967F07D8D5
:102A50009DEC020AB1B23A46A08D01F077FE10B1AA
:102A600002A8FFF7EDFD012061E70000444D52454B
:102A700041443D00444D4143434445433D00000033
:102A8000340100203C72002010B59FED300ADFEDCC
:102A9000300AB7EE001A0022C8B3C1B300E0401CF0
:102AA0000378202BFBD0092BF9D0DCB22D2C02D0DF
:102AB0002B2B02D002E0BFEE001A401CB2EE042A1B
:102AC0000378303B092B0CD801EE903AF0EE402A07
:102AD0000122F8EEE11A401CB0EE610A02EE820A11
:102AE000EEE703782E2B14D1B0EE602A09E000BF88
:102AF00001EE903A0122F8EEE11A01EEA00A60EE32
:102B0000820A10F8013F303B092BF1D901E015E0B2
:102B1000401C0378202BFBD0092BF9D072B1B5EE05
:102B2000C00AF1EE10FA09D310EE102AB2F1FF4FED
:102B300004DA13F0FF0F03D02C2B01D0002010BDBE
:102B400021EE000A012081ED000A10BD0000000006
:102B5000CDCCCC3D2DE9F04786B0044600E0641CA6
:102B600020782028FBD00928F9D0FE4890F82000D2
:102B700001270026022814D00222FBA1204601F0E2
:102B800022FB00286ED00322F8A1204601F01BFB97
:102B9000002867D00322F6A1204601F014FB00288C
:102BA00060D0204600F00EFB00285ED12046FFF7E3
:102BB000A9FE002859D1EFA1204601F0E7FAEF4D18
:102BC000002851D0EEA1204601F0E0FA00284CD0B8
:102BD000EDA1204601F0DAFA002849D0ECA1204608
:102BE00001F0D4FA002845D0EBA1204601F0CEFA3E
:102BF00000284AD0EAA1204601F0C8FA002844D0B3
:102C0000E9A1204601F0C2FA002841D00A22E8A139
:102C1000204601F0D8FAA0B3E8A1204601F0B6FAA8
:102C200080B30422E7A1204601F0CDFA58B3E7A112
:102C3000204601F0ABFA38B3E6A1204601F0A6FA2F
:102C4000F0B30722E6A1204601F0BDFAC8B3042282
:102C5000E5A1204601F0B7FAA0B3E87DA946002817
:102C60007CD19BE009202EE26F7206B0BDE8F087B0
:102C7000EF72FAE701F078FC0028F6D185F82070B1
:102C8000F3E70CE01FE020E023E085F82170ECE79B
:102C900001F06AFC0028E8D185F82270E5E7694672
:102CA00004F10A0000F04CFA0028DED09DED000A85
:102CB00085ED110A9DED010A85ED120A2F73D4E707
:102CC00009E00BE02FE06E76CFE7201D00F060FBFF
:102CD000CBE76F74C9E702206874C6E714F8070FE2
:102CE000A0F13001072901D2617809B11720EAE18A
:102CF000302805D001F00EFBE0B1687A60B903E03E
:102D0000FF20E8731620DEE1E87A28B9287B18B99D
:102D1000E87D08B9A87D08B11820D4E120783038C2
:102D2000E8731520CFE16F7601F0F4FA10B1687AFC
:102D300090B901E00A20C6E1E87A68B9287B58B961
:102D4000E87D48B9A87D38B907F0FAFD20B9E87BDD
:102D500028B1E87B062802D80120B4E12AE06946C0
:102D6000201D00F0B5F9B8B1BDF90020012A13DB30
:102D7000042A11DCBDF9040001280DDB05280BDC59
:102D80006E73AE737D49A6310A80BDF802204A8079
:102D90008880AF75002096E1022094E199F8160032
:102DA0004D4638B907F0CCFD20B9E87BB8B1E87BD7
:102DB000062814D807228EA1204601F004FA002824
:102DC00086D005228CA1204601F0FDF9002884D090
:102DD00009228BA1204601F0F6F90028F0D0072245
:102DE00083A1204601F0EFF938B10027042287A122
:102DF000204601F0E8F920B326E099F809004D4695
:102E000000287FF436AFE87A0028FAD101F082FA80
:102E10000028D5D06946E01D00F05AF90028CFD02F
:102E20005648BDF80010A0300180BDF80210418066
:102E3000BDF80410818002F049FCE8656E73AF7341
:102E400013E720793D2806D009226DA1204601F024
:102E5000BAF910B10AE1651D02E004F10905012784
:102E6000F5B300960196029634462878EA464FF06C
:102E700003080026D0B91BE003A92846FFF704FE8B
:102E80000028DDD00AEB86009DED030A761C80ED5C
:102E9000000AF6B200E06D1C287848B12C28FAD15F
:102EA00015F8010F0028CBD04645C9D04645E3D3DD
:102EB000022EC5D301F02EFA0028C1D099F80910CE
:102EC00048460029BCD1C17A0029B9D1017B00292B
:102ED000B6D1032E0AD34F4A0299914204D800E09A
:102EE000C4E04D4A914201DD0C20ECE04B499FEDDE
:102EF0004C0A009A8A4201D98DED000A494ADFED59
:102F00004A0A009B934201DDCDED000A019B8B42F2
:102F100001D98DED010A0199914201DDCDED010A42
:102F20009DED001AF2EE040AB6EE000AB5EEC01AE4
:102F3000F1EE10FAF0EE401A02DB41EE201A01E049
:102F400051EE201ABDEEE11AF8EEC11ACDED001ACD
:102F50009DED011AB5EEC01AF1EE10FA66DB01EE36
:102F6000200A65E000140020444D00005332380070
:102F70005333350053544F500000000034010020FB
:102F800050494E47000000005A45524F00000000D3
:102F9000444D454E00000000444D4F4646000000A1
:102FA000444D53544F500000444D5A45524F000079
:102FB0004F50534F46465345543D0000564F4641EF
:102FC00000000000474554200000000057484545D8
:102FD0004C454E00574845454C4F464600000000C2
:102FE00056545241434B3D005A44543D00000000AA
:102FF0004D414E55414C3D00474F544F3D00000060
:10300000474F544F484F4C443D000000474F544FEA
:1030100000000000000061C500006145000096C38B
:10302000000096C3000096430000964311EE200A6C
:10303000BDEEC00AB8EEC00A8DED010A8473C0ED82
:10304000141A80ED150A032E02D39DED020A02E048
:103050001E4991ED000A80ED160AC16C491CC1643D
:103060000FB1022100E001214173FEE53D21204620
:10307000FDF746FC0500F8D02E702C21681CFDF7EA
:103080003FFCD0B904A9681CFFF7FEFCA8B120786A
:10309000442801D0642804D160784D2807D06D28D9
:1030A00005D09DED040A204600F0F0FFDDE59DED22
:1030B000040A204600F0ECFED7E52078542801D021
:1030C0007428D2D11D2001F039F9CEE5C8020020C4
:1030D000F0B500230578012400222D2D02D02B2DE0
:1030E00002D002E04FF0FF34401C0578303D0A2D3D
:1030F0001ED26FF02F064FF496770578A5F1300CAD
:10310000BCF1090F08D802EB820206EB42022A4406
:10311000401CBA42F1DD0BE0624321F81320022B80
:1031200004D210F8012B2C2A02D103E002780AB154
:103130000020F0BD5B1CDBB2032BCBD30120F0BD24
:103140002DE9F0410F460446002522780021204653
:103150002B2A01D02D2A03D1441C01E00121641C3B
:103160002278303A092AF9D922782E2A07D100BFCD
:1031700014F8012F303A092A01D80121F8E779B172
:1031800007EB85010E46FFF77FFC48B10B4930681D
:10319000884205D80A49884202DC25B1207830B13E
:1031A0000020BDE8F08114F8010B2C28F8D16D1C2B
:1031B000EDB2022DC9D30120F3E700000000FAC3ED
:1031C0000000FA43FEB5054603224EA100F0FBFFC6
:1031D00038B103224CA1284600F0F5FF18B10020B9
:1031E000FEBD002400E00124ED1C48A1284600F0AB
:1031F000CDFF484F0026D8B147A1284600F0C6FFB2
:10320000F8B147A1284600F0C1FFE0B146A1284629
:1032100000F0BCFFB8B1052244A1284600F0D3FF5E
:10322000E8B1042243A1284600F0CDFF90B361E04D
:1032300004EB440007EB8000C67200231A4601210C
:103240005BE0012505E036A1284600F09FFF20B194
:10325000052502960196009637E00425F9E702223B
:103260006946681D00F06AF8F0B300989CB140F21E
:103270007D61A0F5966088423CD20198022839D33E
:1032800041F21E61884235D8029000980225CDE9AE
:1032900000601AE009E0A0F5D770B0F5C86F29D832
:1032A000019808B3642825D8EEE703226946281D53
:1032B00000F044F8C0B1009801281BD8029898B1DA
:1032C00040F6B831884215D8032504EB440007EBDB
:1032D00080060099B172019947F820100298308158
:1032E00002F0F4F9706000E004E0F57200231A4681
:1032F000194602E000231A460221204600F010FF82
:103300000120FEBD533335005332380043414E4354
:10331000454C000050720020484F4D450000000011
:103320005354415455530000454E00004D4F5645EF
:103330003D0000005241573D00000000F0B5002361
:103340001DE0002426460A270AE0EE43B6FBF7F606
:10335000A64218D304EB8404012605EB4404401C68
:103360000578303D092DF0D96EB141F823405B1C42
:10337000934203D204782C2C05D1401CDBB293423B
:10338000DFD3007808B10020F0BD0120F0BD0000BF
:103390002DE9FC471626544F8046002507EB0514FF
:1033A0004046216800F0F2FE38B16D1CB542F5D3FD
:1033B000132000F0C3FFBDE8FC87EFF3108972B65D
:1033C000DFF828A19AF81B509AF81A00691C01F03E
:1033D0000F0686427ED0464905EB450001EBC0034F
:1033E000002002E01954401CC0B22168095C09B1F8
:1033F0000C28F7D33D2119546168401CC0B291EDEF
:10340000000AB5EEC00AF1EE10FA02DBF6EE000A91
:1034100001E0FEEE000A9FED371A40EE010ABDEE14
:10342000E00A10EE101A002904DA2D221A54401C6A
:10343000C0B249424FF47A7291FBF2F791FBF2F479
:1034400002FB171700210A22EC4624B930218DF81F
:10345000001001210FE094FBF2F802FB184894FBE6
:10346000F2F408F130080CF80180491CC9B24CB1E3
:103470000829F0D306E0491EC9B21CF801401C54CB
:10348000401CC0B20029F6D12E211954642197FBAB
:10349000F1F191FBF2F402FB1414191830344C7062
:1034A00097FBF2F494FBF2FC02FB1C4430348C706A
:1034B00097FBF2F402FB14743034001DCC70C0B2E0
:1034C0000D211954184400214270817008491420BC
:1034D000503900E002E048558AF81B60B9F1000F4E
:1034E0007FF469AF62B666E7240401083401002066
:1034F000FC6E002000007A4470B50B4C002584F867
:103500002450E57794F8250000280BD1A08DE085A4
:1035100002F0DCF804F180018861012084F82500C4
:1035200084F8265070BD00003401002070B50546B7
:10353000EFF3108472B60020FDF7ECFE0448002182
:10354000017045708570002C00D162B670BD00001E
:103550003401002070B5484C94F82100002648B191
:1035600001F00CF884F8216084F8236084F820606E
:10357000FFF7C2FF94F8250094F8261008431BD1EA
:1035800094F82400022817D094F8231011B994F865
:10359000201089B1E17F014302D194F8200008B1E5
:1035A000012500E00025FFF7A7FF84F8205084F8EC
:1035B0002360022084F8240000F060F894F82500CD
:1035C00094F826102C4D084305F1800513D194F88A
:1035D000240002280FD1A17FA08D01F071F950B90C
:1035E00094F8200000B1012084F8240084F82060C1
:1035F00002F06CF8686194F8220058B194F8250044
:1036000040B994F8260028B9A08D01F083F908B9D3
:1036100084F8226094F8240001280FD194F8250042
:1036200060B994F8260048B902F050F86969401A68
:10363000642803D3A08D00F0F7FE70B1E07F00286E
:1036400019D0A07F01280DD0D5ED000A94ED1F0AF6
:10365000A08DBDE8704001F0F9B80120E07784F852
:103660002460EEE7D5EC040A94ED1F0AA08DBDE8B6
:10367000704000F007BF70BD3401002070B5124CDF
:1036800094F8250000281DD0E08D00F0CAFE00252A
:10369000B0B102F01BF804F180018969401AB0F55D
:1036A0007A7F0FD384F82550012084F8260084F80F
:1036B000235084F82050BDE870400D2000F03EBE3D
:1036C00084F8255070BD0000340100207FB5EFF371
:1036D000108572B61C4CE07F94F8241008431CD16E
:1036E00094F82000C8B994F82300B0B994F82200E7
:1036F00098B994F8210080B994F8250068B994F835
:10370000260050B9607A40B901F0E0FF04F1800171
:10371000C969401AB0F57A7F01D900F02FFF00F097
:1037200077FFE07EA17E401C00F00F00884206D0AB
:10373000684601F075F810B16846FEF781FF002D6C
:1037400000D162B67FBD00003401002070B51C4C72
:10375000607B002833D000F0DDFD002568B1C82073
:1037600004F048FA70B1EFF3108072B604F1500122
:10377000E66C91EC030A38B107E06573BDE8704070
:1037800003F0F4BD657316E062B6DFED0E1A03F0C8
:1037900039FEEFF3108172B648B1607B012805D184
:1037A000E06C864202D10120657300E0002001B97F
:1037B00062B6002803D0BDE87040FEF76BBE70BD56
:1037C00034010020000000002DE9F041EFF31086E5
:1037D00072B6DFF8948098F80E7008F1A0000188A6
:1037E00061F30F044188808861F31F4460F30F0583
:1037F00087B101F06BFFD8F85C204146801AB0F524
:10380000AF7F07D90020887360F31F4460F30F0572
:1038100060F30F0406B962B6002F23D000F07AFDE2
:1038200010B120B220B107E0BDE8F04103F09EBD29
:10383000211401D129B289B129B200EE101A211444
:10384000BDE8F041B8EEC01A00EE101AF8EEC00A5A
:1038500000EE100AB8EEC00A03F04CBEBDE8F0411D
:1038600003F0D2BEBDE8F08134010020F0B5244E53
:10387000002485B02746A6F17C05DCB14FF400702A
:10388000694605F047F910B356F8241000988842AD
:103890001DD046F824006B4600220621204600F089
:1038A0003FFC9DF80800032811D302A9405C6B2857
:1038B00003D00CE04FF48070E2E79DF80900295D29
:1038C000884216D018B99DF80A00EE2811D0285D5C
:1038D00080B101F0FBFE0A49083151F82410401A6A
:1038E000B0F5FA7F06D32A5D00230721204600F0B9
:1038F00017FC2F55641CE4B2022CBED305B0F0BDFA
:10390000E00100202DE9F84FDFF82481002400BFFA
:103910004FF00109EFF3108714B34FF4007000BFAC
:103920004FF0000A009072B604EB440B08EB8B06D4
:103930004546F07A70B101F0C9FE7168401AB0F5E1
:103940007A7F07D90020F0720346024605212046FF
:1039500000F0E6FBF07AA0B33648005D88BB02E0D9
:103960004FF48070DCE7F07A01280CD0F07A02285E
:103970000FD0F07A03281AD0F07A042822D0F07AF7
:10398000052825D02FE04FF09A0A009803F070FF29
:1039900023E04FF0FD0A2CB1318955F82B0003F0DC
:1039A000CAFE1AE02989286803F0E9FE15E0338988
:1039B0004FF0FD0A55F82B20B07A009903F002FF72
:1039C0000BE01BE04FF03A0A009805F007F904E01D
:1039D0004FF0F30A009805F081F85FEA00090FD074
:1039E000B9F1020F0AD0002352460421204600F00C
:1039F00097FBB9F1020F01D00020F07287B110E0FF
:103A00000C4901F804A001F061FE0A490023843149
:103A1000524641F824000321204600F081FBEBE7E9
:103A200062B6641CE4B2022CFFF472AFBDE8F88FFA
:103A3000507200206401002070B58AB004F084F850
:103A4000054600F067FC284C80B1607A70B9E07AD6
:103A500060B9207B50B901F039FE04F18001C969D9
:103A6000401AB0F57A7F01D8012600E0002605F063
:103A700093FA00281BD005AA04A903A803F0A8FC08
:103A8000686A0690686C0790C82004F0B3F818B90B
:103A900001F01CFEC938079001F018FE6B46324653
:103AA00003A905F04DFD012803D0022811D00AB06A
:103AB00070BD05F0D1FA40B100F02CFC28B1607A5D
:103AC00018B9E07A08B9207B30B105F0C5FA0028B2
:103AD000EDD1FEF7DFFCEAE79DEC030ADDED051A08
:103AE00003F02EFDE3E7000034010020FEB5EFF304
:103AF000108072B6324CE67B0025E57300B962B6E1
:103B0000FF2E06D0C6B100F005FC90B1E07D80B973
:103B100007E006F0F9FF207C08B1FEF7BBFC257436
:103B20000AE0A07D28B9607A18B9E07A08B9207B4C
:103B300058B1182000F002FC06F002FFC0B100F0FE
:103B4000E9FB70B1607A60B907E06573A573FEF7B1
:103B5000A1FC304606F0C2FFE1E7E07A08B9207B1D
:103B600030B106F0D1FF207C08B1FEF793FC25743C
:103B700006F0E6FE064601F0A9FD694606F0E6FEFF
:103B80002EB106F0DDFE10B9192000F0D7FB06F0CB
:103B9000D7FE58B19DF8080060B19DEC020A9FED78
:103BA000091A03F0A7FC01202074FEBD207C20B977
:103BB0002574FEBD207C0028FBD0FEF76BFCF7E7E8
:103BC00034010020000000002DE9F041EFF31080E7
:103BD00072B6184C667C0025657400B962B6012780
:103BE000A6B16573A573E57306F0AAFE08B106F0E9
:103BF0008BFF2574E574A5746575257503F004FDC8
:103C0000012E10D0BDE8F04103F0C4BBE07C0028D9
:103C100007D001F05BFD216E401A642801D3E574E2
:103C2000A774BDE8F08103F0C4FB01F04FFD2066EE
:103C3000E774F6E7340100202DE9F04107F074FA4B
:103C40001C4C0025A16E884219D0207DB8B90120F6
:103C50006075207501F03AFD6066E574A574A57580
:103C6000E5756573A573E57306F06AFE08B106F0A5
:103C70004BFF257403F07AFB0E2000F05FFB607DA4
:103C800098B101273E46304607F01CFA00B10027E4
:103C9000761CF6B2042EF6D937B901F017FD616E25
:103CA000401AB0F57A7F00D3657507F03DFAA0663B
:103CB000BDE8F081340100202DE9F843EFF31080D6
:103CC00072B6474C627A2AB9E27A1AB9227B0AB9EB
:103CD000627C02B10122A77D414BA6331E8866F3A8
:103CE0000F055E889B8866F31F4563F30F014FF055
:103CF0000009884684F8169001260FB102B9E675CE
:103D000000B962B672B1E57D0DB100F02FFB3D4305
:103D100002D0052000F012FB84F8179084F81C9064
:103D2000BDE8F8833FB3684607F04AFA0028FAD1A5
:103D30002677F620607701F0C9FC0126EFB2A06774
:103D4000B742304602D107F038FB01E007F0BAF97C
:103D5000761CF6B2042EF3D92776291438466185ED
:103D60004FF47A7318FB03F2626708D007F0C2F9C8
:103D700001F0ACFC2067E07D012806D01FE000F0D8
:103D8000F5FA042000F0DAFACAE701F09FFC216F8F
:103D9000401A642813D3B4F92A00002801DA4142FA
:103DA00000E001468AB2C10F6423207E07F0E4FAE6
:103DB00001F08CFC20670220E07503200CE0E07D20
:103DC0000228ADD101F082FC216F401A616F884258
:103DD000A6D300F0CBFA0420BDE8F84300F0AEBA59
:103DE00034010020F8B507F073FA07F093FA0025C4
:103DF000254C34E088B19DF80000217E88420CD12A
:103E00009DF80100617F884207D19DF80200257767
:103E1000022802D00B2000F091FA607EF8B1EFF397
:103E2000108172B6E07E401C00F00F02A07E82423C
:103E300013D0164E00206B46E77E13F800C006EB49
:103E4000870707F800C0401CC0B20428F4D30F4B0A
:103E50000720E67E103B9855E27601B962B66846C7
:103E600007F0AEF90028207FC4D100280AD001F065
:103E70002DFCA16F401AB0F5FA7F03D325770620F9
:103E800000F05CFAF8BD000034010020BC6E002098
:103E90002DE9F04107462DED028BB0EE408A00F08F
:103EA00063FB002852D15EA1384600F06FF9FCEEAA
:103EB000C88A5D4D0026A5F1800450B35BA1384649
:103EC00000F064F900284AD05AA1384600F05EF9A3
:103ED000E8B35AA1384600F059F9C8B359A1384699
:103EE00000F054F9DFED598A98B359A1384600F033
:103EF0004DF978B358A1384600F048F9002825D18B
:103F000018EE100A564A574990427FD9BAEE048AF1
:103F100082E0E07F94F82410084394F825100843C9
:103F200094F82610084311D118EE100AB0F17E5F04
:103F30000CDB18EE100A4C49884207DC18EE900A98
:103F40001421A0854948FCF73CFE2E6103E014E0F3
:103F500025E036E047E0BDEC028BBDE8F08118EECD
:103F6000100AA0F17E50B0F5000FEFD818EE900ABD
:103F7000A077012084F82300E8E718EE100A3C4AF5
:103F80003C49904202D9BAEE098A05E018EE100ABF
:103F9000884201DDB2EE098A84ED1F8AD6E718EE69
:103FA000100A354A3549904202D9BBEE0E8A05E027
:103FB00018EE100A884201DDB3EE0E8A85ED008A04
:103FC000C4E7B5EEC08A2E49F1EE10FA02D2B0EE87
:103FD000688A05E018EE100A884201DD9FED298A03
:103FE00085ED018AB2E7B5EEC08A2749F1EE10FAF5
:103FF00003D2B0EE688A06E008E018EE100A8842A4
:1040000001DDB1EE048A85ED028A9FE718EE100A01
:10401000884201DDB2EE048A85ED038A96E700004E
:10402000444D494400000000B4010020444D4D4F70
:1040300044450000444D504F53000000444D564548
:104040004C000000444D4B500000000000000000F8
:10405000444D4B4400000000444D544F52000000BA
:10406000000020C10000204100E0DF443C7200203D
:10407000000048C1000048410000F0C10000F041CC
:104080000000FA430000FA430000A0402DE9F0418F
:1040900016262DED028BB0EE408A204D07460024F7
:1040A00005EB04100168384600F070F830B1641C6C
:1040B000B442F5D3BDEC028BBDE8F08105EB0410F2
:1040C00001680978542913D090ED020AB4EEC80AA9
:1040D000F1EE10FA06DC90ED030AB4EEC80AF1EE38
:1040E00010FA01D2B0EE408A406880ED008AE1E724
:1040F00090ED031AD0ED020A4068B0EE480A05F0D0
:10410000F9F90128D6D0022806D01D20BDEC028B7B
:10411000BDE8F04100F012B91C20F7E724040108C3
:10412000F0B5EFF3108672B6154CE57E6D1C05F008
:104130000F07A57EAF421FD0E57EDFF848C005EB34
:1041400045050CEB85054FF0000CC5F800C0C5F81F
:1041500004C0C5F808C028706970AA703BB1187A0D
:10416000E870D3F809006860D3F80D00A86006492C
:10417000E27E1A208854E776002E00D162B6F0BDA8
:10418000340100207C700020AC6E002010B50FE0E0
:10419000A3F16104192C01D8203BDBB2A2F1610428
:1041A000192C01D8203AD2B293420AD1401C491CA2
:1041B00003781BB10A78002AEAD102E008780028C7
:1041C00000D0012010BD70B5002511E0435D4C5DAD
:1041D000A3F16106192E01D8203BDBB2A4F16106E0
:1041E000192E01D8203CE4B2A34205D123B16D1CA5
:1041F0009542EBD3002070BD012070BD70B505461F
:1042000000F088F8C0B12E4C607AA8B9E07A98B96D
:10421000207B88B9A07B78B9607B68B9A07D58B94C
:10422000E07D48B906F08CFB30B9E07B10B1E07B53
:10423000062801D9012400E0002401F047FA0146D4
:104240002246284604F014FF08B1012070BD1DA1CC
:104250002846FFF79BFF00282CD01CA12846FFF71B
:1042600095FF38B31BA12846FFF790FF10B31BA1A1
:104270002846FFF78BFFE8B10A221BA12846FFF76B
:10428000A2FFB8B107221BA12846FFF79CFF88B107
:1042900004221AA12846FFF796FF58B1042219A15B
:1042A0002846FFF790FF28B1072218A12846FFF7FC
:1042B0008AFF10B90F2004F07BFE002070BD0000C3
:1042C0003401002053544F50000000005A45524F13
:1042D00000000000574845454C454E0057484545AD
:1042E0004C4F4646000000004F50534F4646534542
:1042F000543D00004D414E55414C3D00474F544FF9
:10430000000000005A44543D000000005654524141
:10431000434B3D000848817C51B1C17C41B9017DCE
:1043200031B9417C21B9817A11B9007A400701D0B5
:1043300000207047012070473401002030B5EFF3B2
:10434000108172B6074AD37E947E5B1C03F00F0384
:10435000A34203D0044CD57E6055D376002900D10A
:1043600062B630BD34010020AC6E002010B5054CA3
:10437000207E07F022F8FEF78DF80020E075207708
:1043800010BD0000340100202DE9F0410E4605006B
:10439000144602D00CB1062E02D20120BDE8F081F5
:1043A00014211046FCF70DFC2878F2EE090A00F003
:1043B0000F0020702878BAEE090A00096070E978C9
:1043C000B5F801000A01297940BA42EA11186A7960
:1043D00001F00F0142EA0127102100F09FFA84ED5D
:1043E000010A0C21F3EE0E0ABBEE0E0A404600F065
:1043F00095FA84ED020A0C21F2EE040ABAEE040AE0
:10440000384600F08BFA84ED030A062E01D9A8790C
:104410002074072E01D9E87960740120A07400206F
:10442000BCE7FD2100F02ABAFC2100F027BAB0B1A8
:10443000102814D8B4EEE01AF1EE10FA0FD90121C9
:104440008140491E01EE901A31EE602AB4EEE00A76
:10445000F8EE612AC2EE821AF1EE10FA01D80020BD
:104460007047B4EEC10AF1EE10FA01DB88B2704772
:1044700030EE600A20EE210ABCEEC00A10EE100AEF
:1044800080B270472DE9F04180462DED048B82B05B
:10449000F0EE428AB0EE619AF0EE419AB0EE608A98
:1044A000B0F5E06F53D21020B2EE091AFAEE090A05
:1044B000FFF7BDFF07460C20B3EE0E1AFBEE0E0A07
:1044C000B0EE480AFFF7B3FF9FED258A06460C20A1
:1044D0009FED221AF0EE480AB0EE690AFFF7A7FF37
:1044E00005460C20B1EE041AF0EE480AB0EE490A77
:1044F000FFF79DFF04460C20B2EE041AFAEE040A00
:10450000B0EE680AFFF793FF390A8DF800108DF8B6
:10451000017031098DF80210C5F3032141EA06113B
:104520008DF803108DF8045021098DF80510C0F3A3
:10453000032141EA04118DF806108DF807000823C5
:104540006A4641460748FCF7DFFF002800D00120FB
:1045500002B0BDEC048BBDE8F08100000000FA431E
:1045600000000000001400200348017811B94078D1
:10457000002800D001207047A46B002010B5EFF395
:10458000108472B60448007810B1052000F006F8D7
:10459000002C00D162B610BDA46B002070B50A4C8F
:1045A00084F8280094ED060A002084ED0B0A94EDAF
:1045B000070A84ED0C0A20700125657001F086F869
:1045C000E060257170BD0000A46B00200F490A78DF
:1045D000042A00D00522002816D00B78042B02D024
:1045E0000B78062B10D18378332B0DD1C3789342EF
:1045F0000AD10288CB8C9A4206D1406800EE100A9C
:10460000012081ED080A887070470000A46B00202B
:104610002DE9FC4100260096EFF31087019601F08A
:1046200055F8054672B6454C207800287BD0A06826
:10463000281AB0F5C87F01D3032072E0207804283F
:1046400014D02078062811D02078022850D0207865
:1046500005284DD00020E18C8DF80010090A8DF856
:1046600001102178022945D8552244E0A078B8B33A
:104670002078042801D0012100E0002194ED080AEF
:10468000A67010EE100A6FEAD05010F0FF0F05D0A0
:1046900031B1B5EEC00AF1EE10FA06DB062040E0BB
:1046A000B5EEC00AF1EE10FAF8D904EB81009FEDE7
:1046B000242A80ED060A90ED041ADFED220AE07844
:1046C000F0EEC11A41EE820A58B130EE410AB0EE66
:1046D000C00AB4EEE00AF1EE10FA02DD042020E098
:1046E00021E009B100201CE005202070A5601AE03F
:1046F0000120B0E73322011D8DF802208DF8031050
:10470000552A03D104EB80000069019008236A4612
:1047100040F2FF710C48FCF7F7FE48B1022802D0C6
:104720000220FFF73BFF002F00D162B6BDE8FC81FD
:104730002078401C2070A560A670F4E7A46B0020D0
:10474000ACC52737BD378635001400202DE9F0476A
:1047500015462DED028BB0EE608AF0EE408A894658
:104760000746EFF310864FF0010872B6401E40F284
:10477000FE61884240D8B9F1000F3DD0FFF7F4FE4A
:1047800090BB214C207930B100F0A0FFE168401AC5
:10479000B0F5FA7F30D385B118EE900A1B49084472
:1047A0001B49884228D818EE100A1A49884223D398
:1047B00018EE100A184988421ED800206062A062D4
:1047C000E0622063E784A4F82490E570C4ED048AD5
:1047D0009FED120A84ED058A84ED070A84ED060A2E
:1047E000A07015B1012001E006E00320207000F068
:1047F0006DFF4FF00008A06006B962B64046BDEC00
:10480000028BBDE8F0870000A46B002043C879CA82
:1048100043C8F30EBD3786B500007AC4000000001F
:10482000F0B50346EFF3108172B6074A507838B1FD
:10483000546A956AD66A176B83E8F00000235370B8
:10484000002900D162B6F0BDA46B00201CB500F5B4
:10485000807189B2B0F5E06F0BD2B1F5006F08D26C
:1048600008236A4604488DEC020AFCF74DFE002836
:1048700000D001201CBD0000001400201CB5B0F5C4
:10488000E06F18D2FF228DF804208DF805208DF8F6
:1048900000208DF806208DF801208DF802208DF87B
:1048A00007108DF80320014608236A460348FCF7E9
:1048B0002BFE002800D001201CBD000000140020A9
:1048C0001CB5B0F5E06F20D2012901D002291CD11E
:1048D0008DF80000000A8DF8010055208DF80200C7
:1048E0000A208DF803008DF8041000208DF80500D3
:1048F0008DF806008DF8070008236A4640F2FF7124
:104900000348FCF701FE002800D001201CBD000078
:1049100000140020FE21FFF7B1BF000031B11029C3
:1049200004D8F4EEC00AF1EE10FA02D89FED0B0A9B
:10493000704701EE900A012230EEC01A8A40521EE2
:10494000F8EE611A00EE902AF8EE600A21EE811A64
:10495000C1EE201A31EE800A70470000000000000E
:1049600072B6FEE702490620087004207047000076
:10497000A800002090F82020012A07D0022A05D0A4
:10498000416A41F480214162012070470068426918
:104990000A43426100207047F0B590F82050046847
:1049A000A468012D05D0022D03D0416A41F4802175
:1049B00057E014F0406F01D1E5004FD5C4F3016416
:1049C0000125A5401D608D684FF4C0739DB1CE6870
:1049D00035434E6845EAC605066803EB0417F551F2
:1049E0004FF4C275076805EB04150E697E51097D09
:1049F000012905D009E00E88CD6845EA4655EBE768
:104A000001684E5946F480764E511179D579567920
:104A100041EA056195792D0445EA062529434FF4BD
:104A2000C676056806EB0416A9511178D57841EAD7
:104A30000561957852782D0445EA022211434FF41E
:104A4000C475026805EB04155151006803EB0411AD
:104A5000425842F0010242500020F0BD416A41F448
:104A6000001141620120F0BD10B590F82020012A0C
:104A700007D0022A05D0416A41F480214162012019
:104A800010BD3B48D0F8002242F00102C0F80022DD
:104A9000D0F8002222F47C52C0F80022D0F8002284
:104AA0004B6A42EA0322C0F800220A7D02F01F038B
:104AB00001229A40D0F81C329343C0F81C32CB69D3
:104AC000B3B9D0F80C329343C0F80C328C894B68E0
:104AD00064F31F434C6900EBC404C4F840320C89F2
:104AE0000B6864F31F434C6900EBC404C4F8443200
:104AF000CB69012B16D1D0F80C321343C0F80C321D
:104B00000C884B6864F31F434C6900EBC404C4F881
:104B100040320C89CB6864F31F434C6900EBC4043A
:104B2000C4F844328B69002BD0F804320ED0134302
:104B3000C0F804320B69002BD0F8143208D01343AC
:104B4000C0F81432096A012904D008E09343EFE762
:104B50009343F5E7D0F81C121143C0F81C12D0F8AB
:104B6000001221F00101C0F80012002010BD000069
:104B700000640040704770B590F82040012C05D0CB
:104B8000022C03D0416A41F4802128E0046809B373
:104B90002469A40720D04FF4D874056804EB0114ED
:104BA0002D5915F00405956005682D591AD0ED08AA
:104BB000556005682C5904F00204D4604FF4DA748F
:104BC000056804EB01142E5906F00F06082E0CD3CD
:104BD00008250DE0E468DCE7416A41F40011416218
:104BE000012070BD6D0D1560E3E72D5905F00F052F
:104BF000156105682D59C5F30725956105682C5980
:104C0000240C54614FF4DC72046802EB0112A458C6
:104C10001C700468A458240A5C700468A458240C0E
:104C20009C700468A258120EDA704FF4DE720468A9
:104C300002EB0112A4581C710468A458240A5C7188
:104C40000468A458240C9C710468A258120EDA71EE
:104C5000006829B1016941F020010161002070BDA7
:104C6000C16841F02001C160F8E70246002092F8D7
:104C70002010012901D002290CD111688A68520143
:104C800000D501208A68120100D5401C8968C9003E
:104C900000D5401C70472DE9F05F054600680024F0
:104CA0004669D0F804908768D0F80CB0D0F810A00E
:104CB000D0F81880F10748D0F90714D0012181609D
:104CC000B80703D5284600F018FA0CE0780702D59B
:104CD0004FF4006407E0380702D54FF4805402E037
:104CE000284600F009FAF80516D529684FF48070B7
:104CF0008860B80503D5284600F001FA0CE0780575
:104D000002D544F4005407E0380502D544F4804449
:104D100002E0284600F0F2F9F80316D529684FF4AE
:104D200080308860B80303D5284600F0EAF90CE02B
:104D3000780302D544F4004407E0380302D544F474
:104D4000803402E0284600F0DBF9300707D55FEA3F
:104D5000CB6004D52968102044F40074C860700743
:104D60004FF0080707D55FEA0B7004D52868C760C5
:104D7000284600F05FF9B00706D52868C0688007AC
:104D800002D0284600F058F9700607D55FEACA60DD
:104D900004D52968102044F480640861B00607D562
:104DA0005FEA0A7004D528680761284600F074F9A4
:104DB000F00606D528680069800702D0284600F072
:104DC0006CF9B00308D55FEAC96005D529681020E1
:104DD0004860284600F062F9F00307D55FEA0970E1
:104DE00004D528684760284600F08CF9300446D581
:104DF0005FEA497040D5F00504D55FEAC87001D07C
:104E000044F00104B00504D55FEA887001D544F090
:104E10000204700504D55FEA487001D544F004042B
:104E2000300529D518F0700F26D008F07000402802
:104E300015D006DC102809D020280AD0302816D139
:104E40000AE050280ED0602811D10EE044F008048A
:104E50000DE044F010040AE044F0200407E044F0C0
:104E6000400404E044F0800401E044F480742868C5
:104E7000816921F070018161296804204860002C5B
:104E800005D0686A204368622846FFF773FEBDE8D4
:104E9000F09F70B5040003D094F8200010B104E036
:104EA000012070BD204600F081F82068016841F0C3
:104EB0000101016000F00AFC0546052604E000F04F
:104EC00005FC401B0A2811D820684068C007F6D0AE
:104ED0002068016821F00201016000F0F7FB05463F
:104EE0000BE000F0F3FB401B0A2806D9606A40F48F
:104EF0000030606284F82060D2E720684068800754
:104F0000EFD4207E0128206801683DD021F0800187
:104F10000160607E01282068016838D021F04001DE
:104F20000160A07E01282068016833D021F02001B3
:104F30000160E07E0128206801682ED041F0100158
:104F40000160207F01282068016829D021F0080134
:104F50000160607F01282068016824D021F00401ED
:104F60000160D4E902010843D4E904121143084363
:104F70006168491E08432168C86100206062012001
:104F800084F82000002070BD41F08001C0E741F0AE
:104F90004001C5E741F02001CAE721F01001CFE749
:104FA00041F00801D4E741F00401D9E710B586B01B
:104FB000044614216846FBF704FE1B49206888421A
:104FC00030D11A480021026842F000720260026883
:104FD00002F000720592026842F08062026000688E
:104FE00000F08060059011481038026842F002021B
:104FF0000260006800F0020005906020009002202E
:10500000CDE9010103200390092004906946084876
:1050100000F05EFA00220521402000F0F5FB402060
:1050200000F0E4FB06B010BD0068004040380240CC
:10503000000402407047000010B58AB0040022D07E
:105040001249206888421ED16B4602AA00212046E0
:10505000FFF791FD002816D10D49029808600398CA
:1050600048600498087205984872069888720098FB
:10507000C1F80B000198C1F80F0006490120087023
:105080002046FCF7D7F90AB010BD000000680040C8
:10509000906B00203001002070477047704700007F
:1050A00070B5044690F82000012804D0606A40F4EE
:1050B0000020606218E0022084F820002068016867
:1050C00021F00101016000F001FB05460EE000BF88
:1050D00000F0FCFA401B0A2808D9606A40F400304E
:1050E0006062052084F82000012070BD20684068BF
:1050F000C007EDD1606270BD704770477047704760
:105100007047704770472DE9F0410446876D00F005
:10511000DDFA064694F835000025022806D08020E6
:10512000606584F834500120BDE8F0812068016892
:1051300021F0160101602068416921F08001416180
:10514000206C08B9A06C20B12068016821F008012A
:1051500001602068016821F0010101600CE000F0AD
:10516000B5FA801B052807D920206065032084F844
:10517000350084F83450D7E720680068C007EED1C6
:1051800094F85C103F208840B860012084F8350016
:1051900084F834500020C7E790F83510022903D076
:1051A0008021416501207047052180F83510006895
:1051B000016821F00101016000207047406D7047D7
:1051C00090F83500704700002DE9F84304464FF091
:1051D0000009CDF8009063484FF41651A56D0068A2
:1051E000B0FBF1F72E6894F85C10082000FA01F18A
:1051F00031420FD021680A6852070BD50A6822F0A5
:1052000004020A6094F85C108840A860606D40F069
:105210000100606594F85C104FF0010808FA01F095
:10522000304208D021684969090604D5A860606D3C
:1052300040F00200606594F85C1004208840304221
:1052400008D021680968890704D5A860606D40F01E
:105250000400606594F85C1010208840304218D03B
:1052600021680968090714D5A86020680168490306
:1052700004D50068000308D5A16C07E00168C905E2
:1052800003D4016821F008010160216C09B12046B6
:10529000884794F85C1020208840304231D0216843
:1052A0000968C9062DD5A86094F83500052820683E
:1052B000016806D0490347D5006800031DD4616C1E
:1052C0001CE021F0160101602068416921F0800195
:1052D0004161206C08B9A06C20B12068016821F000
:1052E0000801016094F85C103F208840A86084F8B1
:1052F000358084F83490216D1FE0E16B09B12046C0
:105300008847606D00282BD0606DC00714D0052041
:1053100084F835002068016821F0010101600098DF
:10532000401C0090B84203D820680068C007F6D13E
:1053300084F8358084F83490E16C002910D001B0F5
:105340002046BDE8F04308470168C905D5D4016887
:1053500021F01001016084F8358084F83490CCE7A6
:10536000BDE8F883300000202DE9F041044600F04C
:10537000ADF906465CB1022084F83500002584F8BA
:1053800034502068016821F0010101600DE0012026
:10539000BDE8F08100F09AF9801B052805D920208E
:1053A0006065032084F83500F2E720680068C007D4
:1053B000F0D12268116820480140D4E90103184364
:1053C000D4E903363343184363691843A369184388
:1053D000E3691843236A18430843616A042903D127
:1053E000D4E90B1319430843106020684069666ACA
:1053F00020F0070130460E43012704280CD1A06A93
:105400000643E06A40B12046FCF794F920B1402001
:10541000606584F83570BAE7206846612046FCF77D
:1054200075F994F85C203F2191408160656584F8AE
:1054300035700020ACE700003F8010F02DE9F0410E
:105440000446866D90F83400002501280DD0012017
:1054500084F8340094F835700020012F07D084F8C8
:10546000340002252846BDE8F0810220FBE7022730
:1054700084F8357060652046FCF786F994F85C1076
:105480003F208840B0602068016841F0160101604B
:10549000206C20B12068016841F00801016020689B
:1054A000016841F001010160DCE7000070B50446CD
:1054B00000F00CF90546601C02D004480078044452
:1054C00000F004F9401BA042FAD370BD2400002074
:1054D0002DE9F84FDFF8BCA10022012503264FF08B
:1054E0000F090AF1040BAAF1040E00BF0B6805FABC
:1054F00002F42340A34270D10F7907F00307012F74
:1055000001D0022F16D187684FEA420806FA08FC3C
:1055100027EA0C07D1F80CC00CFA08FC4CEA070C7F
:10552000C0F808C04768A7430C79C4F3001494403E
:105530003C4344600C79E443A4070AD0C4684FEAB2
:10554000420C06FA0CF7BC438F6807FA0CF72743A6
:10555000C7600C7904F00304022C12D1D40800EBCC
:10556000840CDCF820405707FF0E09FA07F824EAFC
:105570000804D1F8108008FA07F848EA0408CCF8C3
:10558000208004684FEA420C06FA0CF7BC430F79FE
:1055900007F0030707FA0CF7274307604C6814F479
:1055A000403F70D03C4C276847F480472760246810
:1055B00022F0030704F480440094384C07EB040CF9
:1055C000DCF8084897074FEA177809FA08F7BC4350
:1055D000334FB84202D1002724E054E0314FB842A3
:1055E00001D101271EE0304FB84201D1022719E056
:1055F0002E4FB84201D1032714E02D4FB84201D1FC
:1056000004270FE02B4FB84201D105270AE02A4FAB
:10561000B84201D1062705E0284FB84201D107273B
:1056200000E0082707FA08F72743CCF80878DAF8EB
:1056300000405746D1F804C09C435FEACC2C00D50B
:105640001C433C60DBF800405F46D1F804C09C433B
:105650005FEA8C2C00D51C433C60DEF800407746A6
:10566000D1F804C09C435FEA8C3C00D51C433C60ED
:10567000084F083F3C68D1F804C09C435FEACC3C2B
:1056800000D51C433C60521C102AFFF42FAFBDE82C
:10569000F88F0000083C01404438024000300140CF
:1056A000000002400004024000080240000C0240DA
:1056B000001002400014024000180240001C02408A
:1056C0000AB1816170470904FBE700000148806866
:1056D00070470000240000200248816802781144CD
:1056E00081607047240000200B4810B5016841F428
:1056F00000710160016841F480610160016841F45A
:1057000080710160032000F09FF80F2000F006F880
:1057100000F050F8002010BD003C024030B50546B6
:105720001F4887B00024016841F020010160006833
:1057300006A900F02000009001A800F031F90498BB
:10574000A8B100F04DF940001649174AB0FBF1F13D
:105750001648491E026040F2E732C0E90324C0E95E
:105760000114846100F00EFD040003D015E000F088
:1057700037F9E9E70D4800F055FD04000DD1372059
:1057800000F034F8102D07D200222946372000F00F
:105790003BF80748056000E0012407B0204630BD13
:1057A0004038024040420F0000140040B81700206B
:1057B000280000200C4882B0016841F4804101605B
:1057C000006800F4804000900748001F016841F025
:1057D000805101600068002200F0805000900F218D
:1057E000901E02B000F010B844380240002809DBD7
:1057F00000F01F02012191404009800000F1E020EB
:10580000C0F8001170470000F0B40E4B1B680C4646
:10581000C3F30223C3F10705042D00D90425191D84
:10582000072901D2002300E0DB1E012606FA05F15C
:10583000491E214099409E40761E16403143F0BCDF
:1058400005F041BF0CED00E0064900F007020868D2
:105850004FF6FF03184040EA0220034A1043086055
:10586000704700000CED00E00000FA052DE9F0475C
:105870000E46050065D0DFF81481D8F80000F7B2B5
:1058800000F00700B04207D288F80070D8F8000096
:1058900000F00700B04254D128683D4C810712D572
:1058A000400703D5206840F4E050206028780007C6
:1058B00003D5206840F4604020602068A96820F08B
:1058C000F000084320602878C0072DD03049686870
:1058D0000839012812D0022813D0032811D00968F2
:1058E000890700292DDA216821F003010143216095
:1058F000FFF7ECFE814641F2883A0EE00968890321
:10590000EFE709688901ECE7FFF7E0FEA0EB09018A
:10591000514502D90320BDE8F0872068696800F08E
:105920000C00B0EB810FEFD1D8F80010404601F029
:105930000701B14207D90770006800F00700B042C4
:1059400001D00120E7E72878400705D52068E968FD
:1059500020F4E050084320602878000706D520682E
:10596000296920F4604040EAC100206000F058F846
:105970002168084AC1F30311515CC8400649086018
:1059800006480068FFF7CAFE0020C4E7003C02405A
:10599000083802407CE20008300000202800002087
:1059A0000F2202600C4A136803F00303436013687C
:1059B00003F0F0038360136803F4E053C3601268DC
:1059C0004FF4E05303EAD20202610448006800F099
:1059D000070008607047000008380240003C0240A1
:1059E0000448054900680968044AC1F38221515CF2
:1059F000C840704730000020083802408CE20008A0
:105A00000448054900680968044AC1F34231515C01
:105A1000C840704730000020083802408CE200087F
:105A2000154810B5006810F00C02144813D041104E
:105A3000042A0FD0082A0ED10F4C241F2268236895
:105A400002F03F025B0207D52068C0F38810A0FB7C
:105A5000010106E0084610BD2168C1F38811A1FBD1
:105A600000010023FAF7A4FC2168C1F30141491C9D
:105A70004900B0FBF1F010BD083802400024F400EA
:105A80002DE9F84F04006ED02078DFF84C93C00762
:105A9000A9F104054AD009F104000168C1F38101AC
:105AA000012908D00068C0F3810002280AD1D9F882
:105AB0000000400206D52868800337D560680028BA
:105AC000E1D033E06068B0F5803F10D0B0F5A02F92
:105AD000286810D020F480302860286820F48020C6
