:020000040800F2
:10000000286500205103000801660008C95D00084A
:1000100095640008110F0008D98000080000000056
:100020000000000000000000000000009102000835
:100030008112000800000000ED020008D9770008D6
:100040006B0300086B0300086B0300086B030008D8
:100050006B0300086B0300086B0300086B030008C8
:100060006B0300086B0300086B0300086B030008B8
:100070006B0300086B0300086B0300086B030008A8
:10008000B91100086B0300086B0300086B0300083C
:100090006B0300086B0300086B0300086B03000888
:1000A0006B0300086B0300086B0300086B03000878
:1000B0006B0300086B0300086B0300086B03000868
:1000C0006B0300086B0300086B0300086B03000858
:1000D0006B030008B5800008C1800008CD800008CF
:1000E0006B0300086B0300086B0300086B03000838
:1000F0006B0300086B0300086B0300086B03000828
:100100006B0300086B0300086B0300086B03000817
:10011000A17B00086B0300086B03000899780008B6
:100120006B0300086B030008C51100086B0300088F
:100130006B0300086B0300086B0300086B030008E7
:10014000150F00086B0300086B0300086B03000821
:100150006B0300086B030008D11100086B03000853
:100160006B0300086B0300086B0300086B030008B7
:100170006B0300086B0300086B030008000000001D
:100180006B0300086B03000800F002F800F071F840
:100190000AA090E8000C82448344AAF10107DA45E2
:1001A00001D100F066F8AFF2090EBAE80F0013F0C3
:1001B000010F18BFFB1A43F0010318476CCD000074
:1001C0008CCD00000A4410F8014B14F00F0508BF55
:1001D00010F8015B240908BF10F8014B6D1E05D013
:1001E00010F8013B6D1E01F8013BF9D1641E03D0EC
:1001F000641E01F8015BFBD19142E4D3704700001B
:100200000023002400250026103A28BF78C1FBD81F
:10021000520728BF30C148BF0B607047692900F002
:10022000AD81642900F0AA81752900F0A7816F29AA
:1002300000F03E82782900F063820368DB0928BF62
:1002400041F08001632900F01E85E32900F031852B
:10025000002070471FB50AF093F900F0EBFD040091
:10026000002000210AF030F9401C60601FBD10B56D
:1002700010BD00F0B9FD1146FFF7ECFF09F02CFAB4
:1002800000F0DCFD03B4FFF7F2FF03BC00F020FE3A
:100290002C4B19680868B0E8F04F80F30988BFF369
:1002A0006F8F4FF0000080F311887047000000004E
:1002B00008480068006880F308884FF0000080F369
:1002C000148862B661B6BFF34F8FBFF36F8F00DF44
:1002D00000BF00BF08ED00E0DFF80C00016841F44A
:1002E00070010160704700BF88ED00E0EFF3098006
:1002F000BFF36F8F134B1A681EF0100F08BF20ED6D
:10030000108A20E9F04F106009B44FF0500080F3DC
:100310001188BFF34F8FBFF36F8F09F0C5FE4FF009
:10032000000080F3118809BC19680868B0E8F04F34
:100330001EF0100F08BFB0EC108A80F30988BFF3DD
:100340006F8F70471C000020EFF30580704700009E
:100350000948804709480047FEE7FEE7FEE7FEE759
:10036000FEE7FEE7FEE7FEE7FEE7FEE70448054995
:10037000054A064B7047000089780008890100088B
:10038000285F0020286500202861002028610020C7
:1003900053EA020C00F069802DE9F04B4FF00006A3
:1003A000002B1FBFB3FA83F503FA05F424FA05F610
:1003B0005E4012BF1643B2FA82F502FA05F4C5F1A7
:1003C00020051EBF22FA05FC44EA0C04203556EA3B
:1003D000044C4FEA144418BF641C4FF000084FF05F
:1003E0000009904271EB030C39D3002919BFB1FA0F
:1003F00081F701FA07F6B0FA80F700FA07F6C7F1BD
:1004000020071EBF20FA07FC46EA0C062037B6FB81
:10041000F4FCA7EB0507103F07F01F0BCBF12006FC
:100420000CFA0BFB2CFA06F644BFB3460026202F2D
:10043000A4BF5E464FF0000B5BEA060C08BF4FF00E
:10044000010B19EB0B09ABFB027C48EB0608C01B48
:1004500006FB02CC0BFB03CC71EB0C01C1E70B4696
:10046000024641464846BDE8F08B13B54FF0000008
:100470004FF00001AFF30080BDE81C407047000062
:100480000FB47CB50C0009AA009001D02044401E96
:10049000084B7B4469460190089800F0CAFB05466A
:1004A0001CB10020694600F0D7FB28467CBC5DF8F3
:1004B00014FB0000CD07000070B504468569006894
:1004C000C10601D5302600E02026C00707D070BD48
:1004D000D4E9012130469047206A401C20626D1EFD
:1004E000F6D570BD70B5044685690078C00707D1A0
:1004F00070BDD4E9012120209047206A401C206271
:100500006D1EF6D570BD09684A0501D540B2704729
:10051000C905FCD500B2704709684A0501D5C0B2CB
:100520007047C905FCD580B2704770B50C460546CA
:10053000012A05D02878800600D5EA69002302E068
:10054000012305E05B1C934202D2E05C0028F9D154
:10055000A869E618C01AA861286A184428622846C3
:10056000FFF7AAFF04E0D5E9012114F8010B904739
:10057000B442F8D32846FFF7B5FF70BD2DE9F0412E
:100580000646002410687529314616A510D0FFF7DD
:10059000BAFF002802DA404213A507E031688A0753
:1005A00001D512A502E0490704D511A5012401E0F7
:1005B000FFF7B2FF00210A2206F1240709E0B0FB91
:1005C000F2FCB0FBF2F302FB1C003030785418460A
:1005D000491C0028F3D123462A463046BDE8F041A5
:1005E00000F0C9BA000000002D0000002B00000040
:1005F000200000002DE9FF5F15468A460446DFF81B
:10060000AC80F8440027D8E900103E46CDE9001040
:1006100010E03AF816106A4602A800F056FB411C9A
:1006200007D02178890603D5E269391891420DD89F
:100630000744761C2078800602D5E069B84205DDC3
:10064000AE42E6DB3AF816000028E2D1A069C01BF2
:10065000A0612046FFF730FFD8E90010CDE9001077
:10066000002017E03AF818106A4602A800F02DFBA7
:10067000B0F1FF3F81460BD000250DF1080B05E0DE
:10068000D4E901211BF8050090476D1C4D45F7D3B7
:1006900008F10100B0428046E4DB206A3844206261
:1006A0002046FFF71FFFBDE8FF9F0000BEC300000C
:1006B00070B5044621461068FFF72EFF002104F1B3
:1006C000240505E000F007023032C0086A54491CD6
:1006D0000028F7D12068002307A2050707D5800668
:1006E00000D421B1E069012304A2401EE06120464C
:1006F000BDE8704000F03FBA00000000300000008C
:1007000070B504460D4621461068FFF705FF2188A5
:10071000090502D50F4A7A4402E00E4A7A440E32A5
:10072000002104F1240305E000F00F060009965DA6
:100730005E54491C0028F7D120780023000704D517
:10074000702D02D009B1022311322046BDE870405D
:1007500000F011BAB2C200002DE9F05F89460446EC
:100760004FF0000ADFF874B1FB44C0F820A0204627
:10077000E1688847002874D0252806D0D4E90121F3
:100780009047206A401C2062F1E700265F46204621
:10079000E16888472028054607DB312D05D2781906
:1007A00010F8200C08B10643F1E7B00701D526F098
:1007B0000406C4F81CA00027C4F818A02A2D09D0EC
:1007C000284608F047FE38B304EB8708303DC8F8E8
:1007D000185019E059F8041B204604EB8702916178
:1007E000E1688847012F054618D1E069002820DA22
:1007F00026F020061DE0D8F8180000EB800005EB7D
:1008000040003038C8F818002046E168884705469F
:1008100008F020FE0028EED1012F0AD02E2D08D19D
:100820002046E16888477F1C0546022F46F02006D7
:10083000C4DBA069002803DA404246F00106A0614B
:10084000F00701D026F010066C2D0BD0682D09D0D2
:100850004C2D39D06A2D35D0742D35D07A2D33D02A
:1008600016E038E0E1682F4620468847B842054642
:1008700009D16C2F26D04FF48060E16806432046F2
:100880008847054604E06C2F1AD04FF48070064369
:100890000DB3A5F14100192802D8203546F40066B1
:1008A0004A462946204626604E46FFF7B7FC80B1EF
:1008B00001280BD0F61D26F0070000F1080956E7C5
:1008C0004020E4E78020D8E70020D6E706F10409BD
:1008D0004DE7284652E7206ABDE8F09F88C2000035
:1008E000401ECAB210F8011F8A4202D00029F9D175
:1008F0000020704740EA010310B59B070FD1042A7E
:100900000DD310C808C9121F9C42F8D020BA19BADA
:10091000884201D9012010BD4FF0FF3010BD1AB13F
:10092000D30703D0521C07E0002010BD10F8013B94
:1009300011F8014B1B1B07D110F8013B11F8014BBB
:100940001B1B01D1921EF1D1184610BD10B5431CDE
:1009500002E010F8011B71B18107FAD14FF00132AA
:1009600002C88C1A8C4314EAC211F9D0C01A0A06C4
:1009700003D0C01E10BDC01A10BD0A0401D0801ED5
:1009800010BD0902FCD0401E10BD032A40F2308089
:1009900010F0030C00F0158011F8013BBCF1020FC0
:1009A000624498BF11F801CB00F8013B38BF11F841
:1009B000013BA2F1040298BF00F801CB38BF00F858
:1009C000013B11F0030300F06780083AC0F0088093
:1009D00051F8043B083A51F804CBA0E80810F5E7B9
:1009E000121D5CBF51F8043B40F8043BAFF300809C
:1009F000D20724BF11F8013B11F801CB48BF11F811
:100A0000012B24BF00F8013B00F801CB48BF00F8E0
:100A1000012B7047431A28BF9A427FF6B6AF032ACC
:100A20001044114440F2268010F0030F1EBF11F84D
:100A3000013D521E00F8013D10F0030F7FF4F6AFA8
:100A400011F0030300F07481083AC0F00B8051F8F4
:100A5000043D083A51F804CD40F8043D40F804CD77
:100A6000FFF7F3BF121D5CBF51F8043D40F8043D91
:100A7000AFF30080D20724BF11F8013D11F801CD7A
:100A800048BF11F8012C24BF00F8013D00F801CD4A
:100A900048BF00F8012C704710B5203AC0F00B8019
:100AA000B1E81850203AA0E81850B1E81850A0E872
:100AB0001850BFF4F5AF5FEA027C24BFB1E81850CC
:100AC000A0E8185044BF18C918C0BDE810405FEA3C
:100AD000827C24BF51F8043B40F8043B08BF7047B8
:100AE000D20728BF31F8023B48BF11F8012B28BFBD
:100AF00020F8023B48BF00F8012B704702F0FF03CB
:100B000043EA032242EA024200F03EB94FF00002FB
:100B100000B5134694469646203922BFA0E80C50F3
:100B2000A0E80C50B1F12001BFF4F7AF090728BFCE
:100B3000A0E80C5048BF0CC05DF804EB890028BF4A
:100B400040F8042B08BF704748BF20F8022B11F073
:100B5000804F18BF00F8012B7047704770477047EF
:100B600010B500F039F9006810BD10B5044600F06A
:100B700033F9046010BD2DE9F0470D4699469246C1
:100B8000044600F124080168880604D5E06921F0D4
:100B90001001216000E00120A84201DD471B00E0B8
:100BA0000027A1697A1902EB0900081AA0612078D0
:100BB000C00602D42046FFF77FFC002608E0D4E9F7
:100BC00001211AF806009047206A401C761C20621A
:100BD0004E45F4DB2078C0060AD52046FFF76CFCB2
:100BE00006E0D4E9012130209047206A401C2062B1
:100BF000381EA7F10107F4DC07E0D4E9012118F859
:100C000005009047206A401C2062281EA5F10105BE
:100C1000F3DC2046FFF766FC2078000602D50220B0
:100C2000BDE8F0870120FBE701694A1C02610878F2
:100C3000704700B58FB0CDE901310021059105491C
:100C40007944CDE9031011466846FFF785FD0FB0E2
:100C500000BD0000E5FFFFFF0A6802F8010B0A6013
:100C60007047D1E900239A4202D2531C0B601070E6
:100C7000704710B5436913B1AFF3008001E0FFF78F
:100C800054FC012010BD127800F124010A700022EA
:100C90004A700122EDE711684FF0FF32E9E710B525
:100CA000436913B1AFF3008001E0FFF7A3FC01201B
:100CB00010BD128800F1240182840022C284012226
:100CC000EDE711684FF0FF32E9E770B516460C46C4
:100CD000054600F079F8036893F80101012806D071
:100CE000FF2C0FD8185D68B101202C7070BDD3F8AF
:100CF00007013246214603F2071303442846BDE8A4
:100D0000704018474FF0FF3070BD431A28BF9A4219
:100D10007FF6C2AE104410F0030F11441EBF11F84D
:100D2000013D521E00F8013D10F0030F7FF4F6AFB5
:100D3000103AC0F00A8010B531E91850103A20E995
:100D40001850BFF4F9AFBDE81040530724BF31E994
:100D5000081020E9081044BF51F8043D40F8043D54
:100D600012F0030F08BF7047D20728BF31F8023DC9
:100D700048BF11F8012C28BF20F8023D48BF00F8F9
:100D8000012C70474FF000020429C0F0128010F0CF
:100D9000030C3FF4BDAECCF1040CBCF1020F18BF44
:100DA00000F8012BA8BF20F8022BA1EB0C01FFF7E4
:100DB000AFBE5FEAC17C24BF00F8012B00F8012B15
:100DC00048BF00F8012B704710B500F033F8001D44
:100DD00010BD00BFF596000000487047C85E0020B7
:100DE00000487047C85E00207546FFF7F9FFAE4621
:100DF00005006946534620F00700854618B020B527
:100E0000FFF7B4FABDE820404FF000064FF00007AE
:100E10004FF000084FF0000B21F00701AC46ACE8A2
:100E2000C009ACE8C009ACE8C009ACE8C0098D460F
:100E30007047000000487047E85E002010B5044687
:100E4000AFF300802046BDE81040FFF71BBA00005A
:100E50004FF0013C50F8042B51F8043B9A4221D149
:100E6000A2EB0C03934313EACC1317D150F8042BD5
:100E700051F8043B9A4215D1A2EB0C03934313EAB9
:100E8000CC130BD150F8042B51F8043B9A4209D1F2
:100E9000A2EB0C03934313EACC13DBD04FF000001A
:100EA000704700BFD01A01BAB1FA81F101F0180100
:100EB00022FA01F0CB40C1F12001DBB2C0B2C01A6E
:100EC0002CFA01F3D11A914311EAC311E6D170470C
:100ED00001491820ABBEFEE7260002007047000063
:100EE000034A1070080C5070080A9070D170704757
:100EF000FC4D0020054900200A5CFF2A01D000209B
:100F00007047401CFF28F7D901207047045000208B
:100F1000FEE70000014802F0EABD000028020020C0
:100F200010B588B0002831D00068274988422DD1FB
:100F3000264C607A002829D1A07A082826D8207A61
:100F4000042818D0207A002820D1A07A08281DD1A2
:100F5000D4F80B000590D4F80F0006909DF815000A
:100F60000F2819D89DF81600332811D055280FD016
:100F7000AA280DD010E0D4F80B000590D4F80F008B
:100F80000690A27A606805A906F0D8FB08B010BDEB
:100F90009DF817005128F9D9A17A6A4605A802F0F0
:100FA00091FA0028F2D10A489DF80010C08CC2B214
:100FB000914202D021688142E8D114226946054855
:100FC000FFF76AFDE2E700000068004038590020A2
:100FD00018010020805D0020F0B589B00D4607465D
:100FE0001C46164618216846FFF790FD0020069023
:100FF00007902FB126B1082C02D8B5F5006F02D3A7
:10100000012009B0F0BDCDE900500290CDE9030404
:101010002246314606A8FFF7B8FC06AA69463846BC
:1010200004F0B5FEEDE7F0B589B00D4607461C4665
:10103000164618216846FFF769FD002006900790C4
:101040002FB126B1082C02D8B5F1005F02D30120E0
:1010500009B0F0BD0421CDE900050291CDE90304FA
:101060002246314606A8FFF790FC06AA6946384694
:1010700004F08DFEECE710B58AB004001DD000200E
:10108000009001900E2102900390CDE9040106909A
:101090000120CDE9080107906946204602F010FCC6
:1010A000002808D10221204602F090FB002802D13E
:1010B000204602F021FF0AB010BD0120FBE700002E
:1010C0002DE9FC470C00054607D032B1501E6FF0E9
:1010D0006041A1EBD000A84202D20120BDE8FC870C
:1010E00000206946082A0FD20090019003E0235C9B
:1010F0000B54401CC0B29042F9D313460A4629460D
:101100002048FFF790FFE9E7D60802F0070800271C
:101110008246894618E000BFCDF800A0002049466D
:10112000CDF804A000EBC702A25C0A54401CC0B278
:101130000828F7D3E91908236A461248FFF773FF16
:101140000028CBD17F1CFFB2B742E5D3B8F1000F26
:1011500016D0CDF800A000204A46CDF804A005E046
:1011600000EBC601615C1154401CC0B24045F7D38E
:10117000A91943466A460348FFF755FF0028ADD139
:101180000020ABE72802002030B54FF0FF32094CB9
:101190000CE000BF10F8013B5A400023D50700D0F7
:1011A00025465B1C85EA5202082BF7D3491EF1D273
:1011B000D04330BD2083B8ED014802F031BF0000BC
:1011C00080050020014802F02BBF0000C004002071
:1011D000014802F025BF0000200500200168182307
:1011E000CAB2103AB2FBF3F2054B6FF30901032ABE
:1011F0009B5CC36500D9091D8165084670470000E6
:10120000A4A6000810B5014600208B698A6A4FF039
:10121000C07453B1B3F5005F15D072B1012A0CD080
:10122000022A0AD0032A09D104E01AB1012A06D001
:10123000022A03D1C96AC90100D5012010BDC96ABB
:10124000A142FAD010BD002AF7D0012AF2D0022A1A
:10125000F3D0032AF3D010BD30B50468256825F417
:1012600080252560046863608368402B036803D091
:1012700099600068C26030BD9A600068C16030BD8E
:10128000704700002DE9F05F3A4C8346062020703D
:1012900000256570A5706560A5600227E56005F012
:1012A000CDFD78B9DFF8D080DFF8D0A000264FF070
:1012B000010900BF08EB06204FF48072304905F0A9
:1012C0008DFE10B10420BDE8F09FFFF713FE20B1A2
:1012D000616809FA06F008436060582228492748E7
:1012E000FFF7DAFB254806F0F9FEB0B1607828B1C7
:1012F000DAF80800A168401A00280EDD1F494022D4
:101300001031A1F1A800FFF7C7FBDAF80810C4E913
:10131000021684F80190DAF80470761C202EC9D3E6
:10132000607878B11549402298395846FFF7B4FBE8
:10133000607838B1012F05D1B0EE080A8BED090AAB
:1013400084F802900D4840225946D838FFF7A4FB94
:10135000607828B90948402259469838FFF79CFB25
:1013600003F0E0F8A061257060780028ABD0012080
:10137000A9E700009000002000E0FF00DC51002001
:10138000045000202DE9F84F8C4C05460E4620787D
:1013900006282CD0284600F01DF9002878D04022DD
:1013A00087492846FFF7A6FA28B1402229468448F3
:1013B000FFF772FBA661DFF80882207808F1800849
:1013C00008F11001DFF8FC914FF0030A4FF6FF7BA4
:1013D0000125009170B12269012809EB02274FF025
:1013E000000956D0042854D0052852D05CE00420CF
:1013F000BDE8F88FA07838B9714940224031704873
:10140000FFF778FA0028F3D0A069301AB0F5FA6F28
:101410003ED36D48C8F800000220C8F80400A06858
:101420004746401CC8F8080040200246C8F80C0097
:1014300063490098FFF730FB614850218030FFF787
:10144000A3FE386561487865E068676820F00F01A1
:10145000084601F1100204E005FA00F33B4202D114
:10146000401C9042F8D3904201D2206147E081F0C5
:101470001000206109EB002005F0CAFC00286FD1A4
:10148000217C0BFA01F06168E6618143616025709F
:1014900068E005F0CFFD012862D0032860D0022863
:1014A0000CD0207801280FD0C0B2022810D0032819
:1014B00028D0042835D0052856D053E0E069301AEA
:1014C000B0F57A7F76D84DE00220C4F8149046E05B
:1014D00060694FF4807207EB00203D4905F07EFD06
:1014E000F0BBFFF707FDD8B36069401C60611028AE
:1014F00038D1217C0BFA01F061680843606084F800
:1015000000A02FE0207C2E49854060685422A8432B
:1015100060608031384605F037FD08BB0420E66185
:101520001DE027495822D831384605F057FDB8B993
:1015300023495422803101F15800FFF7DBF978B9D3
:101540001F48D830406D401C34D11D490422D4318D
:1015500007F1540005F018FD10B90520E66100E020
:1015600028E02070032043E715495822D831384637
:1015700005F034FDF0B912495822803101F15800CC
:10158000FFF7B8F9B0B90E48D83006F0A7FD88B11A
:101590000B48402240300099FFF77EFAD8F8080047
:1015A000A0602069E060657084F8029084F8009083
:1015B00002201DE7BDE8F84F02F000B990000020BE
:1015C0000451002000E0FF00494C4350544D4F436C
:1015D00004500020214A10B5002102F1400300BF51
:1015E00000EB810494ED000A02EB8104D4ED000AC3
:1015F000B4EEE00AF1EE10FA2DD303EB8104D4ED42
:10160000000AB4EEE00AF1EE10FA24DC491C1029BD
:10161000E6D390ED090AFCEEC00A10EE901A89B2EA
:1016200000EE901AF8EE600AB4EE600AF1EE10FADD
:1016300011D190ED0A0AFCEEC00A10EE900AC0B279
:1016400000EE900AF8EE600AB4EE600AF1EE10FACD
:1016500001D1012010BD002010BD0000C4A600086B
:1016600000680349884202D102490120087070478E
:1016700000100140180100202DE9F04118212948EF
:10168000FFF744FA284E0025A6F18004F561356283
:1016900065857562B562A57125726572A5726584EE
:1016A000E5706571E5719FED210A84ED110A84ED05
:1016B000120A84ED130AE572012727730320E084E0
:1016C0002776657684ED1C0A84ED1D0AF0EE000A8B
:1016D000C4ED1E0AF6EE000A1248C4ED1F0A86ED9C
:1016E000000A14211438FFF711FAA576E57625775C
:1016F0006577A577756000F0B5FB02F013FFF06029
:10170000F068C4E917500A4890F82000022802D077
:10171000082001F0B1FE65702770BDE8F04100F0CF
:101720005DBA0000945D00209801002000000000D8
:101730002802002070B50E4600681B49884231D14E
:101740001A4C207800282DD18815864202D90646E9
:10175000002501E000251FE01548002200F58073F8
:10176000415D0D2908D00A2906D0608C3F2810D28F
:101770001954401C60840DE0608C58B11A54628486
:1017800002F0D0FE09498031C8600A4800F02AFC06
:1017900000E062846D1CADB2B542DDD3BDE870409F
:1017A00000F080BA70BD0000001001401801002058
:1017B0004C5900204C5A00202DE9F0432DED028BAE
:1017C000ADB002F0AFFEF04C0546206E281A04F0D2
:1017D000C1FD256600F044FA01F088FB05F08EFAA1
:1017E00004F010FF002510B1E57100F0C3FA00F01D
:1017F000F5F901F051FC01F0B9FB02F093FEDFF8BE
:10180000889309F18009D9F80C10E04F401AFF269F
:10181000B0F57A7F1AD9FD75FD7225776577A576C3
:1018200006F0CCFC20B9607A18B1607A062800D89E
:101830006672E07910B1E57100F09CFA607EA17FDC
:10184000084303D06576A57701F08AF8EFF310809E
:1018500072B6E178E5704FF0010821B184F8048098
:10186000E571257200E0257100B962B671B1FD75B0
:10187000FD722572E5716672A57200F07BFA6576DD
:10188000A577A576657701F06BF82571607940B191
:1018900025726571E5716672A57200F06BFA05F04C
:1018A00093FAA079A8B1EFF3108072B6D4ED0E8A46
:1018B00094ED0F8AA571E57125726672A57200B963
:1018C00062B600F057FAF0EE480AB0EE680A05F08A
:1018D00047FA01F065FA01F0EDF801F029F901F09D
:1018E000CDFA01F003FB01F051F801F073F901F0BA
:1018F000BDF91DA800F0F8F902F014FE01461DA87C
:10190000FFF740FD022802D0042802D009E0112090
:1019100005E094F8210020B984F82180122001F01C
:10192000ABFDDFF86C8298F8410020282CD1207D97
:10193000617D984E88426BD0217D06F16400415C48
:10194000072926D0217D415C1A294BD0217D415C9D
:10195000142955D0217D405C8F4951F820603046D4
:10196000FEF7F4FF85B22A4631468A48FFF70DF8A4
:101970002A468849864804F0ADF9002804D1207D24
:10198000401C00F00F0020752DB0BDEC028BBDE8AF
:10199000F08382A17F48D1E9002140387D4DC0E924
:1019A00010217D49002074358C314FF0200C227DB0
:1019B00005EB8202125C01EB121302F00F021F789A
:1019C00000EB40033344401C1F728A5C5A72C0B261
:1019D00083F80AC00428EAD30D20F0740A20307579
:1019E0001525C5E7207D694900EB4000D43901EB9E
:1019F00080026421674800F0C9F90500BFD0B7E74D
:101A0000207D644900EB4000B43101EBC006A6E73D
:101A1000E07C0028B8D1EFF3108772B614225B493E
:101A200018A81439FFF738F807B962B65E4A5F495B
:101A30005F4804F0D7FB5E48D0ED001A5B4890ED9C
:101A4000002A5C4890ED001A5B48D0ED000A9FED3B
:101A50005B0A554861EE801A21EE001ACDED001A9E
:101A600062EE001A20EE800ACDED011AD0ED001AC8
:101A70005348CDED021A8DED031A8DED040A90ED59
:101A8000000A50488DED050A90ED000A4E488DED94
:101A9000060A90ED000A4D488DED070A90ED000A08
:101AA0004B488DED080A90ED000A4A488DED090A71
:101AB00090ED000A48488DED0A0A90ED000AB8EE54
:101AC000C00A8DED0B0AE08C00EE100AB8EE400A59
:101AD0008DED0C0A9DED190A8DED0D0A9DED1A0A8A
:101AE0008DED0E0A9DED1B0A8DED0F0A9DF861002C
:101AF00000EE100AB8EE400A8DED100A9DF8700055
:101B000000EE100AB8EE400A8DED110A9DF8710042
:101B100000EE100A0020B8EE400A8DED120A94ED96
:101B20001C0A8DED130A94ED1D0A8DED140A94ED37
:101B30001E0A8DED150A94ED1F0A8DED160A99ED1A
:101B4000000A8DED170A694651F8203046F820301A
:101B5000401C1828F8D306F8605F80207570B070BC
:101B60007F20F07098F8410020287FF40DAF6422A8
:101B70000849074804F0AEF800283FF405AF606B51
:101B8000401C606300E7000018010020945D002005
:101B9000E00200208C5A002024C900085A44542036
:101BA00052583A2000000000100200200C020020D1
:101BB00008020020180200201C020020CDCCCC3DE1
:101BC00020020020EC010020F0010020F4010020A0
:101BD000F8010020FC010020A85E002038B51C4C54
:101BE0002078002833D060781A4D90B995F84100DC
:101BF00020282CD11849284603F0F9FF002826D1C7
:101C0000164A0421284603F0B7FF00281FD10120FF
:101C10006070E86B02F000FA052818D00D4803F058
:101C200088FC002813D1E86B02F0F6F9012804D0F3
:101C3000E86B02F094F9002809D1286800210268B5
:101C4000406800906184BDE8384000F02BB838BD92
:101C500018010020E0020020351700086116000876
:101C600070B502F05FFC0D4991F8411000250C4C55
:101C700020290DD0A17869B1E16A401A642808D3FF
:101C8000064803F0A1FC002803D1206B401C206310
:101C9000A57070BD0121A170E06270BDE00200205E
:101CA0001801002070B5EFF3108472B600200B4DC0
:101CB00028704FF480720A490A4803F0F6FB28B1F5
:101CC00001202870002C00D162B670BD0548C06BA1
:101CD0000068016821F008010160F3E718010020A5
:101CE0004C590020E002002070B50446EFF3108547
:101CF00072B600201D4900BF01EB0012526892ED40
:101D0000000A04EB8002401C82ED000A0728F3D38E
:101D100004F12001081F04F0B1FD1548C18C00EE4C
:101D2000101AB8EE400A84ED090A017E00EE101A7E
:101D3000B8EE400A84ED0A0A90ED1C0A84ED0B0A05
:101D400090ED1D0A84ED0C0A90ED1E0A84ED0D0A3B
:101D500090ED1F0A803084ED0E0A90ED000A002DF0
:101D600084ED0F0A00D162B670BD000054C80008AF
:101D7000180100200448017B09B1807B08B104F000
:101D8000FFB904F0F1BA0000180100202DE9F84372
:101D90000D46117880461746B9B11C23002D4CD052
:101DA0007878062813D0082847D2917800912449E2
:101DB00051F8202029464046FEF762FB00283CDD12
:101DC000A8423ADA80B2BDE8F8832323E6E769B196
:101DD0004FF4007000901BA229464046FEF750FBCE
:101DE00004002AD4AC4228DA002612E04FF48070B6
:101DF000F0E7B819291B0379894608EB040017A2FC
:101E0000FEF73EFB002818DB814516DD761C0444F6
:101E1000F6B2F878B04201D9082EEAD3A01CA84245
:101E20000BDA0D21601C08F804100A2208F80020C3
:101E30000022A01C08F80020C0E70020C3E7000033
:101E400090C900085325752052582043414E3D2526
:101E500030345820444154413D0000002530325870
:101E60002000000010B590B06846FFF73DFF6846BF
:101E7000FFF708FA264C04280AD0002184F8211024
:101E800001280AD05FF0100001F0F6FA10B010BD82
:101E9000012184F821101220F6E71E4A002069462D
:101EA00001EB800393ED000A02EB0013401C5B681A
:101EB000072883ED000AF3D3DDED080A9DED070A3C
:101EC00004F04EFF9DED090ABCEEC00A10EE100AA8
:101ED000E0849DED0A0ABCEEC00A10EE100A2076DE
:101EE0009DED0B0A0A4884ED1C0A9DED0C0A80301A
:101EF00084ED1D0A9DED0D0A84ED1E0A9DED0E0A6E
:101F000084ED1F0A9DED0F0A80ED000A0F20BBE74C
:101F10001801002054C8000810B59FED300ADFED0D
:101F2000300AB7EE001A0022C8B3C1B300E0401C6B
:101F30000378202BFBD0092BF9D0DCB22D2C02D05A
:101F40002B2B02D002E0BFEE001A401CB2EE042A96
:101F50000378303B092B0CD801EE903AF0EE402A82
:101F60000122F8EEE11A401CB0EE610A02EE820A8C
:101F7000EEE703782E2B14D1B0EE602A09E000BF03
:101F800001EE903A0122F8EEE11A01EEA00A60EEAD
:101F9000820A10F8013F303B092BF1D901E015E02E
:101FA000401C0378202BFBD0092BF9D072B1B5EE81
:101FB000C00AF1EE10FA09D310EE102AB2F1FF4F69
:101FC00004DA13F0FF0F03D02C2B01D0002010BD3A
:101FD00021EE000A012081ED000A10BD0000000082
:101FE000CDCCCC3D2DE9F04786B0044600E0641C22
:101FF00020782028FBD00928F9D0F74890F8200055
:1020000001270026022814D00222F4A1204601F064
:1020100006FA002869D00322F1A1204601F0FFF959
:10202000002862D00322EFA1204601F0F8F9002831
:102030005BD0204600F0FAFA002859D1EAA12046E8
:1020400001F0D0F9EA4D002851D0EAA1204601F074
:10205000C9F900284CD0E9A1204601F0C3F90028B5
:1020600049D0E8A1204601F0BDF9002845D0E7A1FC
:10207000204601F0B7F9002843D0E6A1204601F040
:10208000B1F900283DD0E5A1204601F0ABF90028C8
:1020900039D00A22E3A1204601F0C1F978B3E4A1C6
:1020A000204601F09FF958B30422E3A1204601F035
:1020B000B6F9D8B3E2A1204601F094F9B8B3E2A191
:1020C000204601F08FF998B30722E2A1204601F0E3
:1020D000A6F970B30422E1A1204601F0A0F948B3AB
:1020E000687CA946002871D192E009208DE0EF704C
:1020F00006B0BDE8F0876F71FAE7AF76F8E704E065
:1021000019E0EF76F4E72F77F2E7694604F10A0069
:1021100000F04AFA0028EBD09DED000A85ED0E0A8A
:102120009DED010A85ED0F0AAF71E1E705E008E0DA
:1021300009E00BE02FE0EE74DAE7201D00F05CFB15
:10214000D6E7EF72D4E70220E872D1E714F8070F60
:10215000A0F13001072901D2617809B1172054E0BC
:10216000302805D001F076F9E0B1E87860B903E0F5
:10217000FF206872162048E0687928B9A87918B954
:10218000687C08B9287C08B118203EE020783038F7
:102190006872152039E0EF7401F05CF910B1E8784D
:1021A00090B901E00A2030E0687968B9A87958B997
:1021B000687C48B9287C38B906F000F820B9687AFC
:1021C00028B1687A062802D801201EE02CE0694672
:1021D000201D00F0B1F9B8B1BDF90020012A13DBD0
:1021E000042A11DCBDF9041001290DDB05290BDCE3
:1021F000EE712E727E4896300280BDF80220428039
:1022000081802F74002000E0022001F035F96FE793
:1022100099F810004D4638B905F0D0FF20B9687A1A
:10222000B8B1687A062814D807228EA1204601F09A
:10223000F6F8002884D005228CA1204601F0EFF8A2
:102240000028E4D009228BA1204601F0E8F80028FC
:10225000DDD0072283A1204601F0E1F838B1002744
:10226000042287A1204601F0DAF818B325E099F896
:1022700003004D460028CAD168790028C7D101F073
:10228000E9F80028C3D06946E01D00F055F90028A0
:10229000BDD05748BDF8001090300180BDF8021045
:1022A0004180BDF80410818002F03CF92865EE7190
:1022B0002F721DE720793D2806D009226DA1204606
:1022C00001F0ADF810B10BE1651D02E004F1090564
:1022D0000127EDB300960196029634462878EA4627
:1022E0004FF003080026D0B91BE003A92846FFF7EA
:1022F00013FE00288BD00AEB86009DED030A761CA6
:1023000080ED000AF6B200E06D1C287848B12C2858
:10231000FAD115F8010F0028CBD04645C9D0464563
:10232000E3D3022EC5D301F095F80028C1D099F867
:10233000031048460029BCD141790029B9D18179DF
:102340000029B6D1032E0AD34F4A0299914200E0E8
:10235000C6E002D84D4A914201DD0C2055E74C49B8
:102360009FED4C0A009A8A4201D98DED000A4A4A33
:10237000DFED4A0A009B934201DDCDED000A019B8F
:102380008B4201D98DED010A0199914201DDCDED1C
:10239000010A9DED001AF2EE040AB6EE000AB5EE4F
:1023A000C01AF1EE10FAF0EE401A02DB41EE201AEC
:1023B00001E051EE201ABDEEE11AB8EEC11A8DED22
:1023C000001ADDED011AF5EEC01AF1EE10FA67DB26
:1023D00001EEA00A66E063E028020020444D000000
:1023E000533238005333350053544F50000000002F
:1023F0001801002050494E47000000005A45524F36
:1024000000000000444D454E00000000444D4F4682
:1024100046000000444D53544F500000444D5A456F
:10242000524F00004F50534F46465345543D000015
:10243000564F464100000000474554200000000070
:10244000574845454C454E00574845454C4F464634
:102450000000000056545241434B3D005A44543D45
:10246000000000004D414E55414C3D00474F544F38
:102470003D000000474F544F484F4C443D00000082
:10248000474F544F00000000000061C50000614547
:10249000000096C3000096C30000964300009643D8
:1024A00011EEA00ABDEEC00AB8EEC00A8DED010A19
:1024B000047280ED111A80ED120A032E02D39DEDF5
:1024C000020A02E01B4991ED000A80ED130A016C3B
:1024D000491C01640FB1022100E00121C17107E62E
:1024E0003D212046FEF7FCF90500F8D02E702C2186
:1024F000681CFEF7F5F90028F1D104A9681CFFF764
:102500000BFD0028EBD02078442801D0642804D1AA
:1025100060784D2807D06D2805D09DED040A20462F
:1025200000F0FAFEE4E59DED040A204600F00AFE04
:10253000DEE5000010020020F0B50023057801243C
:1025400000222D2D02D02B2D02D002E04FF0FF34BF
:10255000401C0578303D0A2D1ED26FF02F064FF437
:1025600096770578A5F1300CBCF1090F08D802EB7D
:10257000820206EB42022A44401CBA42F1DD0BE023
:10258000624321F81320022B04D210F8012B2C2ACD
:1025900002D103E002780AB10020F0BD5B1CDBB27F
:1025A000032BCBD30120F0BD2DE9F0410F460446AB
:1025B00000252278002120462B2A01D02D2A03D184
:1025C000441C01E00121641C2278303A092AF9D91F
:1025D00022782E2A07D100BF14F8012F303A092A99
:1025E00001D80121F8E779B107EB85010E46FFF725
:1025F00093FC48B10B493068884205D80A498842A3
:1026000002DC25B1207830B10020BDE8F08114F85B
:10261000010B2C28F8D16D1CEDB2022DC9D301207D
:10262000F3E700000000FAC30000FA43FEB50546D8
:1026300003224EA100F0F3FE38B103224CA128463C
:1026400000F0EDFE18B10020FEBD002400E00124E2
:10265000ED1C48A1284600F0C5FE484F0026D8B121
:1026600047A1284600F0BEFEF8B147A1284600F079
:10267000B9FEE0B146A1284600F0B4FEB8B105228B
:1026800044A1284600F0CBFEE8B1042243A128462D
:1026900000F0C5FE90B361E004EB440007EB80005E
:1026A000C67200231A4601215BE0012505E036A130
:1026B000284600F097FE20B1052502960196009667
:1026C00037E00425F9E702226946681D00F06AF840
:1026D000F0B300989CB140F27D61A0F5966088420D
:1026E0003CD20198022839D341F21E61884235D884
:1026F000029000980225CDE900601AE009E0A0F5FB
:10270000D770B0F5C86F29D8019808B3642825D8C8
:10271000EEE703226946281D00F044F8C0B1009896
:1027200001281BD8029898B140F6B831884215D8D4
:10273000032504EB440007EB80060099B172019970
:1027400047F820100298308101F0ECFE706000E044
:1027500004E0F57200231A46194602E000231A46E7
:102760000221204600F008FE0120FEBD5333350053
:102770005332380043414E43454C0000945D0020E5
:10278000484F4D450000000053544154555300003C
:10279000454E00004D4F56453D0000005241573D0B
:1027A00000000000F0B500231DE0002426460A27A3
:1027B0000AE0EE43B6FBF7F6A64218D304EB840416
:1027C000012605EB4404401C0578303D092DF0D965
:1027D0006EB141F823405B1C934203D204782C2C49
:1027E00005D1401CDBB29342DFD3007808B1002052
:1027F000F0BD0120F0BD00002DE9FC470D26544F2F
:102800008046002507EB05144046216800F0EAFDEC
:1028100038B16D1CB542F5D3132000F02DFEBDE894
:10282000FC87EFF3108972B6DFF828A19AF81550EB
:102830009AF81400691C01F00F0686427ED04649C2
:1028400005EB450001EBC003002002E01954401CD9
:10285000C0B22168095C09B10C28F7D33D21195495
:102860006168401CC0B291ED000AB5EEC00AF1EEFD
:1028700010FA02DBF6EE000A01E0FEEE000A9FED20
:10288000371A40EE010ABDEEE00A10EE101A0029D8
:1028900004DA2D221A54401CC0B249424FF47A7215
:1028A00091FBF2F791FBF2F402FB171700210A22C9
:1028B000EC4624B930218DF8001001210FE094FB83
:1028C000F2F802FB184894FBF2F408F130080CF817
:1028D0000180491CC9B24CB10829F0D306E0491E59
:1028E000C9B21CF801401C54401CC0B20029F6D1EA
:1028F0002E211954642197FBF1F191FBF2F402FBB4
:102900001414191830344C7097FBF2F494FBF2FC59
:1029100002FB1C4430348C7097FBF2F402FB1474FD
:102920003034001DCC70C0B20D2119541844002160
:102930004270817008491420503900E002E0485587
:102940008AF81560B9F1000F7FF469AF62B666E7E7
:1029500054C8000818010020405B002000007A44A1
:1029600070B5094C0025A5776576E07F00280AD16F
:10297000E08C208501F0D6FD04F180018860012003
:10298000E07784F8205070BD180100202DE9F04157
:10299000474CE07E002520B1E5766577A576FFF708
:1029A000DFFFE07F94F82010084314D1A07F0228B5
:1029B00011D0617F09B9A17E69B1617E014301D166
:1029C000A07E08B1012600E00026FFF7C9FFA67629
:1029D00065770220A077364EE07F0127803690B1E0
:1029E000208D00F0BCFDA0B101F09CFDB168401A43
:1029F000B0F57A7F07D3E57784F820706577A57600
:102A00000D2000F039FDE07F94F82010084302D03B
:102A100011E0E577F7E7A07F02280CD1217EE08C5A
:102A200000F07AFE38B9A07E00B10120A077A5762B
:102A300001F078FD7060207F48B1E07F38B994F8EC
:102A4000200020B9E08C00F091FE00B92577A07F2E
:102A500001280ED1E07F60B994F8200048B901F058
:102A600061FD7168401A642803D3E08C00F07AFDA0
:102A700070B1607E002819D0207E01280BD0D4EDE3
:102A80001D0A94ED1C0AE08CBDE8F04100F00ABE7E
:102A90006776A577F0E704F1700096ED002A90ECD8
:102AA000040AE08CBDE8F04100F08ABDBDE8F08189
:102AB0001801002070B51C4CE079002833D000F0DC
:102AC000C9FC002568B1C82003F02AFF70B1EFF3FC
:102AD000108072B604F14401266C91EC030A38B1FF
:102AE00007E0E571BDE8704003F04ABBE57116E010
:102AF00062B6DFED0E1A03F08FFBEFF3108172B6B2
:102B000048B1E079012805D1206C864202D101202C
:102B1000E57100E0002001B962B6002803D0BDE8ED
:102B20007040FFF727B970BD1801002000000000B9
:102B30002DE9F041EFF3108672B6DFF8948098F833
:102B4000087008F19000018861F30F0441888088C3
:102B500061F31F4460F30F0587B101F0E3FCD8F87F
:102B600050204146801AB0F5AF7F07D90020087287
:102B700060F31F4460F30F0560F30F0406B962B6FB
:102B8000002F23D000F066FC10B120B220B107E086
:102B9000BDE8F04103F0F4BA211401D129B289B1A2
:102BA00029B200EE101A2114BDE8F041B8EEC01AA7
:102BB00000EE101AF8EEC00A00EE100AB8EEC00AD5
:102BC00003F0A2BBBDE8F04103F0CEBBBDE8F0814D
:102BD00018010020F0B5244E002485B02746A6F148
:102BE0007205DCB14FF40070694604F079FD10B352
:102BF00056F82410009888421DD046F824006B46F1
:102C000000220621204600F0B7FB9DF808000328AB
:102C100011D302A9405C6B2803D00CE04FF4807004
:102C2000E2E79DF80900295D884216D018B99DF8A1
:102C30000A00EE2811D0285D80B101F073FC0A492A
:102C4000083151F82410401AB0F5FA7F06D32A5DF6
:102C500000230721204600F08FFB2F55641CE4B2AF
:102C6000022CBED305B0F0BDB40100202DE9F84F11
:102C7000DFF82481002400BF4FF00109EFF3108733
:102C800014B34FF4007000BF4FF0000A009072B60A
:102C900004EB440B08EB8B064546F07A70B101F06B
:102CA00041FC7168401AB0F57A7F07D90020F072B4
:102CB000034602460521204600F05EFBF07AA0B3F1
:102CC0003648005D88BB02E04FF48070DCE7F07AA4
:102CD00001280CD0F07A02280FD0F07A03281AD0FD
:102CE000F07A042822D0F07A052825D02FE04FF082
:102CF0009A0A009803F06CFC23E04FF0FD0A2CB117
:102D0000318955F82B0003F0C6FB1AE029892868A1
:102D100003F0E5FB15E033894FF0FD0A55F82B2051
:102D2000B07A009903F0FEFB0BE01BE04FF03A0A8B
:102D3000009804F039FD04E04FF0F30A009804F025
:102D4000B3FC5FEA00090FD0B9F1020F0AD00023EB
:102D500052460421204600F00FFBB9F1020F01D0CA
:102D60000020F07287B110E00C4901F804A001F0D6
:102D7000D9FB0A4900237A31524641F82400032145
:102D8000204600F0F9FAEBE762B6641CE4B2022CCC
:102D9000FFF472AFBDE8F88F945D0020420100207F
:102DA000FEB5EFF3108072B6324C667A002565727C
:102DB00000B962B6FF2E06D0C6B100F04BFB90B151
:102DC000607C80B907E005F0DDFAA07A08B1FEF773
:102DD000D1FFA5720AE0207C28B9E07818B96079A3
:102DE00008B9A07958B1182000F046FB05F0E6F9C3
:102DF000C0B100F02FFB70B1E07860B907E0E57179
:102E00002572FEF7B7FF304605F0A6FAE1E76079D4
:102E100008B9A07930B105F0B5FAA07A08B1FEF78B
:102E2000A9FFA57205F0CAF9064601F07BFB6946C9
:102E300005F0CAF92EB105F0C1F910B9192000F05A
:102E40001BFB05F0BBF958B19DF8080060B19DEC83
:102E5000020A9FED091A03F057FA0120A072FEBD85
:102E6000A07A20B9A572FEBDA07A0028FBD0FEF79B
:102E700081FFF7E718010020000000002DE9F04174
:102E8000EFF3108072B6184CE67A0025E57200B9AF
:102E900062B60127A6B1E5712572657205F08EF95B
:102EA00008B105F06FFAA57265732573E573A57314
:102EB00003F05AFA012E10D0BDE8F04103F074B9C6
:102EC000607B002807D001F02DFB616D401A64285B
:102ED00001D365732773BDE8F08103F074F901F045
:102EE00021FB60656773F6E7180100202DE9F041CA
:102EF00005F058FD1C4C0025E16D884219D0A07BDF
:102F0000B8B90120E073A07301F00CFBA0656573F4
:102F1000257325746574E5712572657205F04EF9A7
:102F200008B105F02FFAA57203F02AF90E2000F07F
:102F3000A3FAE07B98B101273E46304605F000FD3C
:102F400000B10027761CF6B2042EF6D937B901F08D
:102F5000E9FAA16D401AB0F57A7F00D3E57305F068
:102F600021FDE065BDE8F081180100202DE9F8435E
:102F7000EFF3108072B6474CE2782AB962791AB939
:102F8000A2790AB9E27A02B10122277C414B963339
:102F90001E8866F30F055E889B8866F31F4563F302
:102FA0000F014FF00009884684F8109001260FB1F8
:102FB00002B9667400B962B672B1657C0DB100F0F9
:102FC00073FA3D4302D0052000F056FA84F81190C0
:102FD00084F81690BDE8F8833FB3684605F02EFDEF
:102FE0000028FAD1A675F620E07501F09BFA0126BB
:102FF000EFB2E066B742304602D105F01CFE01E0B8
:1030000005F09EFC761CF6B2042EF3D9A7742914A1
:103010003846A1844FF47A7318FB03F2A26608D0F5
:1030200005F0A6FC01F07EFA6066607C012806D0FF
:103030001FE000F039FA042000F01EFACAE701F0A0
:1030400071FA616E401A642813D3B4F92400002881
:1030500001DA414200E001468AB2C10F6423A07C3C
:1030600005F0C8FD01F05EFA60660220607403207E
:103070000CE0607C0228ADD101F054FA616E401A78
:10308000A16E8842A6D300F00FFA0420BDE8F843F1
:1030900000F0F2B918010020F8B505F057FD05F071
:1030A00077FD0025254C34E088B19DF80000A17C17
:1030B00088420CD19DF80100E17D884207D19DF83E
:1030C0000200A575022802D00B2000F0D5F9E07CA3
:1030D000F8B1EFF3108172B6607D401C00F00F0272
:1030E000207D824213D0164E00206B46677D13F878
:1030F00000C006EB870707F800C0401CC0B20428D8
:10310000F4D30F4B0720667D103B9855627501B9CB
:1031100062B6684605F092FC0028A07DC4D1002864
:103120000AD001F0FFF9E16E401AB0F5FA7F03D33F
:10313000A575062000F0A0F9F8BD000018010020D8
:10314000005B002070B505462DED028BB0EE408A85
:1031500057A100F047F9FCEEC88A574C48B357A175
:10316000284600F03FF9E8B356A1284600F03AF9A6
:10317000C8B356A1284600F035F9A8B355A1284692
:1031800000F030F9DFED558A78B355A1284600F0FC
:1031900029F958B354A1284600F024F900281ED17B
:1031A00018EE100A524A5349904276D9BAEE048A70
:1031B00079E0607EA17F0843E17F084394F8201006
:1031C00008430CD118EE100AB0F17E5F07DB18EE51
:1031D000100A4949884202DC18EE900AE084BDECEE
:1031E000028B70BD03E00FE020E031E042E018EE1A
:1031F000100AA0F17E50B0F5000FF0D818EE900A3A
:10320000207601206077EAE718EE100A3B4A3C4935
:10321000904202D9BAEE098A05E018EE100A8842F7
:1032200001DDB2EE098A84ED1C8AD8E718EE100A97
:10323000344A3549904202D9BBEE0E8A05E018EEB9
:10324000100A884201DDB3EE0E8A84ED1D8AC6E7BE
:10325000B5EEC08A2D49F1EE10FA02D2B0EE688ABE
:1032600005E018EE100A884201DD9FED298A84ED01
:103270001E8AB4E7B5EEC08A2649F1EE10FA02D2F2
:10328000B0EE688A05E018EE100A884201DDB1EE62
:10329000048A84ED1F8AA2E7FFE718EE100A88422D
:1032A00001DDB2EE048A0448803080ED008A96E7A2
:1032B000444D49440000000018010020444D4D4F8A
:1032C00044450000444D504F53000000444D5645C6
:1032D0004C000000444D4B50000000000000000076
:1032E000444D4B4400000000444D544F5200000038
:1032F000000020C10000204100E0DF44000048C180
:10330000000048410000F0C10000F0410000FA4315
:103310000000FA430000A0402DE9F0410D262DEDFC
:10332000028BB0EE408A134D0746002405EB0410D3
:103330000168384600F056F830B1641CB442F5D349
:10334000BDEC028BBDE8F08105EB041090ED020AA4
:10335000B4EEC80AF1EE10FA06DC90ED030AB4EE02
:10336000C80AF1EE10FA01D2B0EE408A406880ED52
:10337000008AE5E754C80008F0B5EFF3108672B68E
:10338000154C657D6D1C05F00F07257DAF421FD0E4
:10339000657DDFF848C005EB45050CEB85054FF072
:1033A000000CC5F800C0C5F804C0C5F808C02870F6
:1033B0006970AA703BB1187AE870D3F809006860A8
:1033C000D3F80D00A8600649627D1A2088546775FD
:1033D000002E00D162B6F0BD18010020C05C0020B4
:1033E000F05A002010B50FE0A3F16104192C01D8A8
:1033F000203BDBB2A2F16104192C01D8203AD2B2F1
:1034000093420AD1401C491C03781BB10A78002A58
:10341000EAD102E00878002800D0012010BD70B584
:10342000002511E0435D4C5DA3F16106192E01D822
:10343000203BDBB2A4F16106192E01D8203CE4B296
:10344000A34205D123B16D1C9542EBD3002070BD82
:10345000012070BD0748017B39B1417B29B9817BCF
:1034600019B9C17A09B9007908B100207047012063
:10347000704700001801002030B5EFF3108172B6DC
:10348000074A537D147D5B1C03F00F03A34203D056
:10349000044C557D60555375002900D162B630BD8E
:1034A00018010020F05A002010B5054CA07C05F052
:1034B000C2FBFEF75FFC00206074A07510BD000029
:1034C000180100202DE9F0410E460500144602D0F7
:1034D0000CB1062E02D20120BDE8F0811421104665
:1034E000FDF714FB2878F2EE090A00F00F002070B7
:1034F0002878BAEE090A00096070E978B5F8010089
:103500000A01297940BA42EA11186A7901F00F01DB
:1035100042EA0127102100F02DF984ED010A0C2167
:10352000F3EE0E0ABBEE0E0A404600F023F984EDDE
:10353000020A0C21F2EE040ABAEE040A384600F040
:1035400019F984ED030A062E01D9A8792074072EF3
:1035500001D9E87960740120A0740020BCE7FD2146
:1035600000F0B8B8FC2100F0B5B8B0B1102814D8FC
:10357000B4EEE01AF1EE10FA0FD901218140491E94
:1035800001EE901A31EE602AB4EEE00AF8EE612AFC
:10359000C2EE821AF1EE10FA01D800207047B4EEA4
:1035A000C10AF1EE10FA01DB88B2704730EE600A12
:1035B00020EE210ABCEEC00A10EE100A80B270475D
:1035C0002DE9F04180462DED048B82B0F0EE428A69
:1035D000B0EE619AF0EE419AB0EE608AB0F5E06F1D
:1035E00053D21020B2EE091AFAEE090AFFF7BDFF16
:1035F00007460C20B3EE0E1AFBEE0E0AB0EE480A98
:10360000FFF7B3FF9FED258A06460C209FED221A97
:10361000F0EE480AB0EE690AFFF7A7FF05460C2056
:10362000B1EE041AF0EE480AB0EE490AFFF79DFF2A
:1036300004460C20B2EE041AFAEE040AB0EE680A50
:10364000FFF793FF390A8DF800108DF801703109EA
:103650008DF80210C5F3032141EA06118DF803101D
:103660008DF8045021098DF80510C0F3032141EABB
:1036700004118DF806108DF8070008236A464146AC
:103680000748FDF7A9FC002800D0012002B0BDECDE
:10369000048BBDE8F08100000000FA430000000048
:1036A000280200201CB500F5807189B2B0F5E06FEA
:1036B0000BD2B1F5006F08D208236A4604488DEC9E
:1036C000020AFDF789FC002800D001201CBD000083
:1036D000280200201CB5B0F5E06F18D2FF228DF84B
:1036E00004208DF805208DF800208DF806208DF837
:1036F00001208DF802208DF807108DF80320014677
:1037000008236A460348FDF767FC002800D0012023
:103710001CBD0000280200201CB5B0F5E06F20D2CF
:10372000012901D002291CD18DF80000000A8DF872
:10373000010055208DF802000A208DF803008DF855
:10374000041000208DF805008DF806008DF80700A4
:1037500008236A4640F2FF710348FDF73DFC00284C
:1037600000D001201CBD000028020020FE21FFF730
:10377000B1BF000031B1102904D8F4EEC00AF1EE57
:1037800010FA02D89FED0B0A704701EE900A012251
:1037900030EEC01A8A40521EF8EE611A00EE902AEE
:1037A000F8EE600A21EE811AC1EE201A31EE800A8D
:1037B000704700000000000072B6FEE702490620D4
:1037C00008700420704700009000002090F820202E
:1037D000012A07D0022A05D0416A41F480214162C2
:1037E00001207047006842690A4342610020704727
:1037F000F0B590F820500468A468012D05D0022D82
:1038000003D0416A41F4802157E014F0406F01D1A8
:10381000E5004FD5C4F301640125A5401D608D6806
:103820004FF4C0739DB1CE6835434E6845EAC60576
:10383000066803EB0417F5514FF4C275076805EBF2
:1038400004150E697E51097D012905D009E00E8815
:10385000CD6845EA4655EBE701684E5946F4807657
:103860004E511179D579567941EA056195792D0442
:1038700045EA062529434FF4C676056806EB04168B
:10388000A9511178D57841EA0561957852782D04CF
:1038900045EA022211434FF4C475026805EB041592
:1038A0005151006803EB0411425842F001024250AA
:1038B0000020F0BD416A41F4001141620120F0BDD9
:1038C00010B590F82020012A07D0022A05D0416ABD
:1038D00041F480214162012010BD3B48D0F8002214
:1038E00042F00102C0F80022D0F8002222F47C52FB
:1038F000C0F80022D0F800224B6A42EA0322C0F846
:1039000000220A7D02F01F0301229A40D0F81C32E7
:103910009343C0F81C32CB69B3B9D0F80C3293434F
:10392000C0F80C328C894B6864F31F434C6900EB80
:10393000C404C4F840320C890B6864F31F434C691B
:1039400000EBC404C4F84432CB69012B16D1D0F883
:103950000C321343C0F80C320C884B6864F31F43DD
:103960004C6900EBC404C4F840320C89CB6864F3A2
:103970001F434C6900EBC404C4F844328B69002B2C
:10398000D0F804320ED01343C0F804320B69002B78
:10399000D0F8143208D01343C0F81432096A012950
:1039A00004D008E09343EFE79343F5E7D0F81C1207
:1039B0001143C0F81C12D0F8001221F00101C0F828
:1039C0000012002010BD000000640040704770B578
:1039D00090F82040012C05D0022C03D0416A41F41C
:1039E000802128E0046809B32469A40720D04FF49B
:1039F000D874056804EB01142D5915F00405956081
:103A000005682D591AD0ED08556005682C5904F049
:103A10000204D4604FF4DA74056804EB01142E59E3
:103A200006F00F06082E0CD308250DE0E468DCE74D
:103A3000416A41F400114162012070BD6D0D1560B5
:103A4000E3E72D5905F00F05156105682D59C5F3FC
:103A50000725956105682C59240C54614FF4DC72DC
:103A6000046802EB0112A4581C700468A458240ACC
:103A70005C700468A458240C9C700468A258120E50
:103A8000DA704FF4DE72046802EB0112A4581C7164
:103A90000468A458240A5C710468A458240C9C711E
:103AA0000468A258120EDA71006829B1016941F068
:103AB00020010161002070BDC16841F02001C1609A
:103AC000F8E70246002092F82010012901D00229CF
:103AD0000CD111688A68520100D501208A68120150
:103AE00000D5401C8968C90000D5401C70472DE9ED
:103AF000F05F0546006800244669D0F804908768A6
:103B0000D0F80CB0D0F810A0D0F81880F10748D049
:103B1000F90714D001218160B80703D5284600F0C9
:103B200018FA0CE0780702D54FF4006407E0380774
:103B300002D54FF4805402E0284600F009FAF80557
:103B400016D529684FF480708860B80503D52846DB
:103B500000F001FA0CE0780502D544F4005407E0C7
:103B6000380502D544F4804402E0284600F0F2F91A
:103B7000F80316D529684FF480308860B80303D560
:103B8000284600F0EAF90CE0780302D544F400443A
:103B900007E0380302D544F4803402E0284600F000
:103BA000DBF9300707D55FEACB6004D52968102020
:103BB00044F40074C86070074FF0080707D55FEA47
:103BC0000B7004D52868C760284600F05FF9B0077D
:103BD00006D52868C068800702D0284600F058F94A
:103BE000700607D55FEACA6004D52968102044F43E
:103BF00080640861B00607D55FEA0A7004D52868BA
:103C00000761284600F074F9F00606D528680069B7
:103C1000800702D0284600F06CF9B00308D55FEAAF
:103C2000C96005D5296810204860284600F062F96F
:103C3000F00307D55FEA097004D528684760284675
:103C400000F08CF9300446D55FEA497040D5F005A4
:103C500004D55FEAC87001D044F00104B00504D572
:103C60005FEA887001D544F00204700504D55FEA6C
:103C7000487001D544F00404300529D518F0700FC0
:103C800026D008F07000402815D006DC102809D096
:103C900020280AD0302816D10AE050280ED06028FB
:103CA00011D10EE044F008040DE044F010040AE0E5
:103CB00044F0200407E044F0400404E044F08004B1
:103CC00001E044F480742868816921F07001816109
:103CD000296804204860002C05D0686A2043686287
:103CE0002846FFF773FEBDE8F09F70B5040003D0CF
:103CF00094F8200010B104E0012070BD204600F0CF
:103D000081F82068016841F00101016000F00AFCBF
:103D10000546052604E000F005FC401B0A2811D8E2
:103D200020684068C007F6D02068016821F00201D1
:103D3000016000F0F7FB05460BE000F0F3FB401BD1
:103D40000A2806D9606A40F40030606284F8206076
:103D5000D2E7206840688007EFD4207E01282068E1
:103D600001683DD021F080010160607E012820685B
:103D7000016838D021F040010160A07E0128206850
:103D8000016833D021F020010160E07E0128206825
:103D900001682ED041F010010160207F01282068C9
:103DA000016829D021F008010160607F01282068A6
:103DB000016824D021F004010160D4E90201084324
:103DC000D4E90412114308436168491E084321687D
:103DD000C86100206062012084F82000002070BDCE
:103DE00041F08001C0E741F04001C5E741F020010A
:103DF000CAE721F01001CFE741F00801D4E741F014
:103E00000401D9E710B586B0044614216846FCF7D2
:103E10007DFE1B492068884230D11A480021026883
:103E200042F000720260026802F0007205920268BD
:103E300042F080620260006800F0806005901148E6
:103E40001038026842F002020260006800F00200CE
:103E50000590602000900220CDE90101032003902D
:103E6000092004906946084800F05EFA0022052106
:103E7000402000F0F5FB402000F0E4FB06B010BD50
:103E800000680040403802400004024070470000D3
:103E900010B58AB0040022D01249206888421ED191
:103EA0006B4602AA00212046FFF791FD002816D19B
:103EB0000D490298086003984860049808720598B4
:103EC0004872069888720098C1F80B000198C1F8F2
:103ED0000F000649012008702046FDF721F80AB0BE
:103EE00010BD000000680040385900201401002077
:103EF000704770477047000070B5044690F8200086
:103F0000012804D0606A40F40020606218E00220BA
:103F100084F820002068016821F00101016000F0B0
:103F200001FB05460EE000BF00F0FCFA401B0A282A
:103F300008D9606A40F400306062052084F82000EF
:103F4000012070BD20684068C007EDD1606270BD7F
:103F500070477047704770477047704770472DE94A
:103F6000F0410446876D00F0DDFA064694F835000E
:103F70000025022806D08020606584F83450012096
:103F8000BDE8F0812068016821F016010160206819
:103F9000416921F080014161206C08B9A06C20B119
:103FA0002068016821F0080101602068016821F0A3
:103FB000010101600CE000F0B5FA801B052807D96B
:103FC00020206065032084F8350084F83450D7E75A
:103FD00020680068C007EED194F85C103F2088404C
:103FE000B860012084F8350084F834500020C7E719
:103FF00090F83510022903D08021416501207047D7
:10400000052180F835100068016821F00101016088
:1040100000207047406D704790F8350070470000F1
:104020002DE9F84304464FF00009CDF800906348AD
:104030004FF41651A56D0068B0FBF1F72E6894F8A7
:104040005C10082000FA01F131420FD021680A68A3
:1040500052070BD50A6822F004020A6094F85C103B
:104060008840A860606D40F00100606594F85C10C5
:104070004FF0010808FA01F0304208D02168496980
:10408000090604D5A860606D40F00200606594F8F0
:104090005C1004208840304208D0216809688907F4
:1040A00004D5A860606D40F00400606594F85C1071
:1040B00010208840304218D021680968090714D5BB
:1040C000A86020680168490304D50068000308D58A
:1040D000A16C07E00168C90503D4016821F008015B
:1040E0000160216C09B12046884794F85C102020BB
:1040F0008840304231D021680968C9062DD5A860B2
:1041000094F8350005282068016806D0490347D592
:10411000006800031DD4616C1CE021F016010160F1
:104120002068416921F080014161206C08B9A06CD0
:1041300020B12068016821F00801016094F85C104A
:104140003F208840A86084F8358084F83490216D41
:104150001FE0E16B09B120468847606D00282BD035
:10416000606DC00714D0052084F835002068016810
:1041700021F0010101600098401C0090B84203D872
:1041800020680068C007F6D184F8358084F8349040
:10419000E16C002910D001B02046BDE8F04308478B
:1041A0000168C905D5D4016821F01001016084F8C7
:1041B000358084F83490CCE7BDE8F88318000020FF
:1041C0002DE9F041044600F0ADF906465CB102204D
:1041D00084F83500002584F834502068016821F007
:1041E000010101600DE00120BDE8F08100F09AF9C5
:1041F000801B052805D920206065032084F8350040
:10420000F2E720680068C007F0D1226811682048F2
:104210000140D4E901031843D4E90336334318437A
:1042200063691843A3691843E3691843236A184371
:104230000843616A042903D1D4E90B1319430843E5
:10424000106020684069666A20F0070130460E431E
:10425000012704280CD1A06A0643E06A40B1204639
:10426000FCF7D0FF20B14020606584F83570BAE7D4
:10427000206846612046FCF7B1FF94F85C203F219E
:1042800091408160656584F835700020ACE70000DE
:104290003F8010F02DE9F0410446866D90F834001F
:1042A000002501280DD0012084F8340094F83570E1
:1042B0000020012F07D084F8340002252846BDE8ED
:1042C000F0810220FBE7022784F835706065204604
:1042D000FCF7C2FF94F85C103F208840B060206873
:1042E000016841F016010160206C20B1206801686E
:1042F00041F0080101602068016841F0010101609E
:10430000DCE7000070B5044600F00CF90546601CBF
:1043100002D004480078044400F004F9401BA04295
:10432000FAD370BD0C0000202DE9F84FDFF8BCA1D6
:104330000022012503264FF00F090AF1040BAAF110
:10434000040E00BF0B6805FA02F42340A34270D1AB
:104350000F7907F00307012F01D0022F16D18768CC
:104360004FEA420806FA08FC27EA0C07D1F80CC00D
:104370000CFA08FC4CEA070CC0F808C04768A743D1
:104380000C79C4F3001494403C4344600C79E4433A
:10439000A4070AD0C4684FEA420C06FA0CF7BC43E3
:1043A0008F6807FA0CF72743C7600C7904F0030401
:1043B000022C12D1D40800EB840CDCF82040570703
:1043C000FF0E09FA07F824EA0804D1F8108008FA69
:1043D00007F848EA0408CCF8208004684FEA420C49
:1043E00006FA0CF7BC430F7907F0030707FA0CF73E
:1043F000274307604C6814F4403F70D03C4C27685A
:1044000047F480472760246822F0030704F48044BF
:104410000094384C07EB040CDCF8084897074FEA87
:10442000177809FA08F7BC43334FB84202D1002786
:1044300024E054E0314FB84201D101271EE0304F53
:10444000B84201D1022719E02E4FB84201D103270B
:1044500014E02D4FB84201D104270FE02B4FB84292
:1044600001D105270AE02A4FB84201D1062705E00D
:10447000284FB84201D1072700E0082707FA08F7BC
:104480002743CCF80878DAF800405746D1F804C042
:104490009C435FEACC2C00D51C433C60DBF8004019
:1044A0005F46D1F804C09C435FEA8C2C00D51C43C6
:1044B0003C60DEF800407746D1F804C09C435FEAD8
:1044C0008C3C00D51C433C60084F083F3C68D1F849
:1044D00004C09C435FEACC3C00D51C433C60521CAA
:1044E000102AFFF42FAFBDE8F88F0000083C014010
:1044F0004438024000300140000002400004024005
:1045000000080240000C024000100240001402406B
:1045100000180240001C02400AB181617047090482
:10452000FBE7000001488068704700000C00002095
:104530000248816802781144816070470C000020B5
:104540000B4810B5016841F400710160016841F445
:1045500080610160016841F480710160032000F016
:104560009FF80F2000F006F800F050F8002010BD72
:10457000003C024030B505461F4887B00024016862
:1045800041F020010160006806A900F020000090C1
:1045900001A800F031F90498A8B100F04DF94000ED
:1045A0001649174AB0FBF1F11648491E026040F265
:1045B000E732C0E90324C0E90114846100F00EFD74
:1045C000040003D015E000F037F9E9E70D4800F0EA
:1045D00055FD04000DD1372000F034F8102D07D21E
:1045E00000222946372000F03BF80748056000E02C
:1045F000012407B0204630BD4038024040420F0041
:1046000000140040E0050020100000200C4882B09B
:10461000016841F480410160006800F4804000902E
:104620000748001F016841F08051016000680022C6
:1046300000F0805000900F21901E02B000F010B8E2
:1046400044380240002809DB00F01F02012191409C
:104650004009800000F1E020C0F800117047000020
:10466000F0B40E4B1B680C46C3F30223C3F10705DD
:10467000042D00D90425191D072901D2002300E0CB
:10468000DB1E012606FA05F1491E214099409E4095
:10469000761E16403143F0BC04F045BC0CED00E042
:1046A000064900F0070208684FF6FF03184040EA89
:1046B0000220034A10430860704700000CED00E040
:1046C0000000FA052DE9F0470E46050065D0DFF839
:1046D0001481D8F80000F7B200F00700B04207D20A
:1046E00088F80070D8F8000000F00700B04254D1FC
:1046F00028683D4C810712D5400703D5206840F457
:10470000E05020602878000703D5206840F460401E
:1047100020602068A96820F0F00008432060287815
:10472000C0072DD0304968680839012812D0022806
:1047300013D0032811D00968890700292DDA2168D0
:1047400021F0030101432160FFF7ECFE814641F2B5
:10475000883A0EE009688903EFE709688901ECE708
:10476000FFF7E0FEA0EB0901514502D90320BDE8A7
:10477000F0872068696800F00C00B0EB810FEFD182
:10478000D8F80010404601F00701B14207D9077080
:10479000006800F00700B04201D00120E7E7287868
:1047A000400705D52068E96820F4E0500843206000
:1047B0002878000706D52068296920F4604040EA7F
:1047C000C100206000F058F82168084AC1F30311C5
:1047D000515CC8400649086006480068FFF7CAFEF9
:1047E0000020C4E7003C024008380240ACA60008A4
:1047F00018000020100000200F2202600C4A1368ED
:1048000003F003034360136803F0F003836013684D
:1048100003F4E053C36012684FF4E05303EAD2029A
:1048200002610448006800F007000860704700005B
:1048300008380240003C0240044805490068096805
:10484000044AC1F38221515CC8407047180000201F
:1048500008380240BCA600080448054900680968F9
:10486000044AC1F34231515CC8407047180000202F
:1048700008380240BCA60008154810B5006810F0C2
:104880000C02144813D04110042A0FD0082A0ED16C
:104890000F4C241F2268236802F03F025B0207D5F9
:1048A0002068C0F38810A0FB010106E0084610BD97
:1048B0002168C1F38811A1FB00010023FBF768FD0B
:1048C0002168C1F30141491C4900B0FBF1F010BD62
:1048D000083802400024F4002DE9F84F04006ED09F
:1048E0002078DFF84C93C007A9F104054AD009F1FC
:1048F00004000168C1F38101012908D00068C0F3F8
:10490000810002280AD1D9F80000400206D52868A3
:10491000800337D560680028E1D033E06068B0F5E7
:10492000803F10D0B0F5A02F286810D020F4803040
:104930002860286820F4802028606068A8B1FFF70C
:10494000F1FD06460DE0286840F48030F4E740F4BD
:1049500080202860F7E700BFFFF7E4FD801B642894
:1049600073D828688003F7D50CE0FFF7DBFD064617
:1049700005E000BFFFF7D6FD801B6428F0D828684B
:104980008003F7D42078DFF8AC8280074FF0000A6C
:104990003ED5A748001D016811F00C0F08D0006833
:1049A000C0F3810002280BD1D9F80000400207D4DF
:1049B0002868800716D5E068012800D112E033E1AD
:1049C000E068B8B10120C8F80000FFF7ABFD06466B
:1049D00005E000BFFFF7A6FD801B0228C0D82868AD
:1049E0008007F7D52868216920F0F80040EAC10067
:1049F00028600DE0C8F800A0FFF794FD064604E02B
:104A0000FFF790FD801B02281FD828688007F7D485
:104A10002078000722D5864F87486169703771B1C9
:104A200001210160FFF77EFD064604E0FFF77AFDF5
:104A3000801B022809D838688007F7D50EE0C0F837
:104A400000A0FFF76FFD064605E082E0FFF76AFD74
:104A5000801B02287DD838688007F7D4207840076B
:104A600068D5DFF8CCB100270BF13C0BDBF8000078
:104A7000C0000BD4DBF8001041F08051CBF80010DF
:104A8000DBF80000012700F0805000906B4E30688A
:104A9000C00510D4306840F480703060FFF742FDEC
:104AA000009005E0FFF73EFD0099401A022850D81B
:104AB0003068C005F6D55E4EA0686C3601280FD070
:104AC0000528306810D020F001003060306820F0F8
:104AD00004003060A068B8B1FFF724FD00900FE03B
:104AE000306840F00100F4E740F004003060F7E780
:104AF000FFF718FD0099411A41F28830814266D8CB
:104B000030688007F4D50EE0FFF70CFD009007E059
:104B1000FFF708FD0099411A41F28830814256D8CA
:104B200030688007F4D42FB1DBF8001021F08051F9
:104B3000CBF80010A069C8B33D49091D0968C1F34D
:104B4000810102294AD00228504607D0C8F86000E7
:104B500000E03CE0FFF7E6FC04463BE04746C8F8CF
:104B60006000FFF7DFFC064605E000BFFFF7DAFC58
:104B7000801B02282BD828688001F7D4D4E90701CC
:104B80000843A16A2E4A490802EB0141626A41EAE0
:104B90008211084394F82C1040EA0161C9F8001012
:104BA00001203866FFF7BEFC044606E03EE000BF89
:104BB000FFF7B8FC001B022809D828688001F7D548
:104BC00034E000BFFFF7AEFC001B022802D903202F
:104BD000BDE8F88F28688001F4D427E00128F7D0D9
:104BE000D9F80000E26900F4800191421CD1226AE8
:104BF00000F03F01914217D147F6C071626A01404F
:104C0000B1EB821F10D1A26A4FF0FF3300F44031A4
:104C100003EB5202B1EB024F06D194F82C1000F0D6
:104C20007060B0EB016F01D00120D1E70020CFE729
:104C30000438024000004742800E474200700040A6
:104C40000000FFFF70B5040009D0606A002540B184
:104C500025616561A56294F8510040B10CE0012026
:104C600070BD6068B0F5827FF4D0E561F2E784F84A
:104C70005050204600F044F8022084F8510020688B
:104C8000016821F040010160A088218900F4827050
:104C900001F404410843A18901F400610843217C27
:104CA00001F002010843217D01F001010843218B3D
:104CB00001F400710843217F01F03801084394F8A2
:104CC000201001F080010843218D01F400510843B8
:104CD00021680860A069042101EA104094F82410BA
:104CE00001F010010843216848602068C16921F47F
:104CF0000061C1616565012084F85100002070BD2C
:104D000070472DE9FF4F81B01D46934604464FF092
:104D100001090E9EFFF706FC074694F851006168F2
:104D2000012806D0B1F5827F3CD1A168C9BB042817
:104D300038D10298002871D0BBF1000FFBD0002DB4
:104D4000F9D094F8500001282CD04FF0010A84F8D3
:104D500050A094F85100042802D0052084F8510096
:104D60004FF00008C4F85480C4F838B0E587A58730
:104D700002992163E586A586C4F84080C4F8448082
:104D800020680168490603D4016841F040010160D0
:104D9000E068B0F5006F606808D0F0B3012D49D02D
:104DA00081E0FFE7022005B0BDE8F08F08B1012DDA
:104DB00039D1206B21680088C860206B801C20637B
:104DC000E08E401EE0862EE02068816889070FD5BE
:104DD000E18E69B1B9F1010F0AD1216B0988C16077
:104DE000206B801C2063E08E401EE0864FF000099F
:104DF00020688168C9070CD0E18F51B1C068A16BF0
:104E00000880A06B801CA063E08F401EE0874FF0FD
:104E10000109FFF787FBC01B01E00BE067E0B04230
:104E200001D3701C50D1E08E0028CDD1E08F002836
:104E3000CAD13EE0206B216800780873206B401CCB
:104E40002063E08E401EE0862DE02068816889079F
:104E50000FD5E18E69B1B9F1010F0AD1216B097843
:104E60000173206B401C2063E08E401EE0864FF0F3
:104E7000000920688168C9070CD0E18F51B1C06872
:104E8000A16B0870A06B401CA063E08F401EE08700
:104E90004FF00109FFF746FBC01BB04202D3701C64
:104EA00001D011E086B1E08E0028CED1E08F00283D
:104EB000CBD13A463146204602F0CEF850B1202000
:104EC000606584F8508012E084F851A084F8508026
:104ED000032068E7A06818B92068C168806800905E
:104EE00084F851A084F85080606D0028F1D0012032
:104EF00059E77047704710B590F83C20012A22D03E
:104F0000012280F83C20CA688C6822F44072224357
:104F10004C6822F4806222430C6822F4006222432F
:104F20000C6922F4805222434C6922F4005222433D
:104F3000C969002322F480420A4301684A6480F868
:104F40003C30002010BD022010BD000070B590F86C
:104F50003C20012A32D0012480F83C40022280F813
:104F60003D2003685A689D6822F070060A68324343
:104F70005A60134B02689A4214D0B2F1804F11D09C
:104F8000104B9A420ED0104B9A420BD00F4B9A42C4
:104F900008D00F4B9A4205D00E4B9A4202D00E4BCE
:104FA0009A4204D1496825F080031943916080F842
:104FB0003D40002180F83C10084670BD022070BDC5
:104FC000000001400004004000080040000C0040C8
:104FD00000040140004001400018004010B50400EA
:104FE00003D094F83D0010B107E0012010BD00206F
:104FF00084F83C00204600F01FF8022084F83D00B1
:10500000211D206802F04EFC012084F8460084F83F
:105010003E0084F83F0084F8400084F8410084F8A2
:10502000420084F8430084F8440084F8450084F882
:105030003D00002010BD000008B500680C49884202
:1050400008D10C48016841F001010160006800F0DE
:1050500001000BE00849884209D10648001F016899
:1050600041F010010160006800F01000009008BDE0
:1050700000000140443802400010004090F83D100C
:10508000012901D001207047022180F83D100168FC
:10509000CA6842F00102CA6000681149884214D00F
:1050A000B0F1804F11D00F4988420ED00E4988428E
:1050B0000BD00E49884208D00D49884205D00D49D1
:1050C000884202D00C49884204D1816801F007016E
:1050D000062903D0016841F00101016000207047FA
:1050E000000001400004004000080040000C0040A7
:1050F00000040140004001400018004070B5044623
:1051000090F83C000025012817D0012684F83C6067
:10511000022084F83D002068826822F0770222F4A1
:105120007F4282600868502838D00DDC20284FD09C
:1051300005DC90B3102811D14AE0022070BD302860
:1051400046D040280AD13BE060282FD070280DD0EF
:10515000B0F5805F03D0B0F5005F12D0012584F870
:105160003D60002084F83C00284670BDCB68D1E942
:105170000121206802F0FEFB2068816841F0770180
:1051800009E0CB68D1E90121206802F0F3FB206837
:10519000816841F480418160E1E719E0CA684968AB
:1051A000206802F0BBFC5021206806E0CA6849680C
:1051B000206802F0C4FC6021206802F0E5FBCEE725
:1051C000CA684968206802F0A9FC40212068F4E719
:1051D000226801461046F0E770472DE9F041044689
:1051E0000068C66805694FF00007A90713D5B10725
:1051F00011D5F91E016101202077206880698007A0
:10520000204602D0FFF7E8FF04E000F0A9F82046AE
:1052100000F03BF92777680716D5700714D5216889
:105220006FF004000861022020772068806910F484
:10523000407F204602D0FFF7CFFF04E000F090F857
:10524000204600F022F92777280715D5300713D517
:1052500021686FF008000861042020772068C06989
:105260008007204602D0FFF7B7FF04E000F078F88F
:10527000204600F00AF92777E80616D5F00614D57F
:1052800021686FF010000861082020772068C0694D
:1052900010F4407F204602D0FFF79EFF04E000F0AC
:1052A0005FF8204600F0F1F82777E80708D0F0070C
:1052B00006D021686FF001000861204600F0E6F892
:1052C000280608D5300606D521686FF080000861F1
:1052D0002046FFF70EFE680608D5700606D5216841
:1052E0006FF040000861204600F0DEF8A8060AD5FD
:1052F000B00608D521686FF0200008612046BDE89F
:10530000F041FFF7F7BDBDE8F081000010B586B0B1
:10531000044614216846FBF7F9FB0E4920688842D1
:1053200016D10D480021026842F0100202600068A8
:1053300000F0100005904FF4007000900220CDE9BD
:1053400001010120CDE9031069460448FEF7ECFF96
:1053500006B010BD0000014030380240001002408D
:10536000704770B5044690F83C0000260D460128B1
:105370000FD0012084F83C006AB1042A1DD0082A0D
:105380002FD00C2A3FD00126002084F83C00304664
:1053900070BD022070BD206802F0FEFA20688169AD
:1053A00041F0080181612068816921F00401816177
:1053B000206881692A69114311E0206802F01CFB12
:1053C0002068816941F4006181612068816921F46C
:1053D00080618161206881692A6941EA02218161D5
:1053E000D2E7206802F03EFB2068C16941F0080165
:1053F000C1612068C16921F00401C1612068C169EF
:105400002A69114311E0206802F060FB2068C1693D
:1054100041F40061C1612068C16921F48061C1610A
:105420002068C1692A6941EA0221C161ACE710B56F
:10543000040003D094F83D0010B107E0012010BD36
:10544000002084F83C00204600F01EF8022084F87A
:105450003D00211D206802F025FA012084F8460055
:1054600084F83E0084F83F0084F8400084F841004E
:1054700084F8420084F8430084F8440084F845002E
:1054800084F83D00002010BD7047704710B50068DB
:105490000449884205D1FFF74BF8BDE8104003F0FE
:1054A00023BD10BD00140040704738B5044690F885
:1054B0004200202801D0022038BD51B14AB101205C
:1054C000206300206063204602F050FD216B01291B
:1054D00001D0012038BD21680A684968009121681F
:1054E0000C3151E8002F42F0100241E80023002B5C
:1054F000F5D138BD70B50D4600680B49884212D110
:10550000402D02D94025002401E0002405E0074891
:10551000005D01F027FA641CA4B2AC42F7D3BDE8E9
:10552000704001F0B7BB70BD00440040DC56002065
:10553000704770B5044620680C3050E8001F21F415
:10554000907140E80012002AF5D12068143050E82C
:10555000001F21F0010140E80012002AF5D1206B64
:10556000012809D120680C3050E8001F21F01001FB
:1055700040E80012002AF5D1206840694FF000058C
:10558000400615D52068143050E8001F21F0400176
:1055900040E80012002AF5D1E06B48B10565E06BE8
:1055A000FEF7DDFC20B1E06BFEF734FD202806D0CD
:1055B000E585202084F842002563002070BD10207E
:1055C0006064032070BD704770B5044620680C30DD
:1055D00050E8001F21F0C00140E80012002AF5D178
:1055E000206840691546000615D52068143050E83B
:1055F000001F21F0800140E80012002AF5D1A06BC5
:1056000048B10565A06BFEF7AAFC20B1A06BFEF7C0
:1056100001FD202805D0E584202084F841000020E9
:1056200070BD10206064032070BD7047006805499C
:10563000884206D10448816A491C816203490120DD
:1056400008707047004400405C570020B8000020FC
:10565000F8B5016804460868CA684B6910F00F0F76
:105660004FF0000556D003F0010602F4907737435F
:1056700061D0C10705D0D10503D5616C41F00101AE
:105680006164410705D5D90703D0616C41F002017F
:105690006164810705D5D90703D0616C41F004012D
:1056A0006164010707D502F02001314303D0616C2A
:1056B00041F008016164616C00293BD0800604D58B
:1056C000900602D5204602F069FB20684069616CB3
:1056D000C0F38010090700D440B3204602F002FB5B
:1056E0002068406940061ED52068143050E8001F2D
:1056F00021F0400140E80012002AF5D1E06B90B1A2
:1057000072490165E06BFEF773FC002812D0E06B74
:10571000016DD7E083060ED593060CD52046BDE873
:10572000F84002F03BBB2046A16DCBE0A16D2046C6
:1057300088476564F8BD266B2023012E7ED1C606FE
:105740007CD5D6067AD508684868009048694FF03D
:105750000206400649D5E26B106840684FF4807736
:105760000004000C3AD0A18D814237D9E085D06980
:10577000B8422DD020680C3050E8001F21F4807111
:1057800040E80012002AF5D12068143050E8001FCC
:1057900021F0010140E80012002AF5D12068143000
:1057A00050E8001F21F0400140E80012002AF5D126
:1057B00084F84230256320680C3050E8001F21F047
:1057C000100140E80012002AF5D1E06BFEF7C7FB9C
:1057D0006663A08DE18D401A81B233E0A18D8142D4
:1057E000A8D1D069B8422CD0F8BDA08DE18D401A67
:1057F00081B2E08D0028F7D00029F5D020680C3068
:1058000050E8002F22F4907240E80027002FF5D1D5
:105810002068143050E8002F22F0010240E80027F1
:10582000002FF5D184F84230256320680C3050E811
:10583000002F22F0100240E8002300E008E0002BD7
:10584000F3D16663E26E01B02046BDE8F040104738
:1058500005062BD5150629D594F841002128C3D17A
:10586000A068B0F5805F01D12069B0B1206A411C09
:105870002162216800784860E08C401E0004000C22
:10588000E084B1D12068C16821F08001C160206846
:10589000C16841F04001C160F8BD206A0088C0F3D2
:1058A00008004860206A801C2062E5E74006F3D5C6
:1058B0005006F1D5CA68204622F04002CA6084F83A
:1058C0004130E16C01B0BDE8F0400847AD7B000815
:1058D00070B5040004D094F84100002510B10DE02B
:1058E000012070BD84F84050204602F031FA206F4C
:1058F00008B914482067014620468847242084F8C8
:1059000041002068C16821F40051C160204602F0C6
:10591000A7FA2068016921F490410161206841697A
:1059200021F02A0141612068C16841F40051C16041
:105930006564202084F8410084F8420065630020FB
:1059400070BD0000495900082DE9F04F87B00646A8
:1059500014216846FBF7DAF875490223D6F800C02F
:10596000744803220725DFF8D0B100249F064FF4C6
:1059700080694FF4003A8C4551D16E491431D1F809
:1059800000C04CF0100CC1F800C0096801F0100113
:105990000591016841F0010101600068694600F06D
:1059A0000100059050028DE81900CDE90325584605
:1059B000FEF7BAFC624D6148C8462860C5E901742B
:1059C000C5E903496C61AC61C5E9074AD14628467F
:1059D0006C62FEF7F5FB08B1FDF7EEFEF563AE6312
:1059E000574D564860357830E5E802074020A5E875
:1059F0001101534845F814496030AC61C5E90749C5
:105A00006C62FEF7DDFB08B1FDF7D6FEB563002240
:105A100005212520AE63FEF723FE25203BE0454906
:105A2000DFF820811031C4453AD1D1F800C04CF4E0
:105A3000003CC1F800C0096801F40031059101681B
:105A400041F0080101600068694600F00800059017
:105A500060208DE81900CDE903253B48FEF764FC82
:105A6000374D3A48C0352860C5E90174C5E9034996
:105A70006C61AC61C5E9074A28466C62FEF7A0FB81
:105A800008B1FDF799FEF563002205212620AE63DB
:105A9000FEF7E6FD2620FEF7D5FD07B0BDE8F08F46
:105AA0002B4EB44520D10E6846F480260E6009685E
:105AB00001F480210591016841F002010160006854
:105AC000694600F0020005904FF440608DE819002F
:105AD000CDE903251F48FEF727FC002205212720DA
